{
  "contractName": "CompoundLoanable",
  "abi": [
    {
      "constant": true,
      "inputs": [
        {
          "name": "",
          "type": "uint256"
        }
      ],
      "name": "idToCompoundLoan",
      "outputs": [
        {
          "name": "balanceCTokens",
          "type": "uint256"
        },
        {
          "name": "balanceUnderlying",
          "type": "uint256"
        },
        {
          "name": "underlying",
          "type": "address"
        }
      ],
      "payable": false,
      "stateMutability": "view",
      "type": "function"
    },
    {
      "constant": true,
      "inputs": [
        {
          "name": "",
          "type": "address"
        }
      ],
      "name": "underlyingToCToken",
      "outputs": [
        {
          "name": "",
          "type": "address"
        }
      ],
      "payable": false,
      "stateMutability": "view",
      "type": "function"
    }
  ],
  "bytecode": "0x608060405234801561001057600080fd5b50610128806100206000396000f3fe6080604052348015600f57600080fd5b506004361060325760003560e01c8063264f5c62146037578063d473e09a146078575b600080fd5b605160048036036020811015604b57600080fd5b503560b7565b6040805193845260208401929092526001600160a01b031682820152519081900360600190f35b609b60048036036020811015608c57600080fd5b50356001600160a01b031660e1565b604080516001600160a01b039092168252519081900360200190f35b6000602081905290815260409020805460018201546002909201549091906001600160a01b031683565b6001602052600090815260409020546001600160a01b03168156fea165627a7a723058201700394ebcd92b8cb38a74a6371c657a920eafb12ec4dbcb17eb9fe8deeb616b0029",
  "source": "pragma solidity 0.5.8;\n\nimport '../../node_modules/openzeppelin-solidity/contracts/token/ERC20/IERC20.sol';\nimport '../../node_modules/openzeppelin-solidity/contracts/math/SafeMath.sol';\nimport '../lib/Compound/CErc20Interface.sol';\nimport '../lib/Compound/CEtherInterface.sol';\nimport '../lib/utils/AddressUtils.sol';\n\ncontract CompoundLoanable {\n    using SafeMath for uint256;\n    using AddressUtils for address;\n\n    struct CompoundLoan {\n        uint256 balanceCTokens;\n        uint256 balanceUnderlying;\n        address underlying;\n    }\n    mapping(uint256 => CompoundLoan) public idToCompoundLoan;\n    mapping(address => address) public underlyingToCToken;\n\n    /* INTERNAL FUNCTIONS */\n\n    function compoundCloseLoan(uint256 _id)\n        internal\n        returns (uint256 cTokensRemaining_, address cTokenAddress_)\n    {\n        CompoundLoan memory loan = idToCompoundLoan[_id];\n\n        // Only run when balance underlying is depleted\n        assert(loan.balanceUnderlying == 0);\n\n        // Copy remaining cToken address and balance\n        cTokensRemaining_ = loan.balanceCTokens;\n        cTokenAddress_ = underlyingToCToken[loan.underlying];\n\n        // Clear storage\n        delete idToCompoundLoan[_id];\n    }\n\n    function compoundCreateLoan(\n        uint256 _id,\n        uint256 _amount,\n        address _underlying\n    )\n        internal\n    {\n        require (\n            underlyingToCToken[_underlying] != address(0),\n            \"Compound loan create: no cToken address found\"\n        );\n\n        CompoundLoan memory loan = CompoundLoan({\n            balanceCTokens: 0,\n            balanceUnderlying: _amount,\n            underlying: _underlying\n        });\n        idToCompoundLoan[_id] = loan;\n\n        compoundSupplyPrincipal(_id);\n    }\n\n    function compoundRedeemBalanceUnderlying(uint256 _id)\n        internal\n        returns (uint256 redeemAmount_)\n    {\n        uint256 redeemAmount = idToCompoundLoan[_id].balanceUnderlying;\n\n        if (redeemAmount > 0) {\n            compoundRedeemUnderlying(_id, redeemAmount);\n        }\n        return redeemAmount;\n    }\n\n    function compoundRedeemUnderlying(uint256 _id, uint256 _amount) internal {\n        CompoundLoan storage loan = idToCompoundLoan[_id];\n        require(\n            loan.balanceUnderlying >= _amount,\n            \"Compound redeem: amount greater than balance\"\n        );\n\n        // Can use CErc20 for CEther because interface function is the same.\n        CErc20Interface cToken = CErc20Interface(\n            underlyingToCToken[loan.underlying]\n        );\n\n        // Redeem cTokens and adjust the underlying and cToken balances.\n        loan.balanceUnderlying = loan.balanceUnderlying.sub(_amount);\n        uint256 cTokenBalanceBefore = cToken.balanceOf(address(this));\n        require(\n            cToken.redeemUnderlying(_amount) == 0,\n            \"Compound redeem: redeem failed\"\n        );\n        uint256 cTokenBalanceAfter = cToken.balanceOf(address(this));\n        loan.balanceCTokens = loan.balanceCTokens.sub(\n            cTokenBalanceBefore.sub(\n                cTokenBalanceAfter\n            )\n        );\n    }\n\n    /* PRIVATE FUNCTIONS */\n\n    function compoundSupplyEther(uint256 _amount)\n        private\n        returns (uint256 amountSupplied_)\n    {\n        address payable cEtherAddress = underlyingToCToken[address(0)].castPayable();\n        CEtherInterface cEther = CEtherInterface(cEtherAddress);\n\n        uint256 balanceBefore = cEther.balanceOf(address(this));\n        cEther.mint.value(_amount)();\n        uint256 balanceAfter = cEther.balanceOf(address(this));\n\n        amountSupplied_ = balanceAfter.sub(balanceBefore);\n    }\n\n    function compoundSupplyPrincipal(uint256 _id) private {\n        CompoundLoan storage loan = idToCompoundLoan[_id];\n\n        uint256 amountSupplied;\n        if (loan.underlying == address(0)) {\n            amountSupplied = compoundSupplyEther(loan.balanceUnderlying);\n        }\n        else {\n            amountSupplied = compoundSupplyToken(\n                loan.balanceUnderlying,\n                IERC20(loan.underlying)\n            );\n        }\n        loan.balanceCTokens = amountSupplied;\n    }\n\n    function compoundSupplyToken(uint256 _amount, IERC20 _underlying)\n        private\n        returns (uint256 amountSupplied_)\n    {\n        address cTokenAddress = underlyingToCToken[address(_underlying)];\n        CErc20Interface cToken = CErc20Interface(cTokenAddress);\n\n        _underlying.approve(cTokenAddress, _amount);\n\n        uint256 balanceBefore = cToken.balanceOf(address(this));\n        require(cToken.mint(_amount) == 0, \"Compound mint: failed\");\n        uint256 balanceAfter = cToken.balanceOf(address(this));\n\n        amountSupplied_ = balanceAfter.sub(balanceBefore);\n    }\n}\n",
  "sourcePath": "/Users/seancasey/Sites/vulcanswap/contracts/deploy/CompoundLoanable.sol",
  "compiler": {
    "name": "solc",
    "version": "0.5.8+commit.23d335f2.Emscripten.clang"
  },
  "schemaVersion": "3.0.16",
  "updatedAt": "2019-10-03T13:11:19.717Z",
  "devdoc": {
    "methods": {}
  },
  "userdoc": {
    "methods": {}
  }
}