{
  "contractName": "CostAverageOrderBook",
  "abi": [
    {
      "constant": true,
      "inputs": [
        {
          "name": "",
          "type": "address"
        }
      ],
      "name": "acceptedCurrencyInfo",
      "outputs": [
        {
          "name": "minAmount",
          "type": "uint256"
        },
        {
          "name": "maxAmount",
          "type": "uint256"
        },
        {
          "name": "state",
          "type": "uint8"
        }
      ],
      "payable": false,
      "stateMutability": "view",
      "type": "function"
    },
    {
      "constant": true,
      "inputs": [
        {
          "name": "",
          "type": "uint256"
        }
      ],
      "name": "idToCompoundLoan",
      "outputs": [
        {
          "name": "balanceCTokens",
          "type": "uint256"
        },
        {
          "name": "balanceUnderlying",
          "type": "uint256"
        },
        {
          "name": "underlying",
          "type": "address"
        }
      ],
      "payable": false,
      "stateMutability": "view",
      "type": "function"
    },
    {
      "constant": true,
      "inputs": [],
      "name": "minBatches",
      "outputs": [
        {
          "name": "",
          "type": "uint8"
        }
      ],
      "payable": false,
      "stateMutability": "view",
      "type": "function"
    },
    {
      "constant": true,
      "inputs": [
        {
          "name": "",
          "type": "uint256"
        }
      ],
      "name": "idToCostAverageOrder",
      "outputs": [
        {
          "name": "account",
          "type": "address"
        },
        {
          "name": "sourceCurrency",
          "type": "address"
        },
        {
          "name": "targetCurrency",
          "type": "address"
        },
        {
          "name": "state",
          "type": "uint8"
        },
        {
          "name": "amount",
          "type": "uint256"
        },
        {
          "name": "frequency",
          "type": "uint256"
        },
        {
          "name": "createdTimestamp",
          "type": "uint256"
        },
        {
          "name": "lastConversionTimestamp",
          "type": "uint256"
        },
        {
          "name": "sourceCurrencyBalance",
          "type": "uint256"
        },
        {
          "name": "sourceCurrencyConverted",
          "type": "uint256"
        },
        {
          "name": "targetCurrencyConverted",
          "type": "uint256"
        },
        {
          "name": "batches",
          "type": "uint8"
        },
        {
          "name": "batchesExecuted",
          "type": "uint8"
        }
      ],
      "payable": false,
      "stateMutability": "view",
      "type": "function"
    },
    {
      "constant": false,
      "inputs": [],
      "name": "renounceOwnership",
      "outputs": [],
      "payable": false,
      "stateMutability": "nonpayable",
      "type": "function"
    },
    {
      "constant": true,
      "inputs": [],
      "name": "owner",
      "outputs": [
        {
          "name": "",
          "type": "address"
        }
      ],
      "payable": false,
      "stateMutability": "view",
      "type": "function"
    },
    {
      "constant": true,
      "inputs": [],
      "name": "isOwner",
      "outputs": [
        {
          "name": "",
          "type": "bool"
        }
      ],
      "payable": false,
      "stateMutability": "view",
      "type": "function"
    },
    {
      "constant": true,
      "inputs": [
        {
          "name": "",
          "type": "address"
        },
        {
          "name": "",
          "type": "uint256"
        }
      ],
      "name": "accountToOrderIds",
      "outputs": [
        {
          "name": "",
          "type": "uint256"
        }
      ],
      "payable": false,
      "stateMutability": "view",
      "type": "function"
    },
    {
      "constant": true,
      "inputs": [],
      "name": "maxBatches",
      "outputs": [
        {
          "name": "",
          "type": "uint8"
        }
      ],
      "payable": false,
      "stateMutability": "view",
      "type": "function"
    },
    {
      "constant": true,
      "inputs": [],
      "name": "minFrequency",
      "outputs": [
        {
          "name": "",
          "type": "uint32"
        }
      ],
      "payable": false,
      "stateMutability": "view",
      "type": "function"
    },
    {
      "constant": true,
      "inputs": [
        {
          "name": "",
          "type": "address"
        }
      ],
      "name": "underlyingToCToken",
      "outputs": [
        {
          "name": "",
          "type": "address"
        }
      ],
      "payable": false,
      "stateMutability": "view",
      "type": "function"
    },
    {
      "constant": false,
      "inputs": [
        {
          "name": "newOwner",
          "type": "address"
        }
      ],
      "name": "transferOwnership",
      "outputs": [],
      "payable": false,
      "stateMutability": "nonpayable",
      "type": "function"
    },
    {
      "inputs": [
        {
          "name": "_uniswapFactoryAddress",
          "type": "address"
        }
      ],
      "payable": false,
      "stateMutability": "nonpayable",
      "type": "constructor"
    },
    {
      "payable": true,
      "stateMutability": "payable",
      "type": "fallback"
    },
    {
      "anonymous": false,
      "inputs": [
        {
          "indexed": true,
          "name": "_account",
          "type": "address"
        },
        {
          "indexed": false,
          "name": "_orderId",
          "type": "uint256"
        }
      ],
      "name": "NewOrder",
      "type": "event"
    },
    {
      "anonymous": false,
      "inputs": [
        {
          "indexed": true,
          "name": "_account",
          "type": "address"
        },
        {
          "indexed": false,
          "name": "_orderId",
          "type": "uint256"
        }
      ],
      "name": "OrderConversion",
      "type": "event"
    },
    {
      "anonymous": false,
      "inputs": [
        {
          "indexed": true,
          "name": "_account",
          "type": "address"
        },
        {
          "indexed": false,
          "name": "_orderId",
          "type": "uint256"
        }
      ],
      "name": "CancelOrder",
      "type": "event"
    },
    {
      "anonymous": false,
      "inputs": [
        {
          "indexed": true,
          "name": "_account",
          "type": "address"
        },
        {
          "indexed": false,
          "name": "_orderId",
          "type": "uint256"
        }
      ],
      "name": "CompleteOrder",
      "type": "event"
    },
    {
      "anonymous": false,
      "inputs": [
        {
          "indexed": true,
          "name": "previousOwner",
          "type": "address"
        },
        {
          "indexed": true,
          "name": "newOwner",
          "type": "address"
        }
      ],
      "name": "OwnershipTransferred",
      "type": "event"
    },
    {
      "constant": false,
      "inputs": [
        {
          "name": "_id",
          "type": "uint256"
        }
      ],
      "name": "cancelOrder",
      "outputs": [],
      "payable": false,
      "stateMutability": "nonpayable",
      "type": "function"
    },
    {
      "constant": true,
      "inputs": [],
      "name": "checkConversionDueAll",
      "outputs": [
        {
          "name": "",
          "type": "uint256[]"
        }
      ],
      "payable": false,
      "stateMutability": "view",
      "type": "function"
    },
    {
      "constant": false,
      "inputs": [
        {
          "name": "_amount",
          "type": "uint256"
        },
        {
          "name": "_sourceCurrency",
          "type": "address"
        },
        {
          "name": "_targetCurrency",
          "type": "address"
        },
        {
          "name": "_frequency",
          "type": "uint256"
        },
        {
          "name": "_batches",
          "type": "uint8"
        }
      ],
      "name": "createOrder",
      "outputs": [
        {
          "name": "id_",
          "type": "uint256"
        }
      ],
      "payable": true,
      "stateMutability": "payable",
      "type": "function"
    },
    {
      "constant": false,
      "inputs": [
        {
          "name": "_currency",
          "type": "address"
        },
        {
          "name": "_minAmount",
          "type": "uint256"
        },
        {
          "name": "_maxAmount",
          "type": "uint256"
        }
      ],
      "name": "createSourceCurrency",
      "outputs": [],
      "payable": false,
      "stateMutability": "nonpayable",
      "type": "function"
    },
    {
      "constant": false,
      "inputs": [],
      "name": "executeDueConversions",
      "outputs": [],
      "payable": false,
      "stateMutability": "nonpayable",
      "type": "function"
    },
    {
      "constant": true,
      "inputs": [
        {
          "name": "_currency",
          "type": "address"
        }
      ],
      "name": "getFeesCollected",
      "outputs": [
        {
          "name": "",
          "type": "uint256"
        }
      ],
      "payable": false,
      "stateMutability": "view",
      "type": "function"
    },
    {
      "constant": true,
      "inputs": [
        {
          "name": "_account",
          "type": "address"
        },
        {
          "name": "_index",
          "type": "uint256"
        }
      ],
      "name": "getOrderForAccountIndex",
      "outputs": [
        {
          "name": "id_",
          "type": "uint256"
        },
        {
          "name": "amount_",
          "type": "uint256"
        },
        {
          "name": "sourceCurrency_",
          "type": "address"
        },
        {
          "name": "targetCurrency_",
          "type": "address"
        },
        {
          "name": "state_",
          "type": "uint8"
        },
        {
          "name": "frequency_",
          "type": "uint256"
        },
        {
          "name": "batches_",
          "type": "uint8"
        },
        {
          "name": "batchesExecuted_",
          "type": "uint8"
        },
        {
          "name": "lastConversionTimestamp_",
          "type": "uint256"
        },
        {
          "name": "targetCurrencyConverted_",
          "type": "uint256"
        },
        {
          "name": "sourceCurrencyConverted_",
          "type": "uint256"
        }
      ],
      "payable": false,
      "stateMutability": "view",
      "type": "function"
    },
    {
      "constant": true,
      "inputs": [],
      "name": "getOrderParamLimits",
      "outputs": [
        {
          "name": "minFrequency_",
          "type": "uint32"
        },
        {
          "name": "minBatches_",
          "type": "uint8"
        },
        {
          "name": "maxBatches_",
          "type": "uint8"
        }
      ],
      "payable": false,
      "stateMutability": "view",
      "type": "function"
    },
    {
      "constant": false,
      "inputs": [
        {
          "name": "_maxBatches",
          "type": "uint8"
        }
      ],
      "name": "setMaxBatches",
      "outputs": [],
      "payable": false,
      "stateMutability": "nonpayable",
      "type": "function"
    },
    {
      "constant": false,
      "inputs": [
        {
          "name": "_minBatches",
          "type": "uint8"
        }
      ],
      "name": "setMinBatches",
      "outputs": [],
      "payable": false,
      "stateMutability": "nonpayable",
      "type": "function"
    },
    {
      "constant": false,
      "inputs": [
        {
          "name": "_minFrequency",
          "type": "uint32"
        }
      ],
      "name": "setMinFrequency",
      "outputs": [],
      "payable": false,
      "stateMutability": "nonpayable",
      "type": "function"
    },
    {
      "constant": false,
      "inputs": [
        {
          "name": "_currency",
          "type": "address"
        },
        {
          "name": "_cToken",
          "type": "address"
        }
      ],
      "name": "updateSourceCurrencyCToken",
      "outputs": [],
      "payable": false,
      "stateMutability": "nonpayable",
      "type": "function"
    },
    {
      "constant": false,
      "inputs": [
        {
          "name": "_currency",
          "type": "address"
        },
        {
          "name": "_isActive",
          "type": "bool"
        }
      ],
      "name": "updateSourceCurrencyIsActive",
      "outputs": [],
      "payable": false,
      "stateMutability": "nonpayable",
      "type": "function"
    },
    {
      "constant": false,
      "inputs": [
        {
          "name": "_currency",
          "type": "address"
        },
        {
          "name": "_minAmount",
          "type": "uint256"
        },
        {
          "name": "_maxAmount",
          "type": "uint256"
        }
      ],
      "name": "updateSourceCurrencyLimits",
      "outputs": [],
      "payable": false,
      "stateMutability": "nonpayable",
      "type": "function"
    },
    {
      "constant": false,
      "inputs": [
        {
          "name": "_currency",
          "type": "address"
        }
      ],
      "name": "withdrawFees",
      "outputs": [],
      "payable": false,
      "stateMutability": "nonpayable",
      "type": "function"
    },
    {
      "constant": true,
      "inputs": [
        {
          "name": "_id",
          "type": "uint256"
        }
      ],
      "name": "checkConversionDue",
      "outputs": [
        {
          "name": "",
          "type": "bool"
        }
      ],
      "payable": false,
      "stateMutability": "view",
      "type": "function"
    },
    {
      "constant": false,
      "inputs": [
        {
          "name": "_id",
          "type": "uint256"
        }
      ],
      "name": "executeDueConversion",
      "outputs": [],
      "payable": false,
      "stateMutability": "nonpayable",
      "type": "function"
    },
    {
      "constant": true,
      "inputs": [],
      "name": "getOrderCount",
      "outputs": [
        {
          "name": "",
          "type": "uint256"
        }
      ],
      "payable": false,
      "stateMutability": "view",
      "type": "function"
    },
    {
      "constant": true,
      "inputs": [
        {
          "name": "_account",
          "type": "address"
        }
      ],
      "name": "getOrderCountForAccount",
      "outputs": [
        {
          "name": "count_",
          "type": "uint256"
        }
      ],
      "payable": false,
      "stateMutability": "view",
      "type": "function"
    }
  ],
  "bytecode": "0x608060405234801561001057600080fd5b50604051602080612d0d8339810180604052602081101561003057600080fd5b5051600480546001600160a01b0319163317908190556040516001600160a01b0391909116906000907f8be0079c531659141344cd1fd0a4f28419497f9722a3daafe3b4186f6b6457e0908290a3600680546001600555610e1065ff0000000000600160301b600160d01b031990921666010000000000006001600160a01b0395909516949094029390931765ff000000000019161764ff0000000019166402000000001763ffffffff1916919091179055612c1c806100f16000396000f3fe6080604052600436106101d85760003560e01c80638d0a5fbb11610102578063bf580f4211610095578063d473e09a11610064578063d473e09a146108b0578063e92be0b6146108e3578063efa28b0314610922578063f2fde38b1461094f576101d8565b8063bf580f42146107e8578063c86377dc14610827578063ce0b0f0e1461083c578063ce8d030714610882576101d8565b806391fe20fe116100d157806391fe20fe1461070e57806396ba401f14610741578063bcbcdcd71461077c578063bde84aeb146107af576101d8565b80638d0a5fbb146106635780638d59ca4a1461068a5780638da5cb5b146106c85780638f32d59b146106f9576101d8565b806342d0e57c1161017a5780636c81e659116101495780636c81e659146105135780636d94fd0f14610543578063715018a614610610578063838bac1e14610625576101d8565b806342d0e57c1461039f5780634daae2c4146103ca578063514fcac7146104055780635c70e1541461042f576101d8565b806320580f42116101b657806320580f421461026f5780632493f1a2146102d4578063264f5c62146103395780632e84767e1461038a576101d8565b80631390dc54146101e5578063164e68de1461020f5780631b6671fd14610242575b36156101e357600080fd5b005b3480156101f157600080fd5b506101e36004803603602081101561020857600080fd5b5035610982565b34801561021b57600080fd5b506101e36004803603602081101561023257600080fd5b50356001600160a01b03166109a1565b34801561024e57600080fd5b506101e36004803603602081101561026557600080fd5b503560ff16610aeb565b34801561027b57600080fd5b50610284610b1e565b60408051602080825283518183015283519192839290830191858101910280838360005b838110156102c05781810151838201526020016102a8565b505050509050019250505060405180910390f35b3480156102e057600080fd5b50610307600480360360208110156102f757600080fd5b50356001600160a01b0316610bb1565b6040518084815260200183815260200182600281111561032357fe5b60ff168152602001935050505060405180910390f35b34801561034557600080fd5b506103636004803603602081101561035c57600080fd5b5035610bd5565b6040805193845260208401929092526001600160a01b031682820152519081900360600190f35b34801561039657600080fd5b506101e3610bff565b3480156103ab57600080fd5b506103b4610c21565b6040805160ff9092168252519081900360200190f35b3480156103d657600080fd5b506101e3600480360360408110156103ed57600080fd5b506001600160a01b0381351690602001351515610c32565b34801561041157600080fd5b506101e36004803603602081101561042857600080fd5b5035610c51565b34801561043b57600080fd5b506104596004803603602081101561045257600080fd5b5035610e07565b604051808e6001600160a01b03166001600160a01b031681526020018d6001600160a01b03166001600160a01b031681526020018c6001600160a01b03166001600160a01b031681526020018b60038111156104b157fe5b60ff1681526020018a81526020018981526020018881526020018781526020018681526020018581526020018481526020018360ff1660ff1681526020018260ff1660ff1681526020019d505050505050505050505050505060405180910390f35b34801561051f57600080fd5b506101e36004803603602081101561053657600080fd5b503563ffffffff16610e86565b34801561054f57600080fd5b5061057c6004803603604081101561056657600080fd5b506001600160a01b038135169060200135610eb3565b604051808c81526020018b81526020018a6001600160a01b03166001600160a01b03168152602001896001600160a01b03166001600160a01b031681526020018860038111156105c857fe5b60ff90811682526020820198909852958716604080880191909152949096166060860152608085019290925260a084015260c0830152519081900360e0019650945050505050f35b34801561061c57600080fd5b506101e3611063565b34801561063157600080fd5b5061064f6004803603602081101561064857600080fd5b50356110be565b604080519115158252519081900360200190f35b34801561066f57600080fd5b50610678611217565b60408051918252519081900360200190f35b34801561069657600080fd5b5061069f611221565b6040805163ffffffff909416845260ff9283166020850152911682820152519081900360600190f35b3480156106d457600080fd5b506106dd611244565b604080516001600160a01b039092168252519081900360200190f35b34801561070557600080fd5b5061064f611253565b34801561071a57600080fd5b506106786004803603602081101561073157600080fd5b50356001600160a01b0316611264565b34801561074d57600080fd5b506101e36004803603604081101561076457600080fd5b506001600160a01b038135811691602001351661127f565b34801561078857600080fd5b506106786004803603602081101561079f57600080fd5b50356001600160a01b03166112fb565b3480156107bb57600080fd5b50610678600480360360408110156107d257600080fd5b506001600160a01b038135169060200135611340565b3480156107f457600080fd5b506101e36004803603606081101561080b57600080fd5b506001600160a01b03813516906020810135906040013561136e565b34801561083357600080fd5b506103b461138a565b610678600480360360a081101561085257600080fd5b5080359060208101356001600160a01b03908116916040810135909116906060810135906080013560ff1661139a565b34801561088e57600080fd5b50610897611785565b6040805163ffffffff9092168252519081900360200190f35b3480156108bc57600080fd5b506106dd600480360360208110156108d357600080fd5b50356001600160a01b0316611791565b3480156108ef57600080fd5b506101e36004803603606081101561090657600080fd5b506001600160a01b0381351690602081013590604001356117ac565b34801561092e57600080fd5b506101e36004803603602081101561094557600080fd5b503560ff166117c8565b34801561095b57600080fd5b506101e36004803603602081101561097257600080fd5b50356001600160a01b03166117fb565b61098b816110be565b15156001141561099e5761099e81611815565b50565b6109a9611253565b6109b257600080fd5b6001600160a01b03811660009081526007602052604090208054610a0a57604051600160e51b62461bcd028152600401808060200182810382526022815260200180612b766022913960400191505060405180910390fd5b8054600082556001820154610a25908263ffffffff6119e116565b506001600160a01b038316610a6757604051339082156108fc029083906000818181858888f19350505050158015610a61573d6000803e3d6000fd5b50610ae6565b60408051600160e01b63a9059cbb0281523360048201526024810183905290516001600160a01b0385169163a9059cbb9160448083019260209291908290030181600087803b158015610ab957600080fd5b505af1158015610acd573d6000803e3d6000fd5b505050506040513d6020811015610ae357600080fd5b50505b505050565b610af3611253565b610afc57600080fd5b6006805460ff909216600160281b0265ff000000000019909216919091179055565b60606000610b2a611217565b905060008111610b3957600080fd5b606081604051908082528060200260200182016040528015610b65578160200160208202803883390190505b50905060015b828111610baa57610b7b816110be565b151560011415610ba25780826001830381518110610b9557fe5b6020026020010181815250505b600101610b6b565b5091505090565b60036020526000908152604090208054600182015460029092015490919060ff1683565b6000602081905290815260409020805460018201546002909201549091906001600160a01b031683565b60015b610c0a611217565b811161099e57610c1981610982565b600101610c02565b600654640100000000900460ff1681565b610c3a611253565b610c4357600080fd5b610c4d82826119fa565b5050565b600081815260086020526040902080546001600160a01b03163314610c7557600080fd5b6000816007015411610c8657600080fd5b600781018054600091829055838252602082905260409091206001015415610cc0576000610cb384611a87565b9050818114610cbe57fe5b505b60018201546001600160a01b0316610d0557604051339082156108fc029083906000818181858888f19350505050158015610cff573d6000803e3d6000fd5b50610d8f565b6001820154825460408051600160e01b63a9059cbb0281526001600160a01b039283166004820152602481018590529051919092169163a9059cbb9160448083019260209291908290030181600087803b158015610d6257600080fd5b505af1158015610d76573d6000803e3d6000fd5b505050506040513d6020811015610d8c57600080fd5b50505b610d9883611aaf565b600282018054600160a01b60ff0219167403000000000000000000000000000000000000000017905581546040805185815290516001600160a01b03909216917fc0e68d6b69f741c21e955cad2ae4d505b6f6735c7e7b278251b3f6283a5f07eb9181900360200190a2505050565b600860208190526000918252604090912080546001820154600283015460038401546004850154600586015460068701546007880154988801546009890154600a909901546001600160a01b039889169a978916999887169860ff600160a01b909804881698969795969495939493909180821691610100909104168d565b610e8e611253565b610e9757600080fd5b6006805463ffffffff191663ffffffff92909216919091179055565b6000806000806000806000806000806000610ecd8d611264565b8c10610ed857600080fd5b6001600160a01b038d16600090815260096020526040812080548e908110610efc57fe5b90600052602060002001549050610f11612a98565b60008281526008602090815260409182902082516101a08101845281546001600160a01b0390811682526001830154811693820193909352600282015492831693810193909352906060830190600160a01b900460ff166003811115610f7357fe5b6003811115610f7e57fe5b815260200160038201548152602001600482015481526020016005820154815260200160068201548152602001600782015481526020016008820154815260200160098201548152602001600a820160009054906101000a900460ff1660ff1660ff168152602001600a820160019054906101000a900460ff1660ff1660ff168152505090508181608001518260200151836040015184606001518560a001518661016001518761018001518860e001518961014001518a61012001519c509c509c509c509c509c509c509c509c509c509c5050509295989b509295989b9093969950565b61106b611253565b61107457600080fd5b6004546040516000916001600160a01b0316907f8be0079c531659141344cd1fd0a4f28419497f9722a3daafe3b4186f6b6457e0908390a3600480546001600160a01b0319169055565b60006110c8612a98565b60008381526008602090815260409182902082516101a08101845281546001600160a01b0390811682526001830154811693820193909352600282015492831693810193909352906060830190600160a01b900460ff16600381111561112a57fe5b600381111561113557fe5b815260038201546020820152600482015460408201526005820154606082015260068201546080820152600782015460a0820152600882015460c0820152600982015460e0820152600a9091015460ff808216610100808501919091529182900416610120909201919091528101519091506111b5576000915050611212565b80610160015160ff1681610180015160ff16106111d6576000915050611212565b60e08101516111e9576001915050611212565b60008160e00151420390508160a0015181101561120b57600092505050611212565b6001925050505b919050565b6005546000190190565b60065463ffffffff81169160ff6401000000008304811692600160281b90041690565b6004546001600160a01b031690565b6004546001600160a01b0316331490565b6001600160a01b031660009081526009602052604090205490565b611287611253565b61129057600080fd5b81600160006001600160a01b038316600090815260036020526040902060029081015460ff16908111156112c057fe5b14156112cb57600080fd5b50506001600160a01b03918216600090815260016020526040902080546001600160a01b03191691909216179055565b6000611305612b06565b50506001600160a01b031660009081526007602090815260409182902082518084019093528054808452600190910154929091018290520190565b6009602052816000526040600020818154811061135957fe5b90600052602060002001600091509150505481565b611376611253565b61137f57600080fd5b610ae6838383611b07565b600654600160281b900460ff1681565b60008460016001600160a01b038216600090815260036020526040902060029081015460ff16908111156113ca57fe5b146113d457600080fd5b60065460ff600160281b909104811690841611156113f157600080fd5b60065460ff6401000000009091048116908416101561140f57600080fd5b60065463ffffffff1684101561142457600080fd5b6001600160a01b03861660009081526003602052604090205487101561144957600080fd5b6001600160a01b03861660009081526003602052604090206001015487111561147157600080fd5b846001600160a01b0316866001600160a01b0316141561149057600080fd5b6001600160a01b0386166114af573487146114aa57600080fd5b61153f565b34156114ba57600080fd5b60408051600160e01b6323b872dd0281523360048201523060248201526044810189905290516001600160a01b038816916323b872dd9160648083019260209291908290030181600087803b15801561151257600080fd5b505af1158015611526573d6000803e3d6000fd5b505050506040513d602081101561153c57600080fd5b50505b611547612a98565b604080516101a0810182523381526001600160a01b038981166020830152881691810191909152606081016001815260208082018b905260408083018990524260608085019190915260006080850181905260a085018e905260c0850181905260e0850181905260ff8a1661010086015261012090940184905260055484526008835292819020845181546001600160a01b039182166001600160a01b03199182161783559386015160018301805491831691861691909117905591850151600282018054919093169316929092178082559284015193945084939192600160a01b60ff021916600160a01b83600381111561163f57fe5b02179055506080820151600382015560a0820151600482015560c082015160058083019190915560e083015160068301556101008084015160078401556101208401516008840155610140840151600980850191909155610160850151600a90940180546101809096015160ff1990961660ff9586161761ff001916949095169091029290921790925533600090815260209182526040812083548154600181018355918352929091200155546116f590611815565b6005546000908152600860209081526040808320600701546001600160a01b038b811685526001909352922054161561173557611735600554828a611b66565b600554604080519182525133917fef737f0fa1786a14bb1cc1ab889557c33fcea01691acf7e7e03e850aeff60d27919081900360200190a250506005805460018101909155979650505050505050565b60065463ffffffff1681565b6001602052600090815260409020546001600160a01b031681565b6117b4611253565b6117bd57600080fd5b610ae6838383611c29565b6117d0611253565b6117d957600080fd5b6006805460ff9092166401000000000264ff0000000019909216919091179055565b611803611253565b61180c57600080fd5b61099e81611d2c565b6000818152600860205260408120600a81015490919060ff6101008204811691811691909103166001141561184f57506007810154611869565b6003820154600a830154611866919060ff16611d9b565b90505b808260070154101561187c575060078101545b600782018054829003905560088201805482019055600a8201805460ff610100808304821660019081019092160261ff00199092169190911790915542600684015560008481526020819052604090200154156118dd576118dd8382611db0565b60028201546000906001600160a01b03166119175782546001840154611910916001600160a01b03908116911684612032565b9050611970565b60018301546001600160a01b03166119475782546002840154611910916001600160a01b039081169116846121e4565b82546001840154600285015461196d926001600160a01b03908116928116911685612302565b90505b6009830180548201905582546040805186815290516001600160a01b03909216917f9d40ca1b3e814a14204b5f836713067684a9facb9cdcf1524d819d5ecccce7d39181900360200190a2600a83015460ff8082166101009092041614156119db576119db846124c7565b50505050565b6000828201838110156119f357600080fd5b9392505050565b81600160006001600160a01b038316600090815260036020526040902060029081015460ff1690811115611a2a57fe5b1415611a3557600080fd5b6001600160a01b038416600090815260036020526040902083611a59576002611a5c565b60015b8160020160006101000a81548160ff02191690836002811115611a7b57fe5b02179055505050505050565b6000818152602081905260408120600101548015611aa957611aa98382611db0565b92915050565b6000818152602081905260409020541561099e57600080611acf8361253b565b6001600160a01b0381166000908152600760205260409020805492945090925090611b00908463ffffffff6119e116565b9055505050565b82600160006001600160a01b038316600090815260036020526040902060029081015460ff1690811115611b3757fe5b1415611b4257600080fd5b50506001600160a01b03909216600090815260036020526040902090815560010155565b6001600160a01b0381811660009081526001602052604090205416611bbf57604051600160e51b62461bcd02815260040180806020018281038252602d815260200180612b98602d913960400191505060405180910390fd5b611bc7612b20565b5060408051606081018252600080825260208083018681526001600160a01b038681168587019081528985529284905294909220835181559151600183015551600290910180546001600160a01b03191691909316179091556119db846125da565b8260006001600160a01b038216600090815260036020526040812060029081015460ff1690811115611c5757fe5b14611c6157600080fd5b611c69612b4a565b5060408051606081018252858152602080820186815260018385018181526001600160a01b038b16600090815260039094529490922083518155905181830155925160028085018054949586959094919260ff1990911691908490811115611ccd57fe5b021790555050600280546001810182556000919091527f405787fa12a823e0f2b7631cc41b3ba8828b3321ca811111fa75cd3aa3bb5ace0180546001600160a01b0319166001600160a01b039890981697909717909655505050505050565b6001600160a01b038116611d3f57600080fd5b6004546040516001600160a01b038084169216907f8be0079c531659141344cd1fd0a4f28419497f9722a3daafe3b4186f6b6457e090600090a3600480546001600160a01b0319166001600160a01b0392909216919091179055565b60006119f38360ff841663ffffffff61263616565b60008281526020819052604090206001810154821115611e0457604051600160e51b62461bcd02815260040180806020018281038252602c815260200180612bc5602c913960400191505060405180910390fd5b60028101546001600160a01b0390811660009081526001602081905260409091205490830154911690611e3d908463ffffffff61265816565b600183015560408051600160e01b6370a0823102815230600482015290516000916001600160a01b038416916370a0823191602480820192602092909190829003018186803b158015611e8f57600080fd5b505afa158015611ea3573d6000803e3d6000fd5b505050506040513d6020811015611eb957600080fd5b505160408051600160e01b63852a12e30281526004810187905290519192506001600160a01b0384169163852a12e3916024808201926020929091908290030181600087803b158015611f0b57600080fd5b505af1158015611f1f573d6000803e3d6000fd5b505050506040513d6020811015611f3557600080fd5b505115611f8c5760408051600160e51b62461bcd02815260206004820152601e60248201527f436f6d706f756e642072656465656d3a2072656465656d206661696c65640000604482015290519081900360640190fd5b60408051600160e01b6370a0823102815230600482015290516000916001600160a01b038516916370a0823191602480820192602092909190829003018186803b158015611fd957600080fd5b505afa158015611fed573d6000803e3d6000fd5b505050506040513d602081101561200357600080fd5b5051905061202861201a838363ffffffff61265816565b85549063ffffffff61265816565b9093555050505050565b60065460408051600160e11b6303795fb10281526001600160a01b03858116600483015291516000938493600160301b90910416916306f2bf62916024808301926020929190829003018186803b15801561208c57600080fd5b505afa1580156120a0573d6000803e3d6000fd5b505050506040513d60208110156120b657600080fd5b505160408051600160e01b63095ea7b30281526001600160a01b038084166004830152602482018790529151929350839260019261012c4201929089169163095ea7b3916044808201926020929091908290030181600087803b15801561211c57600080fd5b505af1158015612130573d6000803e3d6000fd5b505050506040513d602081101561214657600080fd5b505060408051600160e01b637237e0310281526004810188905260248101849052604481018390526001600160a01b038a81166064830152915191851691637237e031916084808201926020929091908290030181600087803b1580156121ac57600080fd5b505af11580156121c0573d6000803e3d6000fd5b505050506040513d60208110156121d657600080fd5b505198975050505050505050565b60065460408051600160e11b6303795fb10281526001600160a01b03858116600483015291516000938493600160301b90910416916306f2bf62916024808301926020929190829003018186803b15801561223e57600080fd5b505afa158015612252573d6000803e3d6000fd5b505050506040513d602081101561226857600080fd5b505160408051600160e01b63ad65d76d02815260016004820181905261012c4201602483018190526001600160a01b038a8116604485015293519495508594919390929085169163ad65d76d918991606480830192602092919082900301818588803b1580156122d757600080fd5b505af11580156122eb573d6000803e3d6000fd5b50505050506040513d60208110156121d657600080fd5b60065460408051600160e11b6303795fb10281526001600160a01b03868116600483015291516000938493600160301b90910416916306f2bf62916024808301926020929190829003018186803b15801561235c57600080fd5b505afa158015612370573d6000803e3d6000fd5b505050506040513d602081101561238657600080fd5b505160408051600160e01b63095ea7b30281526001600160a01b0380841660048301526024820187905291519293508392600192839261012c420192918b169163095ea7b3916044808201926020929091908290030181600087803b1580156123ee57600080fd5b505af1158015612402573d6000803e3d6000fd5b505050506040513d602081101561241857600080fd5b505060408051600160e01b63f552d91b028152600481018990526024810184905260448101859052606481018390526001600160a01b038c811660848301528a811660a483015291519186169163f552d91b9160c4808201926020929091908290030181600087803b15801561248d57600080fd5b505af11580156124a1573d6000803e3d6000fd5b505050506040513d60208110156124b757600080fd5b50519a9950505050505050505050565b60008181526008602052604090206124de82611aaf565b600281018054600160a01b60ff021916600160a11b17905580546040805184815290516001600160a01b03909216917feee53a62339b3b3432b27f55ba4665e4256566e4aadf3f0f094a6bfe9e1f83639181900360200190a25050565b600080612546612b20565b506000838152602081815260409182902082516060810184528154815260018201549281018390526002909101546001600160a01b0316928101929092521561258b57fe5b80516040918201516001600160a01b039081166000908152600160208181528583205498835282905293812081815593840155600290920180546001600160a01b031916905594931692915050565b600081815260208190526040812060028101549091906001600160a01b03166126115761260a826001015461266d565b9050612631565b6001820154600283015461262e91906001600160a01b0316612821565b90505b905550565b600080821161264457600080fd5b600082848161264f57fe5b04949350505050565b60008282111561266757600080fd5b50900390565b600080805260016020527fa6eef7e35abe7026729641147f7915573c7e97b47efa546f5f6e3230263bcb495481906126ad906001600160a01b0316612a95565b60408051600160e01b6370a08231028152306004820152905191925082916000916001600160a01b038416916370a0823191602480820192602092909190829003018186803b1580156126ff57600080fd5b505afa158015612713573d6000803e3d6000fd5b505050506040513d602081101561272957600080fd5b505160408051600160e01b631249c58b02815290519192506001600160a01b03841691631249c58b918891600480830192600092919082900301818588803b15801561277457600080fd5b505af1158015612788573d6000803e3d6000fd5b505060408051600160e01b6370a082310281523060048201529051600094506001600160a01b03871693506370a0823192506024808301926020929190829003018186803b1580156127d957600080fd5b505afa1580156127ed573d6000803e3d6000fd5b505050506040513d602081101561280357600080fd5b50519050612817818363ffffffff61265816565b9695505050505050565b6001600160a01b038082166000818152600160209081526040808320548151600160e01b63095ea7b3028152951660048601819052602486018890529051929490938493909263095ea7b3926044808201939182900301818987803b15801561288957600080fd5b505af115801561289d573d6000803e3d6000fd5b505050506040513d60208110156128b357600080fd5b505060408051600160e01b6370a0823102815230600482015290516000916001600160a01b038416916370a0823191602480820192602092909190829003018186803b15801561290257600080fd5b505afa158015612916573d6000803e3d6000fd5b505050506040513d602081101561292c57600080fd5b505160408051600160e31b63140e25ad0281526004810189905290519192506001600160a01b0384169163a0712d68916024808201926020929091908290030181600087803b15801561297e57600080fd5b505af1158015612992573d6000803e3d6000fd5b505050506040513d60208110156129a857600080fd5b5051156129ff5760408051600160e51b62461bcd02815260206004820152601560248201527f436f6d706f756e64206d696e743a206661696c65640000000000000000000000604482015290519081900360640190fd5b60408051600160e01b6370a0823102815230600482015290516000916001600160a01b038516916370a0823191602480820192602092909190829003018186803b158015612a4c57600080fd5b505afa158015612a60573d6000803e3d6000fd5b505050506040513d6020811015612a7657600080fd5b50519050612a8a818363ffffffff61265816565b979650505050505050565b90565b604080516101a081018252600080825260208201819052918101829052906060820190815260200160008152602001600081526020016000815260200160008152602001600081526020016000815260200160008152602001600060ff168152602001600060ff1681525090565b604051806040016040528060008152602001600081525090565b6040518060600160405280600081526020016000815260200160006001600160a01b031681525090565b6040518060600160405280600081526020016000815260200160006002811115612b7057fe5b90529056fe4665652062616c616e6365206d7573742062652067726561746572207468616e2030436f6d706f756e64206c6f616e206372656174653a206e6f2063546f6b656e206164647265737320666f756e64436f6d706f756e642072656465656d3a20616d6f756e742067726561746572207468616e2062616c616e6365a165627a7a7230582071096be11614724d12c521de9def8d9d883db0def1f47da068add3f4ef3464900029",
  "source": "pragma solidity 0.5.8;\n\nimport '../../node_modules/openzeppelin-solidity/contracts/ownership/Ownable.sol';\nimport '../../node_modules/openzeppelin-solidity/contracts/math/SafeMath.sol';\nimport '../../node_modules/openzeppelin-solidity/contracts/token/ERC20/IERC20.sol';\nimport './CompoundLoanable.sol';\nimport './LimitedAcceptedCurrencies.sol';\nimport './UniswapFactoryInterface.sol';\nimport './UniswapExchangeInterface.sol';\n\ncontract CostAverageOrderBook is CompoundLoanable, LimitedAcceptedCurrencies, Ownable {\n    using SafeMath for uint256;\n\n    uint256 internal nextId;\n    uint32 public minFrequency;\n    uint8 public minBatches;\n    uint8 public maxBatches;\n\n    UniswapFactoryInterface internal factory;\n\n    /* STORAGE - FEES */\n\n    struct FeesCollected {\n        uint256 balance;\n        uint256 withdrawn;\n    }\n    mapping(address => FeesCollected) private currencyToFeesCollected;\n\n    /* STORAGE - ORDERS */\n\n    enum OrderState { Failed, InProgress, Completed, Cancelled }\n    struct OrderInfo {\n        address account;\n        address sourceCurrency;\n        address targetCurrency;\n        OrderState state;\n        uint256 amount;\n        uint256 frequency; // in seconds\n        uint256 createdTimestamp;\n        uint256 lastConversionTimestamp;\n        uint256 sourceCurrencyBalance;\n        uint256 sourceCurrencyConverted;\n        uint256 targetCurrencyConverted;\n        uint8 batches;\n        uint8 batchesExecuted;\n    }\n    mapping(uint256 => OrderInfo) public idToCostAverageOrder;\n    mapping(address => uint256[]) public accountToOrderIds;\n\n    /* EVENTS */\n\n    event NewOrder(\n        address indexed _account,\n        uint256 _orderId\n    );\n\n    event OrderConversion(\n        address indexed _account,\n        uint256 _orderId\n    );\n\n    event CancelOrder(\n        address indexed _account,\n        uint256 _orderId\n    );\n\n    event CompleteOrder(\n        address indexed _account,\n        uint256 _orderId\n    );\n\n    constructor(address _uniswapFactoryAddress) public {\n        factory = UniswapFactoryInterface(_uniswapFactoryAddress);\n        nextId = 1;\n\n        // Initial order min/max\n        maxBatches = 255;\n        minBatches = 2;\n        minFrequency = 1 hours;\n    }\n\n    // Compound needs to be able to pay back Eth loans\n    function() external payable { require(msg.data.length == 0); }\n\n    /* EXTERNAL FUNCTIONS */\n\n    function cancelOrder(uint256 _id) external {\n        OrderInfo storage order = idToCostAverageOrder[_id];\n\n        require(order.account == msg.sender);\n        require(order.sourceCurrencyBalance > 0);\n\n        uint256 refundAmount = order.sourceCurrencyBalance;\n        order.sourceCurrencyBalance = 0;\n\n        if (idToCompoundLoan[_id].balanceUnderlying > 0) {\n            // Transfer remaining loaned tokens back to owner\n            uint256 redeemAmount = compoundRedeemBalanceUnderlying(_id);\n            assert(redeemAmount == refundAmount);\n        }\n\n        if (order.sourceCurrency == address(0)) {\n            msg.sender.transfer(refundAmount);\n        }\n        else {\n            IERC20(order.sourceCurrency).transfer(order.account, refundAmount);\n        }\n\n        closeLoan(_id);\n        order.state = OrderState.Cancelled;\n\n        emit CancelOrder(order.account, _id);\n    }\n\n    function checkConversionDueAll()\n        view\n        external\n        returns (uint256[] memory)\n    {\n        uint256 totalOrderCount = getOrderCount();\n        require(totalOrderCount > 0);\n\n        uint256[] memory coversionDueMap = new uint256[](totalOrderCount);\n\n        for (uint256 i=1; i<=totalOrderCount; i++) {\n            if (checkConversionDue(i) == true) coversionDueMap[i-1] = i;\n        }\n\n        return coversionDueMap;\n    }\n\n    function createOrder(\n        uint256 _amount,\n        address _sourceCurrency,\n        address _targetCurrency,\n        uint256 _frequency,\n        uint8 _batches\n    )\n        external\n        payable\n        currencyIsAccepted(_sourceCurrency)\n        returns (uint256 id_)\n    {\n        // Enforce common min/max values\n        require(_batches <= maxBatches);\n        require(_batches >= minBatches);\n        require(_frequency >= minFrequency);\n        require(_amount >= acceptedCurrencyInfo[_sourceCurrency].minAmount);\n        require(_amount <= acceptedCurrencyInfo[_sourceCurrency].maxAmount);\n\n        require(_sourceCurrency != _targetCurrency);\n\n        // If ETH payment\n        if (_sourceCurrency == address(0)) {\n            require(_amount == msg.value);\n        }\n        // If token payment\n        else {\n            require(msg.value == 0); // Not payable\n            IERC20(\n                _sourceCurrency\n            ).transferFrom(\n                msg.sender,\n                address(this),\n                _amount\n            );\n        }\n\n        OrderInfo memory newOrder = OrderInfo({\n            account: msg.sender,\n            amount: _amount,\n            batches: _batches,\n            batchesExecuted: 0,\n            createdTimestamp: now,\n            frequency: _frequency,\n            lastConversionTimestamp: 0,\n            sourceCurrency: _sourceCurrency,\n            sourceCurrencyBalance: _amount,\n            sourceCurrencyConverted: 0,\n            state: OrderState.InProgress,\n            targetCurrency: _targetCurrency,\n            targetCurrencyConverted: 0\n        });\n        idToCostAverageOrder[nextId] = newOrder;\n        accountToOrderIds[msg.sender].push(nextId);\n\n        // Execute the first order\n        convertCurrency(nextId);\n\n        // Get updated remaining balance\n        uint256 remainingAmount = idToCostAverageOrder[nextId].sourceCurrencyBalance;\n\n        // Loan remaining source currency on Compound if possible\n        if (underlyingToCToken[_sourceCurrency] != address(0)) {\n            compoundCreateLoan(nextId, remainingAmount, _sourceCurrency);\n        }\n\n        emit NewOrder(msg.sender, nextId);\n\n        nextId++;\n        return nextId-1;\n    }\n\n    function createSourceCurrency(\n        address _currency,\n        uint256 _minAmount,\n        uint256 _maxAmount\n    )\n        external\n        onlyOwner\n    {\n        addAcceptedCurrency(_currency, _minAmount, _maxAmount);\n    }\n\n    // Execute conversions en masse\n    function executeDueConversions() external {\n        for (uint256 i=1; i<=getOrderCount(); i++) {\n            executeDueConversion(i);\n        }\n    }\n\n    function getFeesCollected(address _currency)\n        view\n        external\n        returns (uint256)\n    {\n        FeesCollected memory fees = currencyToFeesCollected[_currency];\n        return fees.balance + fees.withdrawn;\n    }\n\n    function getOrderForAccountIndex(address _account, uint256 _index)\n        view\n        external\n        returns (\n            uint256 id_,\n            uint256 amount_,\n            address sourceCurrency_,\n            address targetCurrency_,\n            OrderState state_,\n            uint256 frequency_,\n            uint8 batches_,\n            uint8 batchesExecuted_,\n            uint256 lastConversionTimestamp_,\n            uint256 targetCurrencyConverted_,\n            uint256 sourceCurrencyConverted_\n            // uint256 createdTimestamp_\n        )\n    {\n        require(_index < getOrderCountForAccount(_account));\n\n        uint256 orderId = accountToOrderIds[_account][_index];\n        OrderInfo memory order = idToCostAverageOrder[orderId];\n\n        return (\n            orderId,\n            order.amount,\n            order.sourceCurrency,\n            order.targetCurrency,\n            order.state,\n            order.frequency,\n            order.batches,\n            order.batchesExecuted,\n            order.lastConversionTimestamp,\n            order.targetCurrencyConverted,\n            order.sourceCurrencyConverted\n            // order.createdTimestamp\n        );\n    }\n\n    function getOrderParamLimits()\n        view\n        external\n        returns (\n            uint32 minFrequency_,\n            uint8 minBatches_,\n            uint8 maxBatches_\n        )\n    {\n        return (minFrequency, minBatches, maxBatches);\n    }\n\n    function setMaxBatches(uint8 _maxBatches) external onlyOwner {\n        maxBatches = _maxBatches;\n    }\n\n    function setMinBatches(uint8 _minBatches) external onlyOwner {\n        minBatches = _minBatches;\n    }\n\n    function setMinFrequency(uint32 _minFrequency) external onlyOwner {\n        minFrequency = _minFrequency;\n    }\n\n    function updateSourceCurrencyCToken(address _currency, address _cToken)\n        external\n        onlyOwner\n        acceptedCurrencyExists(_currency, true)\n    {\n        underlyingToCToken[_currency] = _cToken;\n    }\n\n    function updateSourceCurrencyIsActive(address _currency, bool _isActive)\n        external\n        onlyOwner\n    {\n        updateAcceptedCurrencyIsActive(_currency, _isActive);\n    }\n\n    function updateSourceCurrencyLimits(\n        address _currency,\n        uint256 _minAmount,\n        uint256 _maxAmount\n    )\n        external\n        onlyOwner\n    {\n        updateAcceptedCurrencyLimits(_currency, _minAmount, _maxAmount);\n    }\n\n    function withdrawFees(address _currency) external onlyOwner {\n        FeesCollected storage feesCollected = currencyToFeesCollected[_currency];\n        require(\n            feesCollected.balance > 0,\n            \"Fee balance must be greater than 0\"\n        );\n\n        uint256 withdrawalAmount = feesCollected.balance;\n        feesCollected.balance = 0;\n        feesCollected.withdrawn.add(withdrawalAmount);\n\n        if (_currency == address(0)) {\n            msg.sender.transfer(withdrawalAmount);\n        }\n        else {\n            IERC20(_currency).transfer(msg.sender, withdrawalAmount);\n        }\n    }\n\n    /* PUBLIC FUNCTIONS*/\n\n    function checkConversionDue(uint256 _id) view public returns (bool) {\n        OrderInfo memory order = idToCostAverageOrder[_id];\n\n        // Check if there is a balance of source currency\n        if (order.sourceCurrencyBalance <= 0) return false;\n\n        // Check if there should be batches remaining\n        if (order.batchesExecuted >= order.batches) return false;\n\n        // Check if the first conversion has been executed\n        if (order.lastConversionTimestamp == 0) return true;\n\n        // Check if enough time has elapsed to execute the next conversion\n        uint256 timeDelta = now - order.lastConversionTimestamp;\n        if (timeDelta < order.frequency) return false;\n\n        return true;\n    }\n    // Execute converstions 1-by-1\n    function executeDueConversion(uint256 _id) public {\n        if (checkConversionDue(_id) == true) {\n            convertCurrency(_id);\n        }\n    }\n\n    function getOrderCount() view public returns (uint256) {\n        return nextId-1;\n    }\n\n    function getOrderCountForAccount(address _account)\n        view\n        public\n        returns (uint256 count_)\n    {\n        return accountToOrderIds[_account].length;\n    }\n\n    /* INTERNAL FUNCTIONS */\n\n    function valuePerBatch(uint256 _amount, uint8 _batches)\n        pure\n        internal\n        returns (uint256)\n    {\n        return _amount.div(_batches);\n    }\n\n    /* PRIVATE FUNCTIONS */\n\n    function closeLoan(uint256 _id) private {\n        if (idToCompoundLoan[_id].balanceCTokens > 0) {\n            // Delete loan and add leftover cTokens to fee\n            (uint256 cTokensRemaining, address cTokenAddress) = compoundCloseLoan(_id);\n            FeesCollected storage feesCollected = currencyToFeesCollected[cTokenAddress];\n            feesCollected.balance = feesCollected.balance.add(cTokensRemaining);\n        }\n    }\n\n    function completeOrder(uint256 _id) private {\n        OrderInfo storage order = idToCostAverageOrder[_id];\n\n        closeLoan(_id);\n        order.state = OrderState.Completed;\n\n        emit CompleteOrder(order.account, _id);\n    }\n\n    function convertCurrency(uint256 _id) private {\n        OrderInfo storage order = idToCostAverageOrder[_id];\n\n        uint256 batchValue;\n        // If final batch, use entire amount, else calc batch\n        if (order.batches - order.batchesExecuted == 1) {\n            batchValue = order.sourceCurrencyBalance;\n        }\n        else {\n            batchValue = valuePerBatch(order.amount, order.batches);\n        }\n\n        // In case batchValue is more than balance, use the remainder\n        if (order.sourceCurrencyBalance < batchValue) {\n            batchValue = order.sourceCurrencyBalance;\n        }\n\n        // Update all values possible before performing conversion\n        order.sourceCurrencyBalance -= batchValue;\n        order.sourceCurrencyConverted += batchValue;\n        order.batchesExecuted += 1;\n        order.lastConversionTimestamp = now;\n\n        // If source currency lent on Compound, redeem amount for order\n        if (idToCompoundLoan[_id].balanceUnderlying > 0) {\n            compoundRedeemUnderlying(_id, batchValue);\n        }\n\n        uint256 amountReceived;\n        if (order.targetCurrency == address(0)) {\n            amountReceived = exchangeTokenToEth(\n                order.account,\n                order.sourceCurrency,\n                batchValue\n            );\n        }\n        else if (order.sourceCurrency == address(0)) {\n            amountReceived = exchangeEthToToken(\n                order.account,\n                order.targetCurrency,\n                batchValue\n            );\n        }\n        else {\n            amountReceived = exchangeTokenToToken(\n                order.account,\n                order.sourceCurrency,\n                order.targetCurrency,\n                batchValue\n            );\n        }\n\n        // Update total tokens converted\n        order.targetCurrencyConverted += amountReceived;\n\n        emit OrderConversion(order.account, _id);\n\n        if (order.batches == order.batchesExecuted) {\n            completeOrder(_id);\n        }\n    }\n\n    function exchangeEthToToken(\n        address _recipient,\n        address _targetCurrency,\n        uint256 _amountSourceCurrency\n    )\n        private\n        returns (uint256 amountReceived_)\n    {\n        // Set up the Uniswap exchange interface for the target token\n        address exchangeAddress = factory.getExchange(_targetCurrency);\n        UniswapExchangeInterface exchange = UniswapExchangeInterface(exchangeAddress);\n\n        uint256 min_tokens = 1; // TODO: implement this correctly\n        uint256 deadline = now + 300; // this is the value in the docs\n        amountReceived_ = exchange.ethToTokenTransferInput.value(\n            _amountSourceCurrency\n        )\n        (\n            min_tokens,\n            deadline,\n            _recipient\n        );\n    }\n\n    function exchangeTokenToEth(\n        address _recipient,\n        address _sourceCurrency,\n        uint256 _amountSourceCurrency\n    )\n        private\n        returns (uint256 amountReceived_)\n    {\n        // Set up the Uniswap exchange interface for the target token\n        address exchangeAddress = factory.getExchange(_sourceCurrency);\n        UniswapExchangeInterface exchange = UniswapExchangeInterface(exchangeAddress);\n\n        uint256 min_eth = 1; // TODO: implement this correctly\n        uint256 deadline = now + 300; // this is the value in the docs\n\n        // Approve token transfer and execute swap\n        IERC20(_sourceCurrency).approve(exchangeAddress, _amountSourceCurrency);\n        amountReceived_ = exchange.tokenToEthTransferInput(\n            _amountSourceCurrency,\n            min_eth,\n            deadline,\n            _recipient\n        );\n    }\n\n    function exchangeTokenToToken(\n        address _recipient,\n        address _sourceCurrency,\n        address _targetCurrency,\n        uint256 _amountSourceCurrency\n    )\n        private\n        returns (uint256 amountReceived_)\n    {\n        // Set up the Uniswap exchange interface for the target token\n        address exchangeAddress = factory.getExchange(_sourceCurrency);\n        UniswapExchangeInterface exchange = UniswapExchangeInterface(exchangeAddress);\n\n        uint256 min_eth_intermediary = 1; // TODO: implement this correctly\n        uint256 min_tokens_bought = 1; // TODO: implement this correctly\n        uint256 deadline = now + 300; // this is the value in the docs\n\n        // Approve token transfer and execute swap\n        IERC20(_sourceCurrency).approve(exchangeAddress, _amountSourceCurrency);\n        amountReceived_ = exchange.tokenToTokenTransferInput(\n            _amountSourceCurrency,\n            min_tokens_bought,\n            min_eth_intermediary,\n            deadline,\n            _recipient,\n            _targetCurrency\n        );\n    }\n}\n",
  "sourcePath": "/Users/seancasey/Sites/vulcanswap/contracts/deploy/CostAverageOrderBook.sol",
  "compiler": {
    "name": "solc",
    "version": "0.5.8+commit.23d335f2.Emscripten.clang"
  },
  "schemaVersion": "3.0.16",
  "updatedAt": "2019-10-04T03:48:31.416Z",
  "devdoc": {
    "methods": {
      "isOwner()": {
        "return": "true if `msg.sender` is the owner of the contract."
      },
      "owner()": {
        "return": "the address of the owner."
      },
      "renounceOwnership()": {
        "details": "Allows the current owner to relinquish control of the contract. It will not be possible to call the functions with the `onlyOwner` modifier anymore."
      },
      "transferOwnership(address)": {
        "details": "Allows the current owner to transfer control of the contract to a newOwner.",
        "params": {
          "newOwner": "The address to transfer ownership to."
        }
      }
    }
  },
  "userdoc": {
    "methods": {
      "renounceOwnership()": {
        "notice": "Renouncing ownership will leave the contract without an owner, thereby removing any functionality that is only available to the owner."
      }
    }
  }
}