{
  "contractName": "CostAverageOrderBook",
  "abi": [
    {
      "constant": true,
      "inputs": [
        {
          "name": "",
          "type": "address"
        }
      ],
      "name": "acceptedCurrencyInfo",
      "outputs": [
        {
          "name": "minAmount",
          "type": "uint256"
        },
        {
          "name": "maxAmount",
          "type": "uint256"
        },
        {
          "name": "state",
          "type": "uint8"
        }
      ],
      "payable": false,
      "stateMutability": "view",
      "type": "function"
    },
    {
      "constant": true,
      "inputs": [
        {
          "name": "",
          "type": "uint256"
        }
      ],
      "name": "idToCompoundLoan",
      "outputs": [
        {
          "name": "balanceCTokens",
          "type": "uint256"
        },
        {
          "name": "balanceUnderlying",
          "type": "uint256"
        },
        {
          "name": "underlying",
          "type": "address"
        }
      ],
      "payable": false,
      "stateMutability": "view",
      "type": "function"
    },
    {
      "constant": true,
      "inputs": [],
      "name": "minBatches",
      "outputs": [
        {
          "name": "",
          "type": "uint8"
        }
      ],
      "payable": false,
      "stateMutability": "view",
      "type": "function"
    },
    {
      "constant": true,
      "inputs": [
        {
          "name": "",
          "type": "uint256"
        }
      ],
      "name": "idToCostAverageOrder",
      "outputs": [
        {
          "name": "account",
          "type": "address"
        },
        {
          "name": "sourceCurrency",
          "type": "address"
        },
        {
          "name": "targetCurrency",
          "type": "address"
        },
        {
          "name": "state",
          "type": "uint8"
        },
        {
          "name": "amount",
          "type": "uint256"
        },
        {
          "name": "frequency",
          "type": "uint256"
        },
        {
          "name": "createdTimestamp",
          "type": "uint256"
        },
        {
          "name": "lastConversionTimestamp",
          "type": "uint256"
        },
        {
          "name": "sourceCurrencyBalance",
          "type": "uint256"
        },
        {
          "name": "sourceCurrencyConverted",
          "type": "uint256"
        },
        {
          "name": "targetCurrencyConverted",
          "type": "uint256"
        },
        {
          "name": "batches",
          "type": "uint8"
        },
        {
          "name": "batchesExecuted",
          "type": "uint8"
        }
      ],
      "payable": false,
      "stateMutability": "view",
      "type": "function"
    },
    {
      "constant": false,
      "inputs": [],
      "name": "renounceOwnership",
      "outputs": [],
      "payable": false,
      "stateMutability": "nonpayable",
      "type": "function"
    },
    {
      "constant": true,
      "inputs": [],
      "name": "owner",
      "outputs": [
        {
          "name": "",
          "type": "address"
        }
      ],
      "payable": false,
      "stateMutability": "view",
      "type": "function"
    },
    {
      "constant": true,
      "inputs": [],
      "name": "isOwner",
      "outputs": [
        {
          "name": "",
          "type": "bool"
        }
      ],
      "payable": false,
      "stateMutability": "view",
      "type": "function"
    },
    {
      "constant": true,
      "inputs": [
        {
          "name": "",
          "type": "address"
        },
        {
          "name": "",
          "type": "uint256"
        }
      ],
      "name": "accountToOrderIds",
      "outputs": [
        {
          "name": "",
          "type": "uint256"
        }
      ],
      "payable": false,
      "stateMutability": "view",
      "type": "function"
    },
    {
      "constant": true,
      "inputs": [],
      "name": "maxBatches",
      "outputs": [
        {
          "name": "",
          "type": "uint8"
        }
      ],
      "payable": false,
      "stateMutability": "view",
      "type": "function"
    },
    {
      "constant": true,
      "inputs": [],
      "name": "minFrequency",
      "outputs": [
        {
          "name": "",
          "type": "uint32"
        }
      ],
      "payable": false,
      "stateMutability": "view",
      "type": "function"
    },
    {
      "constant": true,
      "inputs": [
        {
          "name": "",
          "type": "address"
        }
      ],
      "name": "underlyingToCToken",
      "outputs": [
        {
          "name": "",
          "type": "address"
        }
      ],
      "payable": false,
      "stateMutability": "view",
      "type": "function"
    },
    {
      "constant": false,
      "inputs": [
        {
          "name": "newOwner",
          "type": "address"
        }
      ],
      "name": "transferOwnership",
      "outputs": [],
      "payable": false,
      "stateMutability": "nonpayable",
      "type": "function"
    },
    {
      "inputs": [
        {
          "name": "_uniswapFactoryAddress",
          "type": "address"
        }
      ],
      "payable": false,
      "stateMutability": "nonpayable",
      "type": "constructor"
    },
    {
      "payable": true,
      "stateMutability": "payable",
      "type": "fallback"
    },
    {
      "anonymous": false,
      "inputs": [
        {
          "indexed": true,
          "name": "_account",
          "type": "address"
        },
        {
          "indexed": false,
          "name": "_orderId",
          "type": "uint256"
        }
      ],
      "name": "NewOrder",
      "type": "event"
    },
    {
      "anonymous": false,
      "inputs": [
        {
          "indexed": true,
          "name": "_account",
          "type": "address"
        },
        {
          "indexed": false,
          "name": "_orderId",
          "type": "uint256"
        }
      ],
      "name": "OrderConversion",
      "type": "event"
    },
    {
      "anonymous": false,
      "inputs": [
        {
          "indexed": true,
          "name": "_account",
          "type": "address"
        },
        {
          "indexed": false,
          "name": "_orderId",
          "type": "uint256"
        }
      ],
      "name": "CancelOrder",
      "type": "event"
    },
    {
      "anonymous": false,
      "inputs": [
        {
          "indexed": true,
          "name": "_account",
          "type": "address"
        },
        {
          "indexed": false,
          "name": "_orderId",
          "type": "uint256"
        }
      ],
      "name": "CompleteOrder",
      "type": "event"
    },
    {
      "anonymous": false,
      "inputs": [
        {
          "indexed": true,
          "name": "previousOwner",
          "type": "address"
        },
        {
          "indexed": true,
          "name": "newOwner",
          "type": "address"
        }
      ],
      "name": "OwnershipTransferred",
      "type": "event"
    },
    {
      "constant": false,
      "inputs": [
        {
          "name": "_id",
          "type": "uint256"
        }
      ],
      "name": "cancelOrder",
      "outputs": [],
      "payable": false,
      "stateMutability": "nonpayable",
      "type": "function"
    },
    {
      "constant": true,
      "inputs": [],
      "name": "checkConversionDueAll",
      "outputs": [
        {
          "name": "",
          "type": "uint256[]"
        }
      ],
      "payable": false,
      "stateMutability": "view",
      "type": "function"
    },
    {
      "constant": false,
      "inputs": [
        {
          "name": "_amount",
          "type": "uint256"
        },
        {
          "name": "_sourceCurrency",
          "type": "address"
        },
        {
          "name": "_targetCurrency",
          "type": "address"
        },
        {
          "name": "_frequency",
          "type": "uint256"
        },
        {
          "name": "_batches",
          "type": "uint8"
        }
      ],
      "name": "createOrder",
      "outputs": [
        {
          "name": "id_",
          "type": "uint256"
        }
      ],
      "payable": true,
      "stateMutability": "payable",
      "type": "function"
    },
    {
      "constant": false,
      "inputs": [
        {
          "name": "_currency",
          "type": "address"
        },
        {
          "name": "_minAmount",
          "type": "uint256"
        },
        {
          "name": "_maxAmount",
          "type": "uint256"
        }
      ],
      "name": "createSourceCurrency",
      "outputs": [],
      "payable": false,
      "stateMutability": "nonpayable",
      "type": "function"
    },
    {
      "constant": false,
      "inputs": [],
      "name": "executeDueConversions",
      "outputs": [],
      "payable": false,
      "stateMutability": "nonpayable",
      "type": "function"
    },
    {
      "constant": true,
      "inputs": [
        {
          "name": "_account",
          "type": "address"
        },
        {
          "name": "_index",
          "type": "uint256"
        }
      ],
      "name": "getOrderForAccountIndex",
      "outputs": [
        {
          "name": "id_",
          "type": "uint256"
        },
        {
          "name": "amount_",
          "type": "uint256"
        },
        {
          "name": "sourceCurrency_",
          "type": "address"
        },
        {
          "name": "targetCurrency_",
          "type": "address"
        },
        {
          "name": "state_",
          "type": "uint8"
        },
        {
          "name": "frequency_",
          "type": "uint256"
        },
        {
          "name": "batches_",
          "type": "uint8"
        },
        {
          "name": "batchesExecuted_",
          "type": "uint8"
        },
        {
          "name": "lastConversionTimestamp_",
          "type": "uint256"
        },
        {
          "name": "targetCurrencyConverted_",
          "type": "uint256"
        },
        {
          "name": "sourceCurrencyConverted_",
          "type": "uint256"
        }
      ],
      "payable": false,
      "stateMutability": "view",
      "type": "function"
    },
    {
      "constant": true,
      "inputs": [],
      "name": "getOrderParamLimits",
      "outputs": [
        {
          "name": "minFrequency_",
          "type": "uint32"
        },
        {
          "name": "minBatches_",
          "type": "uint8"
        },
        {
          "name": "maxBatches_",
          "type": "uint8"
        }
      ],
      "payable": false,
      "stateMutability": "view",
      "type": "function"
    },
    {
      "constant": false,
      "inputs": [
        {
          "name": "_maxBatches",
          "type": "uint8"
        }
      ],
      "name": "setMaxBatches",
      "outputs": [],
      "payable": false,
      "stateMutability": "nonpayable",
      "type": "function"
    },
    {
      "constant": false,
      "inputs": [
        {
          "name": "_minBatches",
          "type": "uint8"
        }
      ],
      "name": "setMinBatches",
      "outputs": [],
      "payable": false,
      "stateMutability": "nonpayable",
      "type": "function"
    },
    {
      "constant": false,
      "inputs": [
        {
          "name": "_minFrequency",
          "type": "uint32"
        }
      ],
      "name": "setMinFrequency",
      "outputs": [],
      "payable": false,
      "stateMutability": "nonpayable",
      "type": "function"
    },
    {
      "constant": false,
      "inputs": [
        {
          "name": "_currency",
          "type": "address"
        },
        {
          "name": "_cToken",
          "type": "address"
        }
      ],
      "name": "updateSourceCurrencyCToken",
      "outputs": [],
      "payable": false,
      "stateMutability": "nonpayable",
      "type": "function"
    },
    {
      "constant": false,
      "inputs": [
        {
          "name": "_currency",
          "type": "address"
        },
        {
          "name": "_isActive",
          "type": "bool"
        }
      ],
      "name": "updateSourceCurrencyIsActive",
      "outputs": [],
      "payable": false,
      "stateMutability": "nonpayable",
      "type": "function"
    },
    {
      "constant": false,
      "inputs": [
        {
          "name": "_currency",
          "type": "address"
        },
        {
          "name": "_minAmount",
          "type": "uint256"
        },
        {
          "name": "_maxAmount",
          "type": "uint256"
        }
      ],
      "name": "updateSourceCurrencyLimits",
      "outputs": [],
      "payable": false,
      "stateMutability": "nonpayable",
      "type": "function"
    },
    {
      "constant": false,
      "inputs": [
        {
          "name": "_currency",
          "type": "address"
        }
      ],
      "name": "withdrawFees",
      "outputs": [],
      "payable": false,
      "stateMutability": "nonpayable",
      "type": "function"
    },
    {
      "constant": true,
      "inputs": [
        {
          "name": "_id",
          "type": "uint256"
        }
      ],
      "name": "checkConversionDue",
      "outputs": [
        {
          "name": "",
          "type": "bool"
        }
      ],
      "payable": false,
      "stateMutability": "view",
      "type": "function"
    },
    {
      "constant": false,
      "inputs": [
        {
          "name": "_id",
          "type": "uint256"
        }
      ],
      "name": "executeDueConversion",
      "outputs": [],
      "payable": false,
      "stateMutability": "nonpayable",
      "type": "function"
    },
    {
      "constant": true,
      "inputs": [],
      "name": "getOrderCount",
      "outputs": [
        {
          "name": "",
          "type": "uint256"
        }
      ],
      "payable": false,
      "stateMutability": "view",
      "type": "function"
    },
    {
      "constant": true,
      "inputs": [
        {
          "name": "_account",
          "type": "address"
        }
      ],
      "name": "getOrderCountForAccount",
      "outputs": [
        {
          "name": "count_",
          "type": "uint256"
        }
      ],
      "payable": false,
      "stateMutability": "view",
      "type": "function"
    }
  ],
  "bytecode": "0x608060405234801561001057600080fd5b50604051602080612c378339810180604052602081101561003057600080fd5b5051600480546001600160a01b0319163317908190556040516001600160a01b0391909116906000907f8be0079c531659141344cd1fd0a4f28419497f9722a3daafe3b4186f6b6457e0908290a360068054600160055563ffffffff1964ff000000001965ff0000000000196001600160a01b03909516660100000000000002600160301b600160d01b0319909316929092179390931665ff000000000017166401000000001791909116610e10179055612b47806100f06000396000f3fe6080604052600436106101cd5760003560e01c80638d0a5fbb116100f7578063bf580f4211610095578063d473e09a11610064578063d473e09a14610872578063e92be0b6146108a5578063efa28b03146108e4578063f2fde38b14610911576101cd565b8063bf580f42146107aa578063c86377dc146107e9578063ce0b0f0e146107fe578063ce8d030714610844576101cd565b80638f32d59b116100d15780638f32d59b146106ee57806391fe20fe1461070357806396ba401f14610736578063bde84aeb14610771576101cd565b80638d0a5fbb146106585780638d59ca4a1461067f5780638da5cb5b146106bd576101cd565b806342d0e57c1161016f5780636c81e6591161013e5780636c81e659146105085780636d94fd0f14610538578063715018a614610605578063838bac1e1461061a576101cd565b806342d0e57c146103945780634daae2c4146103bf578063514fcac7146103fa5780635c70e15414610424576101cd565b806320580f42116101ab57806320580f42146102645780632493f1a2146102c9578063264f5c621461032e5780632e84767e1461037f576101cd565b80631390dc54146101da578063164e68de146102045780631b6671fd14610237575b36156101d857600080fd5b005b3480156101e657600080fd5b506101d8600480360360208110156101fd57600080fd5b5035610944565b34801561021057600080fd5b506101d86004803603602081101561022757600080fd5b50356001600160a01b0316610963565b34801561024357600080fd5b506101d86004803603602081101561025a57600080fd5b503560ff16610aad565b34801561027057600080fd5b50610279610ae0565b60408051602080825283518183015283519192839290830191858101910280838360005b838110156102b557818101518382015260200161029d565b505050509050019250505060405180910390f35b3480156102d557600080fd5b506102fc600480360360208110156102ec57600080fd5b50356001600160a01b0316610b73565b6040518084815260200183815260200182600281111561031857fe5b60ff168152602001935050505060405180910390f35b34801561033a57600080fd5b506103586004803603602081101561035157600080fd5b5035610b97565b6040805193845260208401929092526001600160a01b031682820152519081900360600190f35b34801561038b57600080fd5b506101d8610bc1565b3480156103a057600080fd5b506103a9610be3565b6040805160ff9092168252519081900360200190f35b3480156103cb57600080fd5b506101d8600480360360408110156103e257600080fd5b506001600160a01b0381351690602001351515610bf4565b34801561040657600080fd5b506101d86004803603602081101561041d57600080fd5b5035610c13565b34801561043057600080fd5b5061044e6004803603602081101561044757600080fd5b5035610dc9565b604051808e6001600160a01b03166001600160a01b031681526020018d6001600160a01b03166001600160a01b031681526020018c6001600160a01b03166001600160a01b031681526020018b60038111156104a657fe5b60ff1681526020018a81526020018981526020018881526020018781526020018681526020018581526020018481526020018360ff1660ff1681526020018260ff1660ff1681526020019d505050505050505050505050505060405180910390f35b34801561051457600080fd5b506101d86004803603602081101561052b57600080fd5b503563ffffffff16610e48565b34801561054457600080fd5b506105716004803603604081101561055b57600080fd5b506001600160a01b038135169060200135610e75565b604051808c81526020018b81526020018a6001600160a01b03166001600160a01b03168152602001896001600160a01b03166001600160a01b031681526020018860038111156105bd57fe5b60ff90811682526020820198909852958716604080880191909152949096166060860152608085019290925260a084015260c0830152519081900360e0019650945050505050f35b34801561061157600080fd5b506101d8611025565b34801561062657600080fd5b506106446004803603602081101561063d57600080fd5b5035611080565b604080519115158252519081900360200190f35b34801561066457600080fd5b5061066d6111d9565b60408051918252519081900360200190f35b34801561068b57600080fd5b506106946111e3565b6040805163ffffffff909416845260ff9283166020850152911682820152519081900360600190f35b3480156106c957600080fd5b506106d2611206565b604080516001600160a01b039092168252519081900360200190f35b3480156106fa57600080fd5b50610644611215565b34801561070f57600080fd5b5061066d6004803603602081101561072657600080fd5b50356001600160a01b0316611226565b34801561074257600080fd5b506101d86004803603604081101561075957600080fd5b506001600160a01b0381358116916020013516611241565b34801561077d57600080fd5b5061066d6004803603604081101561079457600080fd5b506001600160a01b0381351690602001356112bd565b3480156107b657600080fd5b506101d8600480360360608110156107cd57600080fd5b506001600160a01b0381351690602081013590604001356112eb565b3480156107f557600080fd5b506103a9611307565b61066d600480360360a081101561081457600080fd5b5080359060208101356001600160a01b03908116916040810135909116906060810135906080013560ff16611317565b34801561085057600080fd5b50610859611702565b6040805163ffffffff9092168252519081900360200190f35b34801561087e57600080fd5b506106d26004803603602081101561089557600080fd5b50356001600160a01b031661170e565b3480156108b157600080fd5b506101d8600480360360608110156108c857600080fd5b506001600160a01b038135169060208101359060400135611729565b3480156108f057600080fd5b506101d86004803603602081101561090757600080fd5b503560ff16611745565b34801561091d57600080fd5b506101d86004803603602081101561093457600080fd5b50356001600160a01b0316611778565b61094d81611080565b1515600114156109605761096081611792565b50565b61096b611215565b61097457600080fd5b6001600160a01b038116600090815260076020526040902080546109cc57604051600160e51b62461bcd028152600401808060200182810382526022815260200180612aa16022913960400191505060405180910390fd5b80546000825560018201546109e7908263ffffffff61192616565b506001600160a01b038316610a2957604051339082156108fc029083906000818181858888f19350505050158015610a23573d6000803e3d6000fd5b50610aa8565b60408051600160e01b63a9059cbb0281523360048201526024810183905290516001600160a01b0385169163a9059cbb9160448083019260209291908290030181600087803b158015610a7b57600080fd5b505af1158015610a8f573d6000803e3d6000fd5b505050506040513d6020811015610aa557600080fd5b50505b505050565b610ab5611215565b610abe57600080fd5b6006805460ff909216600160281b0265ff000000000019909216919091179055565b60606000610aec6111d9565b905060008111610afb57600080fd5b606081604051908082528060200260200182016040528015610b27578160200160208202803883390190505b50905060015b828111610b6c57610b3d81611080565b151560011415610b645780826001830381518110610b5757fe5b6020026020010181815250505b600101610b2d565b5091505090565b60036020526000908152604090208054600182015460029092015490919060ff1683565b6000602081905290815260409020805460018201546002909201549091906001600160a01b031683565b60015b610bcc6111d9565b811161096057610bdb81610944565b600101610bc4565b600654640100000000900460ff1681565b610bfc611215565b610c0557600080fd5b610c0f828261193f565b5050565b600081815260086020526040902080546001600160a01b03163314610c3757600080fd5b6000816007015411610c4857600080fd5b600781018054600091829055838252602082905260409091206001015415610c82576000610c75846119cc565b9050818114610c8057fe5b505b60018201546001600160a01b0316610cc757604051339082156108fc029083906000818181858888f19350505050158015610cc1573d6000803e3d6000fd5b50610d51565b6001820154825460408051600160e01b63a9059cbb0281526001600160a01b039283166004820152602481018590529051919092169163a9059cbb9160448083019260209291908290030181600087803b158015610d2457600080fd5b505af1158015610d38573d6000803e3d6000fd5b505050506040513d6020811015610d4e57600080fd5b50505b610d5a836119f4565b600282018054600160a01b60ff0219167403000000000000000000000000000000000000000017905581546040805185815290516001600160a01b03909216917fc0e68d6b69f741c21e955cad2ae4d505b6f6735c7e7b278251b3f6283a5f07eb9181900360200190a2505050565b600860208190526000918252604090912080546001820154600283015460038401546004850154600586015460068701546007880154988801546009890154600a909901546001600160a01b039889169a978916999887169860ff600160a01b909804881698969795969495939493909180821691610100909104168d565b610e50611215565b610e5957600080fd5b6006805463ffffffff191663ffffffff92909216919091179055565b6000806000806000806000806000806000610e8f8d611226565b8c10610e9a57600080fd5b6001600160a01b038d16600090815260096020526040812080548e908110610ebe57fe5b90600052602060002001549050610ed36129dd565b60008281526008602090815260409182902082516101a08101845281546001600160a01b0390811682526001830154811693820193909352600282015492831693810193909352906060830190600160a01b900460ff166003811115610f3557fe5b6003811115610f4057fe5b815260200160038201548152602001600482015481526020016005820154815260200160068201548152602001600782015481526020016008820154815260200160098201548152602001600a820160009054906101000a900460ff1660ff1660ff168152602001600a820160019054906101000a900460ff1660ff1660ff168152505090508181608001518260200151836040015184606001518560a001518661016001518761018001518860e001518961014001518a61012001519c509c509c509c509c509c509c509c509c509c509c5050509295989b509295989b9093969950565b61102d611215565b61103657600080fd5b6004546040516000916001600160a01b0316907f8be0079c531659141344cd1fd0a4f28419497f9722a3daafe3b4186f6b6457e0908390a3600480546001600160a01b0319169055565b600061108a6129dd565b60008381526008602090815260409182902082516101a08101845281546001600160a01b0390811682526001830154811693820193909352600282015492831693810193909352906060830190600160a01b900460ff1660038111156110ec57fe5b60038111156110f757fe5b815260038201546020820152600482015460408201526005820154606082015260068201546080820152600782015460a0820152600882015460c0820152600982015460e0820152600a9091015460ff808216610100808501919091529182900416610120909201919091528101519091506111775760009150506111d4565b80610160015160ff1681610180015160ff16106111985760009150506111d4565b60e08101516111ab5760019150506111d4565b60008160e00151420390508160a001518110156111cd576000925050506111d4565b6001925050505b919050565b6005546000190190565b60065463ffffffff81169160ff6401000000008304811692600160281b90041690565b6004546001600160a01b031690565b6004546001600160a01b0316331490565b6001600160a01b031660009081526009602052604090205490565b611249611215565b61125257600080fd5b81600160006001600160a01b038316600090815260036020526040902060029081015460ff169081111561128257fe5b141561128d57600080fd5b50506001600160a01b03918216600090815260016020526040902080546001600160a01b03191691909216179055565b600960205281600052604060002081815481106112d657fe5b90600052602060002001600091509150505481565b6112f3611215565b6112fc57600080fd5b610aa8838383611a4c565b600654600160281b900460ff1681565b60008460016001600160a01b038216600090815260036020526040902060029081015460ff169081111561134757fe5b1461135157600080fd5b60065460ff600160281b9091048116908416111561136e57600080fd5b60065460ff6401000000009091048116908416101561138c57600080fd5b60065463ffffffff168410156113a157600080fd5b6001600160a01b0386166000908152600360205260409020548710156113c657600080fd5b6001600160a01b0386166000908152600360205260409020600101548711156113ee57600080fd5b846001600160a01b0316866001600160a01b0316141561140d57600080fd5b6001600160a01b03861661142c5734871461142757600080fd5b6114bc565b341561143757600080fd5b60408051600160e01b6323b872dd0281523360048201523060248201526044810189905290516001600160a01b038816916323b872dd9160648083019260209291908290030181600087803b15801561148f57600080fd5b505af11580156114a3573d6000803e3d6000fd5b505050506040513d60208110156114b957600080fd5b50505b6114c46129dd565b604080516101a0810182523381526001600160a01b038981166020830152881691810191909152606081016001815260208082018b905260408083018990524260608085019190915260006080850181905260a085018e905260c0850181905260e0850181905260ff8a1661010086015261012090940184905260055484526008835292819020845181546001600160a01b039182166001600160a01b03199182161783559386015160018301805491831691861691909117905591850151600282018054919093169316929092178082559284015193945084939192600160a01b60ff021916600160a01b8360038111156115bc57fe5b02179055506080820151600382015560a0820151600482015560c082015160058083019190915560e083015160068301556101008084015160078401556101208401516008840155610140840151600980850191909155610160850151600a90940180546101809096015160ff1990961660ff9586161761ff0019169490951690910292909217909255336000908152602091825260408120835481546001810183559183529290912001555461167290611792565b6005546000908152600860209081526040808320600701546001600160a01b038b81168552600190935292205416156116b2576116b2600554828a611aab565b600554604080519182525133917fef737f0fa1786a14bb1cc1ab889557c33fcea01691acf7e7e03e850aeff60d27919081900360200190a250506005805460018101909155979650505050505050565b60065463ffffffff1681565b6001602052600090815260409020546001600160a01b031681565b611731611215565b61173a57600080fd5b610aa8838383611b6e565b61174d611215565b61175657600080fd5b6006805460ff9092166401000000000264ff0000000019909216919091179055565b611780611215565b61178957600080fd5b61096081611c71565b60008181526008602052604081206003810154600a8201549192916117ba919060ff16611ce0565b905080826007015410156117cf575060078101545b600782018054829003905560088201805482019055600a8201805460ff610100808304821660019081019092160261ff0019909216919091179091554260068401556000848152602081905260409020015415611830576118308382611cf5565b60028201546000906001600160a01b031661186a5782546001840154611863916001600160a01b03908116911684611f77565b90506118c3565b60018301546001600160a01b031661189a5782546002840154611863916001600160a01b03908116911684612129565b8254600184015460028501546118c0926001600160a01b03908116928116911685612247565b90505b6009830180548201905582546040805186815290516001600160a01b03909216917f9d40ca1b3e814a14204b5f836713067684a9facb9cdcf1524d819d5ecccce7d39181900360200190a26007830154611920576119208461240c565b50505050565b60008282018381101561193857600080fd5b9392505050565b81600160006001600160a01b038316600090815260036020526040902060029081015460ff169081111561196f57fe5b141561197a57600080fd5b6001600160a01b03841660009081526003602052604090208361199e5760026119a1565b60015b8160020160006101000a81548160ff021916908360028111156119c057fe5b02179055505050505050565b60008181526020819052604081206001015480156119ee576119ee8382611cf5565b92915050565b6000818152602081905260409020541561096057600080611a1483612480565b6001600160a01b0381166000908152600760205260409020805492945090925090611a45908463ffffffff61192616565b9055505050565b82600160006001600160a01b038316600090815260036020526040902060029081015460ff1690811115611a7c57fe5b1415611a8757600080fd5b50506001600160a01b03909216600090815260036020526040902090815560010155565b6001600160a01b0381811660009081526001602052604090205416611b0457604051600160e51b62461bcd02815260040180806020018281038252602d815260200180612ac3602d913960400191505060405180910390fd5b611b0c612a4b565b5060408051606081018252600080825260208083018681526001600160a01b038681168587019081528985529284905294909220835181559151600183015551600290910180546001600160a01b03191691909316179091556119208461251f565b8260006001600160a01b038216600090815260036020526040812060029081015460ff1690811115611b9c57fe5b14611ba657600080fd5b611bae612a75565b5060408051606081018252858152602080820186815260018385018181526001600160a01b038b16600090815260039094529490922083518155905181830155925160028085018054949586959094919260ff1990911691908490811115611c1257fe5b021790555050600280546001810182556000919091527f405787fa12a823e0f2b7631cc41b3ba8828b3321ca811111fa75cd3aa3bb5ace0180546001600160a01b0319166001600160a01b039890981697909717909655505050505050565b6001600160a01b038116611c8457600080fd5b6004546040516001600160a01b038084169216907f8be0079c531659141344cd1fd0a4f28419497f9722a3daafe3b4186f6b6457e090600090a3600480546001600160a01b0319166001600160a01b0392909216919091179055565b60006119388360ff841663ffffffff61257b16565b60008281526020819052604090206001810154821115611d4957604051600160e51b62461bcd02815260040180806020018281038252602c815260200180612af0602c913960400191505060405180910390fd5b60028101546001600160a01b0390811660009081526001602081905260409091205490830154911690611d82908463ffffffff61259d16565b600183015560408051600160e01b6370a0823102815230600482015290516000916001600160a01b038416916370a0823191602480820192602092909190829003018186803b158015611dd457600080fd5b505afa158015611de8573d6000803e3d6000fd5b505050506040513d6020811015611dfe57600080fd5b505160408051600160e01b63852a12e30281526004810187905290519192506001600160a01b0384169163852a12e3916024808201926020929091908290030181600087803b158015611e5057600080fd5b505af1158015611e64573d6000803e3d6000fd5b505050506040513d6020811015611e7a57600080fd5b505115611ed15760408051600160e51b62461bcd02815260206004820152601e60248201527f436f6d706f756e642072656465656d3a2072656465656d206661696c65640000604482015290519081900360640190fd5b60408051600160e01b6370a0823102815230600482015290516000916001600160a01b038516916370a0823191602480820192602092909190829003018186803b158015611f1e57600080fd5b505afa158015611f32573d6000803e3d6000fd5b505050506040513d6020811015611f4857600080fd5b50519050611f6d611f5f838363ffffffff61259d16565b85549063ffffffff61259d16565b9093555050505050565b60065460408051600160e11b6303795fb10281526001600160a01b03858116600483015291516000938493600160301b90910416916306f2bf62916024808301926020929190829003018186803b158015611fd157600080fd5b505afa158015611fe5573d6000803e3d6000fd5b505050506040513d6020811015611ffb57600080fd5b505160408051600160e01b63095ea7b30281526001600160a01b038084166004830152602482018790529151929350839260019261012c4201929089169163095ea7b3916044808201926020929091908290030181600087803b15801561206157600080fd5b505af1158015612075573d6000803e3d6000fd5b505050506040513d602081101561208b57600080fd5b505060408051600160e01b637237e0310281526004810188905260248101849052604481018390526001600160a01b038a81166064830152915191851691637237e031916084808201926020929091908290030181600087803b1580156120f157600080fd5b505af1158015612105573d6000803e3d6000fd5b505050506040513d602081101561211b57600080fd5b505198975050505050505050565b60065460408051600160e11b6303795fb10281526001600160a01b03858116600483015291516000938493600160301b90910416916306f2bf62916024808301926020929190829003018186803b15801561218357600080fd5b505afa158015612197573d6000803e3d6000fd5b505050506040513d60208110156121ad57600080fd5b505160408051600160e01b63ad65d76d02815260016004820181905261012c4201602483018190526001600160a01b038a8116604485015293519495508594919390929085169163ad65d76d918991606480830192602092919082900301818588803b15801561221c57600080fd5b505af1158015612230573d6000803e3d6000fd5b50505050506040513d602081101561211b57600080fd5b60065460408051600160e11b6303795fb10281526001600160a01b03868116600483015291516000938493600160301b90910416916306f2bf62916024808301926020929190829003018186803b1580156122a157600080fd5b505afa1580156122b5573d6000803e3d6000fd5b505050506040513d60208110156122cb57600080fd5b505160408051600160e01b63095ea7b30281526001600160a01b0380841660048301526024820187905291519293508392600192839261012c420192918b169163095ea7b3916044808201926020929091908290030181600087803b15801561233357600080fd5b505af1158015612347573d6000803e3d6000fd5b505050506040513d602081101561235d57600080fd5b505060408051600160e01b63f552d91b028152600481018990526024810184905260448101859052606481018390526001600160a01b038c811660848301528a811660a483015291519186169163f552d91b9160c4808201926020929091908290030181600087803b1580156123d257600080fd5b505af11580156123e6573d6000803e3d6000fd5b505050506040513d60208110156123fc57600080fd5b50519a9950505050505050505050565b6000818152600860205260409020612423826119f4565b600281018054600160a01b60ff021916600160a11b17905580546040805184815290516001600160a01b03909216917feee53a62339b3b3432b27f55ba4665e4256566e4aadf3f0f094a6bfe9e1f83639181900360200190a25050565b60008061248b612a4b565b506000838152602081815260409182902082516060810184528154815260018201549281018390526002909101546001600160a01b031692810192909252156124d057fe5b80516040918201516001600160a01b039081166000908152600160208181528583205498835282905293812081815593840155600290920180546001600160a01b031916905594931692915050565b600081815260208190526040812060028101549091906001600160a01b03166125565761254f82600101546125b2565b9050612576565b6001820154600283015461257391906001600160a01b0316612766565b90505b905550565b600080821161258957600080fd5b600082848161259457fe5b04949350505050565b6000828211156125ac57600080fd5b50900390565b600080805260016020527fa6eef7e35abe7026729641147f7915573c7e97b47efa546f5f6e3230263bcb495481906125f2906001600160a01b03166129da565b60408051600160e01b6370a08231028152306004820152905191925082916000916001600160a01b038416916370a0823191602480820192602092909190829003018186803b15801561264457600080fd5b505afa158015612658573d6000803e3d6000fd5b505050506040513d602081101561266e57600080fd5b505160408051600160e01b631249c58b02815290519192506001600160a01b03841691631249c58b918891600480830192600092919082900301818588803b1580156126b957600080fd5b505af11580156126cd573d6000803e3d6000fd5b505060408051600160e01b6370a082310281523060048201529051600094506001600160a01b03871693506370a0823192506024808301926020929190829003018186803b15801561271e57600080fd5b505afa158015612732573d6000803e3d6000fd5b505050506040513d602081101561274857600080fd5b5051905061275c818363ffffffff61259d16565b9695505050505050565b6001600160a01b038082166000818152600160209081526040808320548151600160e01b63095ea7b3028152951660048601819052602486018890529051929490938493909263095ea7b3926044808201939182900301818987803b1580156127ce57600080fd5b505af11580156127e2573d6000803e3d6000fd5b505050506040513d60208110156127f857600080fd5b505060408051600160e01b6370a0823102815230600482015290516000916001600160a01b038416916370a0823191602480820192602092909190829003018186803b15801561284757600080fd5b505afa15801561285b573d6000803e3d6000fd5b505050506040513d602081101561287157600080fd5b505160408051600160e31b63140e25ad0281526004810189905290519192506001600160a01b0384169163a0712d68916024808201926020929091908290030181600087803b1580156128c357600080fd5b505af11580156128d7573d6000803e3d6000fd5b505050506040513d60208110156128ed57600080fd5b5051156129445760408051600160e51b62461bcd02815260206004820152601560248201527f436f6d706f756e64206d696e743a206661696c65640000000000000000000000604482015290519081900360640190fd5b60408051600160e01b6370a0823102815230600482015290516000916001600160a01b038516916370a0823191602480820192602092909190829003018186803b15801561299157600080fd5b505afa1580156129a5573d6000803e3d6000fd5b505050506040513d60208110156129bb57600080fd5b505190506129cf818363ffffffff61259d16565b979650505050505050565b90565b604080516101a081018252600080825260208201819052918101829052906060820190815260200160008152602001600081526020016000815260200160008152602001600081526020016000815260200160008152602001600060ff168152602001600060ff1681525090565b6040518060600160405280600081526020016000815260200160006001600160a01b031681525090565b6040518060600160405280600081526020016000815260200160006002811115612a9b57fe5b90529056fe4665652062616c616e6365206d7573742062652067726561746572207468616e2030436f6d706f756e64206c6f616e206372656174653a206e6f2063546f6b656e206164647265737320666f756e64436f6d706f756e642072656465656d3a20616d6f756e742067726561746572207468616e2062616c616e6365a165627a7a7230582005f17d811d677008c3699a8da4dcf4bed4cb68a5597c2bd7b91f094412daf9450029",
  "source": "pragma solidity 0.5.8;\n\nimport '../../node_modules/openzeppelin-solidity/contracts/ownership/Ownable.sol';\nimport '../../node_modules/openzeppelin-solidity/contracts/math/SafeMath.sol';\nimport '../../node_modules/openzeppelin-solidity/contracts/token/ERC20/IERC20.sol';\nimport './CompoundLoanable.sol';\nimport './LimitedAcceptedCurrencies.sol';\nimport './UniswapFactoryInterface.sol';\nimport './UniswapExchangeInterface.sol';\n\ncontract CostAverageOrderBook is CompoundLoanable, LimitedAcceptedCurrencies, Ownable {\n    using SafeMath for uint256;\n\n    uint256 internal nextId;\n    uint32 public minFrequency;\n    uint8 public minBatches;\n    uint8 public maxBatches;\n\n    UniswapFactoryInterface internal factory;\n\n    /* STORAGE - FEES */\n\n    struct FeesCollected {\n        uint256 balance;\n        uint256 withdrawn;\n    }\n    mapping(address => FeesCollected) private currencyToFeesCollected;\n\n    /* STORAGE - ORDERS */\n\n    enum OrderState { Failed, InProgress, Completed, Cancelled }\n    struct OrderInfo {\n        address account;\n        address sourceCurrency;\n        address targetCurrency;\n        OrderState state;\n        uint256 amount;\n        uint256 frequency; // in seconds\n        uint256 createdTimestamp;\n        uint256 lastConversionTimestamp;\n        uint256 sourceCurrencyBalance;\n        uint256 sourceCurrencyConverted;\n        uint256 targetCurrencyConverted;\n        uint8 batches;\n        uint8 batchesExecuted;\n    }\n    mapping(uint256 => OrderInfo) public idToCostAverageOrder;\n    mapping(address => uint256[]) public accountToOrderIds;\n\n    /* EVENTS */\n\n    event NewOrder(\n        address indexed _account,\n        uint256 _orderId\n    );\n\n    event OrderConversion(\n        address indexed _account,\n        uint256 _orderId\n    );\n\n    event CancelOrder(\n        address indexed _account,\n        uint256 _orderId\n    );\n\n    event CompleteOrder(\n        address indexed _account,\n        uint256 _orderId\n    );\n\n    constructor(address _uniswapFactoryAddress) public {\n        factory = UniswapFactoryInterface(_uniswapFactoryAddress);\n        nextId = 1;\n\n        // Initial order min/max\n        maxBatches = 255;\n        minBatches = 1;\n        minFrequency = 1 hours;\n    }\n\n    // Compound needs to be able to pay back Eth loans\n    function() external payable { require(msg.data.length == 0); }\n\n    /* EXTERNAL FUNCTIONS */\n\n    function cancelOrder(uint256 _id) external {\n        OrderInfo storage order = idToCostAverageOrder[_id];\n\n        require(order.account == msg.sender);\n        require(order.sourceCurrencyBalance > 0);\n\n        uint256 refundAmount = order.sourceCurrencyBalance;\n        order.sourceCurrencyBalance = 0;\n\n        if (idToCompoundLoan[_id].balanceUnderlying > 0) {\n            // Transfer remaining loaned tokens back to owner\n            uint256 redeemAmount = compoundRedeemBalanceUnderlying(_id);\n            assert(redeemAmount == refundAmount);\n        }\n\n        if (order.sourceCurrency == address(0)) {\n            msg.sender.transfer(refundAmount);\n        }\n        else {\n            IERC20(order.sourceCurrency).transfer(order.account, refundAmount);\n        }\n\n        closeLoan(_id);\n        order.state = OrderState.Cancelled;\n\n        emit CancelOrder(order.account, _id);\n    }\n\n    function checkConversionDueAll()\n        view\n        external\n        returns (uint256[] memory)\n    {\n        uint256 totalOrderCount = getOrderCount();\n        require(totalOrderCount > 0);\n\n        uint256[] memory coversionDueMap = new uint256[](totalOrderCount);\n\n        for (uint256 i=1; i<=totalOrderCount; i++) {\n            if (checkConversionDue(i) == true) coversionDueMap[i-1] = i;\n        }\n\n        return coversionDueMap;\n    }\n\n    function createOrder(\n        uint256 _amount,\n        address _sourceCurrency,\n        address _targetCurrency,\n        uint256 _frequency,\n        uint8 _batches\n    )\n        external\n        payable\n        currencyIsAccepted(_sourceCurrency)\n        returns (uint256 id_)\n    {\n        // Enforce common min/max values\n        require(_batches <= maxBatches);\n        require(_batches >= minBatches);\n        require(_frequency >= minFrequency);\n        require(_amount >= acceptedCurrencyInfo[_sourceCurrency].minAmount);\n        require(_amount <= acceptedCurrencyInfo[_sourceCurrency].maxAmount);\n\n        require(_sourceCurrency != _targetCurrency);\n\n        // If ETH payment\n        if (_sourceCurrency == address(0)) {\n            require(_amount == msg.value);\n        }\n        // If token payment\n        else {\n            require(msg.value == 0); // Not payable\n            IERC20(\n                _sourceCurrency\n            ).transferFrom(\n                msg.sender,\n                address(this),\n                _amount\n            );\n        }\n\n        OrderInfo memory newOrder = OrderInfo({\n            account: msg.sender,\n            amount: _amount,\n            batches: _batches,\n            batchesExecuted: 0,\n            createdTimestamp: now,\n            frequency: _frequency,\n            lastConversionTimestamp: 0,\n            sourceCurrency: _sourceCurrency,\n            sourceCurrencyBalance: _amount,\n            sourceCurrencyConverted: 0,\n            state: OrderState.InProgress,\n            targetCurrency: _targetCurrency,\n            targetCurrencyConverted: 0\n        });\n        idToCostAverageOrder[nextId] = newOrder;\n        accountToOrderIds[msg.sender].push(nextId);\n\n        // Execute the first order\n        convertCurrency(nextId);\n\n        // Get updated remaining balance\n        uint256 remainingAmount = idToCostAverageOrder[nextId].sourceCurrencyBalance;\n\n        // Loan remaining source currency on Compound if possible\n        if (underlyingToCToken[_sourceCurrency] != address(0)) {\n            compoundCreateLoan(nextId, remainingAmount, _sourceCurrency);\n        }\n\n        emit NewOrder(msg.sender, nextId);\n\n        nextId++;\n        return nextId-1;\n    }\n\n    function createSourceCurrency(\n        address _currency,\n        uint256 _minAmount,\n        uint256 _maxAmount\n    )\n        external\n        onlyOwner\n    {\n        addAcceptedCurrency(_currency, _minAmount, _maxAmount);\n    }\n\n    // Execute conversions en masse\n    function executeDueConversions() external {\n        for (uint256 i=1; i<=getOrderCount(); i++) {\n            executeDueConversion(i);\n        }\n    }\n\n    function getOrderForAccountIndex(address _account, uint256 _index)\n        view\n        external\n        returns (\n            uint256 id_,\n            uint256 amount_,\n            address sourceCurrency_,\n            address targetCurrency_,\n            OrderState state_,\n            uint256 frequency_,\n            uint8 batches_,\n            uint8 batchesExecuted_,\n            uint256 lastConversionTimestamp_,\n            uint256 targetCurrencyConverted_,\n            uint256 sourceCurrencyConverted_\n            // uint256 createdTimestamp_\n        )\n    {\n        require(_index < getOrderCountForAccount(_account));\n\n        uint256 orderId = accountToOrderIds[_account][_index];\n        OrderInfo memory order = idToCostAverageOrder[orderId];\n\n        return (\n            orderId,\n            order.amount,\n            order.sourceCurrency,\n            order.targetCurrency,\n            order.state,\n            order.frequency,\n            order.batches,\n            order.batchesExecuted,\n            order.lastConversionTimestamp,\n            order.targetCurrencyConverted,\n            order.sourceCurrencyConverted\n            // order.createdTimestamp\n        );\n    }\n\n    function getOrderParamLimits()\n        view\n        external\n        returns (\n            uint32 minFrequency_,\n            uint8 minBatches_,\n            uint8 maxBatches_\n        )\n    {\n        return (minFrequency, minBatches, maxBatches);\n    }\n\n    function setMaxBatches(uint8 _maxBatches) external onlyOwner {\n        maxBatches = _maxBatches;\n    }\n\n    function setMinBatches(uint8 _minBatches) external onlyOwner {\n        minBatches = _minBatches;\n    }\n\n    function setMinFrequency(uint32 _minFrequency) external onlyOwner {\n        minFrequency = _minFrequency;\n    }\n\n    function updateSourceCurrencyCToken(address _currency, address _cToken)\n        external\n        onlyOwner\n        acceptedCurrencyExists(_currency, true)\n    {\n        underlyingToCToken[_currency] = _cToken;\n    }\n\n    function updateSourceCurrencyIsActive(address _currency, bool _isActive)\n        external\n        onlyOwner\n    {\n        updateAcceptedCurrencyIsActive(_currency, _isActive);\n    }\n\n    function updateSourceCurrencyLimits(\n        address _currency,\n        uint256 _minAmount,\n        uint256 _maxAmount\n    )\n        external\n        onlyOwner\n    {\n        updateAcceptedCurrencyLimits(_currency, _minAmount, _maxAmount);\n    }\n\n    function withdrawFees(address _currency) external onlyOwner {\n        FeesCollected storage feesCollected = currencyToFeesCollected[_currency];\n        require(\n            feesCollected.balance > 0,\n            \"Fee balance must be greater than 0\"\n        );\n\n        uint256 withdrawalAmount = feesCollected.balance;\n        feesCollected.balance = 0;\n        feesCollected.withdrawn.add(withdrawalAmount);\n\n        if (_currency == address(0)) {\n            msg.sender.transfer(withdrawalAmount);\n        }\n        else {\n            IERC20(_currency).transfer(msg.sender, withdrawalAmount);\n        }\n    }\n\n    /* PUBLIC FUNCTIONS*/\n\n    function checkConversionDue(uint256 _id) view public returns (bool) {\n        OrderInfo memory order = idToCostAverageOrder[_id];\n\n        // Check if there is a balance of source currency\n        if (order.sourceCurrencyBalance <= 0) return false;\n\n        // Check if there should be batches remaining\n        if (order.batchesExecuted >= order.batches) return false;\n\n        // Check if the first conversion has been executed\n        if (order.lastConversionTimestamp == 0) return true;\n\n        // Check if enough time has elapsed to execute the next conversion\n        uint256 timeDelta = now - order.lastConversionTimestamp;\n        if (timeDelta < order.frequency) return false;\n\n        return true;\n    }\n    // Execute converstions 1-by-1\n    function executeDueConversion(uint256 _id) public {\n        if (checkConversionDue(_id) == true) {\n            convertCurrency(_id);\n        }\n    }\n\n    function getOrderCount() view public returns (uint256) {\n        return nextId-1;\n    }\n\n    function getOrderCountForAccount(address _account)\n        view\n        public\n        returns (uint256 count_)\n    {\n        return accountToOrderIds[_account].length;\n    }\n\n    /* INTERNAL FUNCTIONS */\n\n    function valuePerBatch(uint256 _amount, uint8 _batches)\n        pure\n        internal\n        returns (uint256)\n    {\n        return _amount.div(_batches);\n    }\n\n    /* PRIVATE FUNCTIONS */\n\n    function closeLoan(uint256 _id) private {\n        if (idToCompoundLoan[_id].balanceCTokens > 0) {\n            // Delete loan and add leftover cTokens to fee\n            (uint256 cTokensRemaining, address cTokenAddress) = compoundCloseLoan(_id);\n            FeesCollected storage feesCollected = currencyToFeesCollected[cTokenAddress];\n            feesCollected.balance = feesCollected.balance.add(cTokensRemaining);\n        }\n    }\n\n    function completeOrder(uint256 _id) private {\n        OrderInfo storage order = idToCostAverageOrder[_id];\n\n        closeLoan(_id);\n        order.state = OrderState.Completed;\n\n        emit CompleteOrder(order.account, _id);\n    }\n\n    function convertCurrency(uint256 _id) private {\n        OrderInfo storage order = idToCostAverageOrder[_id];\n\n        uint256 batchValue = valuePerBatch(order.amount, order.batches);\n\n        // In case batchValue is more than balance, use the remainder\n        if (order.sourceCurrencyBalance < batchValue) {\n            batchValue = order.sourceCurrencyBalance;\n        }\n\n        // Update all values possible before performing conversion\n        order.sourceCurrencyBalance -= batchValue;\n        order.sourceCurrencyConverted += batchValue;\n        order.batchesExecuted += 1;\n        order.lastConversionTimestamp = now;\n\n        // If source currency lent on Compound, redeem amount for order\n        if (idToCompoundLoan[_id].balanceUnderlying > 0) {\n            compoundRedeemUnderlying(_id, batchValue);\n        }\n\n        uint256 amountReceived;\n        if (order.targetCurrency == address(0)) {\n            amountReceived = exchangeTokenToEth(\n                order.account,\n                order.sourceCurrency,\n                batchValue\n            );\n        }\n        else if (order.sourceCurrency == address(0)) {\n            amountReceived = exchangeEthToToken(\n                order.account,\n                order.targetCurrency,\n                batchValue\n            );\n        }\n        else {\n            amountReceived = exchangeTokenToToken(\n                order.account,\n                order.sourceCurrency,\n                order.targetCurrency,\n                batchValue\n            );\n        }\n\n        // Update total tokens converted\n        order.targetCurrencyConverted += amountReceived;\n\n        emit OrderConversion(order.account, _id);\n\n        if (order.sourceCurrencyBalance == 0) {\n            completeOrder(_id);\n        }\n    }\n\n    function exchangeEthToToken(\n        address _recipient,\n        address _targetCurrency,\n        uint256 _amountSourceCurrency\n    )\n        private\n        returns (uint256 amountReceived_)\n    {\n        // Set up the Uniswap exchange interface for the target token\n        address exchangeAddress = factory.getExchange(_targetCurrency);\n        UniswapExchangeInterface exchange = UniswapExchangeInterface(exchangeAddress);\n\n        uint256 min_tokens = 1; // TODO: implement this correctly\n        uint256 deadline = now + 300; // this is the value in the docs\n        amountReceived_ = exchange.ethToTokenTransferInput.value(\n            _amountSourceCurrency\n        )\n        (\n            min_tokens,\n            deadline,\n            _recipient\n        );\n    }\n\n    function exchangeTokenToEth(\n        address _recipient,\n        address _sourceCurrency,\n        uint256 _amountSourceCurrency\n    )\n        private\n        returns (uint256 amountReceived_)\n    {\n        // Set up the Uniswap exchange interface for the target token\n        address exchangeAddress = factory.getExchange(_sourceCurrency);\n        UniswapExchangeInterface exchange = UniswapExchangeInterface(exchangeAddress);\n\n        uint256 min_eth = 1; // TODO: implement this correctly\n        uint256 deadline = now + 300; // this is the value in the docs\n\n        // Approve token transfer and execute swap\n        IERC20(_sourceCurrency).approve(exchangeAddress, _amountSourceCurrency);\n        amountReceived_ = exchange.tokenToEthTransferInput(\n            _amountSourceCurrency,\n            min_eth,\n            deadline,\n            _recipient\n        );\n    }\n\n    function exchangeTokenToToken(\n        address _recipient,\n        address _sourceCurrency,\n        address _targetCurrency,\n        uint256 _amountSourceCurrency\n    )\n        private\n        returns (uint256 amountReceived_)\n    {\n        // Set up the Uniswap exchange interface for the target token\n        address exchangeAddress = factory.getExchange(_sourceCurrency);\n        UniswapExchangeInterface exchange = UniswapExchangeInterface(exchangeAddress);\n\n        uint256 min_eth_intermediary = 1; // TODO: implement this correctly\n        uint256 min_tokens_bought = 1; // TODO: implement this correctly\n        uint256 deadline = now + 300; // this is the value in the docs\n\n        // Approve token transfer and execute swap\n        IERC20(_sourceCurrency).approve(exchangeAddress, _amountSourceCurrency);\n        amountReceived_ = exchange.tokenToTokenTransferInput(\n            _amountSourceCurrency,\n            min_tokens_bought,\n            min_eth_intermediary,\n            deadline,\n            _recipient,\n            _targetCurrency\n        );\n    }\n}\n",
  "sourcePath": "/Users/seancasey/Sites/vulcanswap/contracts/deploy/CostAverageOrderBook.sol",
  "compiler": {
    "name": "solc",
    "version": "0.5.8+commit.23d335f2.Emscripten.clang"
  },
  "schemaVersion": "3.0.16",
  "updatedAt": "2019-10-03T13:57:17.331Z",
  "devdoc": {
    "methods": {
      "isOwner()": {
        "return": "true if `msg.sender` is the owner of the contract."
      },
      "owner()": {
        "return": "the address of the owner."
      },
      "renounceOwnership()": {
        "details": "Allows the current owner to relinquish control of the contract. It will not be possible to call the functions with the `onlyOwner` modifier anymore."
      },
      "transferOwnership(address)": {
        "details": "Allows the current owner to transfer control of the contract to a newOwner.",
        "params": {
          "newOwner": "The address to transfer ownership to."
        }
      }
    }
  },
  "userdoc": {
    "methods": {
      "renounceOwnership()": {
        "notice": "Renouncing ownership will leave the contract without an owner, thereby removing any functionality that is only available to the owner."
      }
    }
  }
}