{
  "contractName": "CostAverageOrderBook",
  "abi": [
    {
      "constant": true,
      "inputs": [],
      "name": "minBatches",
      "outputs": [
        {
          "name": "",
          "type": "uint8"
        }
      ],
      "payable": false,
      "stateMutability": "view",
      "type": "function"
    },
    {
      "constant": true,
      "inputs": [
        {
          "name": "",
          "type": "uint256"
        }
      ],
      "name": "idToCostAverageOrder",
      "outputs": [
        {
          "name": "account",
          "type": "address"
        },
        {
          "name": "sourceCurrency",
          "type": "address"
        },
        {
          "name": "targetCurrency",
          "type": "address"
        },
        {
          "name": "amount",
          "type": "uint256"
        },
        {
          "name": "frequency",
          "type": "uint256"
        },
        {
          "name": "lastConversionTimestamp",
          "type": "uint256"
        },
        {
          "name": "sourceCurrencyBalance",
          "type": "uint256"
        },
        {
          "name": "targetCurrencyConverted",
          "type": "uint256"
        },
        {
          "name": "batches",
          "type": "uint8"
        },
        {
          "name": "batchesExecuted",
          "type": "uint8"
        }
      ],
      "payable": false,
      "stateMutability": "view",
      "type": "function"
    },
    {
      "constant": true,
      "inputs": [],
      "name": "nextId",
      "outputs": [
        {
          "name": "",
          "type": "uint256"
        }
      ],
      "payable": false,
      "stateMutability": "view",
      "type": "function"
    },
    {
      "constant": false,
      "inputs": [],
      "name": "renounceOwnership",
      "outputs": [],
      "payable": false,
      "stateMutability": "nonpayable",
      "type": "function"
    },
    {
      "constant": true,
      "inputs": [],
      "name": "owner",
      "outputs": [
        {
          "name": "",
          "type": "address"
        }
      ],
      "payable": false,
      "stateMutability": "view",
      "type": "function"
    },
    {
      "constant": true,
      "inputs": [],
      "name": "isOwner",
      "outputs": [
        {
          "name": "",
          "type": "bool"
        }
      ],
      "payable": false,
      "stateMutability": "view",
      "type": "function"
    },
    {
      "constant": true,
      "inputs": [
        {
          "name": "",
          "type": "address"
        },
        {
          "name": "",
          "type": "uint256"
        }
      ],
      "name": "accountToOrderIds",
      "outputs": [
        {
          "name": "",
          "type": "uint256"
        }
      ],
      "payable": false,
      "stateMutability": "view",
      "type": "function"
    },
    {
      "constant": true,
      "inputs": [],
      "name": "maxBatches",
      "outputs": [
        {
          "name": "",
          "type": "uint8"
        }
      ],
      "payable": false,
      "stateMutability": "view",
      "type": "function"
    },
    {
      "constant": true,
      "inputs": [
        {
          "name": "",
          "type": "address"
        }
      ],
      "name": "sourceCurrencyToMaxAmount",
      "outputs": [
        {
          "name": "",
          "type": "uint256"
        }
      ],
      "payable": false,
      "stateMutability": "view",
      "type": "function"
    },
    {
      "constant": true,
      "inputs": [],
      "name": "minFrequency",
      "outputs": [
        {
          "name": "",
          "type": "uint32"
        }
      ],
      "payable": false,
      "stateMutability": "view",
      "type": "function"
    },
    {
      "constant": true,
      "inputs": [
        {
          "name": "",
          "type": "address"
        }
      ],
      "name": "sourceCurrencyToMinAmount",
      "outputs": [
        {
          "name": "",
          "type": "uint256"
        }
      ],
      "payable": false,
      "stateMutability": "view",
      "type": "function"
    },
    {
      "constant": false,
      "inputs": [
        {
          "name": "newOwner",
          "type": "address"
        }
      ],
      "name": "transferOwnership",
      "outputs": [],
      "payable": false,
      "stateMutability": "nonpayable",
      "type": "function"
    },
    {
      "inputs": [
        {
          "name": "_uniswapFactoryAddress",
          "type": "address"
        }
      ],
      "payable": false,
      "stateMutability": "nonpayable",
      "type": "constructor"
    },
    {
      "anonymous": false,
      "inputs": [
        {
          "indexed": true,
          "name": "_account",
          "type": "address"
        },
        {
          "indexed": false,
          "name": "_orderId",
          "type": "uint256"
        }
      ],
      "name": "NewOrder",
      "type": "event"
    },
    {
      "anonymous": false,
      "inputs": [
        {
          "indexed": true,
          "name": "_account",
          "type": "address"
        },
        {
          "indexed": false,
          "name": "_orderId",
          "type": "uint256"
        }
      ],
      "name": "OrderConversion",
      "type": "event"
    },
    {
      "anonymous": false,
      "inputs": [
        {
          "indexed": true,
          "name": "_account",
          "type": "address"
        },
        {
          "indexed": false,
          "name": "_orderId",
          "type": "uint256"
        }
      ],
      "name": "CancelOrder",
      "type": "event"
    },
    {
      "anonymous": false,
      "inputs": [
        {
          "indexed": true,
          "name": "previousOwner",
          "type": "address"
        },
        {
          "indexed": true,
          "name": "newOwner",
          "type": "address"
        }
      ],
      "name": "OwnershipTransferred",
      "type": "event"
    },
    {
      "constant": false,
      "inputs": [
        {
          "name": "_sourceCurrency",
          "type": "address"
        },
        {
          "name": "_minAmount",
          "type": "uint256"
        },
        {
          "name": "_maxAmount",
          "type": "uint256"
        }
      ],
      "name": "updateSourceCurrency",
      "outputs": [],
      "payable": false,
      "stateMutability": "nonpayable",
      "type": "function"
    },
    {
      "constant": true,
      "inputs": [
        {
          "name": "_sourceCurrency",
          "type": "address"
        }
      ],
      "name": "getSourceCurrencyLimits",
      "outputs": [
        {
          "name": "minAmount_",
          "type": "uint256"
        },
        {
          "name": "maxAmount_",
          "type": "uint256"
        }
      ],
      "payable": false,
      "stateMutability": "view",
      "type": "function"
    },
    {
      "constant": false,
      "inputs": [
        {
          "name": "_id",
          "type": "uint256"
        }
      ],
      "name": "cancelOrder",
      "outputs": [],
      "payable": false,
      "stateMutability": "nonpayable",
      "type": "function"
    },
    {
      "constant": false,
      "inputs": [
        {
          "name": "_amount",
          "type": "uint256"
        },
        {
          "name": "_sourceCurrency",
          "type": "address"
        },
        {
          "name": "_targetCurrency",
          "type": "address"
        },
        {
          "name": "_frequency",
          "type": "uint256"
        },
        {
          "name": "_batches",
          "type": "uint8"
        }
      ],
      "name": "createOrder",
      "outputs": [
        {
          "name": "id_",
          "type": "uint256"
        }
      ],
      "payable": true,
      "stateMutability": "payable",
      "type": "function"
    },
    {
      "constant": true,
      "inputs": [],
      "name": "getFeeBalance",
      "outputs": [
        {
          "name": "feeBalance_",
          "type": "uint256"
        }
      ],
      "payable": false,
      "stateMutability": "view",
      "type": "function"
    },
    {
      "constant": true,
      "inputs": [
        {
          "name": "_id",
          "type": "uint256"
        }
      ],
      "name": "getOrder",
      "outputs": [
        {
          "name": "id_",
          "type": "uint256"
        },
        {
          "name": "amount_",
          "type": "uint256"
        },
        {
          "name": "sourceCurrency_",
          "type": "address"
        },
        {
          "name": "targetCurrency_",
          "type": "address"
        },
        {
          "name": "frequency_",
          "type": "uint256"
        },
        {
          "name": "batches_",
          "type": "uint8"
        },
        {
          "name": "batchesExecuted_",
          "type": "uint8"
        },
        {
          "name": "lastConversionTimestamp_",
          "type": "uint256"
        },
        {
          "name": "targetCurrencyConverted_",
          "type": "uint256"
        },
        {
          "name": "sourceCurrencyBalance_",
          "type": "uint256"
        }
      ],
      "payable": false,
      "stateMutability": "view",
      "type": "function"
    },
    {
      "constant": true,
      "inputs": [],
      "name": "getOrderCount",
      "outputs": [
        {
          "name": "",
          "type": "uint256"
        }
      ],
      "payable": false,
      "stateMutability": "view",
      "type": "function"
    },
    {
      "constant": true,
      "inputs": [
        {
          "name": "_account",
          "type": "address"
        }
      ],
      "name": "getOrderCountForAccount",
      "outputs": [
        {
          "name": "count_",
          "type": "uint256"
        }
      ],
      "payable": false,
      "stateMutability": "view",
      "type": "function"
    },
    {
      "constant": true,
      "inputs": [
        {
          "name": "_account",
          "type": "address"
        },
        {
          "name": "_index",
          "type": "uint256"
        }
      ],
      "name": "getOrderForAccountIndex",
      "outputs": [
        {
          "name": "id_",
          "type": "uint256"
        },
        {
          "name": "amount_",
          "type": "uint256"
        },
        {
          "name": "sourceCurrency_",
          "type": "address"
        },
        {
          "name": "targetCurrency_",
          "type": "address"
        },
        {
          "name": "frequency_",
          "type": "uint256"
        },
        {
          "name": "batches_",
          "type": "uint8"
        },
        {
          "name": "batchesExecuted_",
          "type": "uint8"
        },
        {
          "name": "lastConversionTimestamp_",
          "type": "uint256"
        },
        {
          "name": "targetCurrencyConverted_",
          "type": "uint256"
        },
        {
          "name": "sourceCurrencyBalance_",
          "type": "uint256"
        }
      ],
      "payable": false,
      "stateMutability": "view",
      "type": "function"
    },
    {
      "constant": true,
      "inputs": [],
      "name": "getOrderParamLimits",
      "outputs": [
        {
          "name": "minFrequency_",
          "type": "uint32"
        },
        {
          "name": "minBatches_",
          "type": "uint8"
        },
        {
          "name": "maxBatches_",
          "type": "uint8"
        }
      ],
      "payable": false,
      "stateMutability": "view",
      "type": "function"
    },
    {
      "constant": true,
      "inputs": [],
      "name": "getStatTotals",
      "outputs": [
        {
          "name": "orders_",
          "type": "uint256"
        },
        {
          "name": "conversions_",
          "type": "uint256"
        },
        {
          "name": "managedEth_",
          "type": "uint256"
        },
        {
          "name": "fees_",
          "type": "uint256"
        }
      ],
      "payable": false,
      "stateMutability": "view",
      "type": "function"
    },
    {
      "constant": true,
      "inputs": [],
      "name": "getTotalFeesCollected",
      "outputs": [
        {
          "name": "",
          "type": "uint256"
        }
      ],
      "payable": false,
      "stateMutability": "view",
      "type": "function"
    },
    {
      "constant": false,
      "inputs": [
        {
          "name": "_maxBatches",
          "type": "uint8"
        }
      ],
      "name": "setMaxBatches",
      "outputs": [],
      "payable": false,
      "stateMutability": "nonpayable",
      "type": "function"
    },
    {
      "constant": false,
      "inputs": [
        {
          "name": "_minBatches",
          "type": "uint8"
        }
      ],
      "name": "setMinBatches",
      "outputs": [],
      "payable": false,
      "stateMutability": "nonpayable",
      "type": "function"
    },
    {
      "constant": false,
      "inputs": [
        {
          "name": "_minFrequency",
          "type": "uint32"
        }
      ],
      "name": "setMinFrequency",
      "outputs": [],
      "payable": false,
      "stateMutability": "nonpayable",
      "type": "function"
    },
    {
      "constant": false,
      "inputs": [],
      "name": "withdrawFees",
      "outputs": [],
      "payable": false,
      "stateMutability": "nonpayable",
      "type": "function"
    },
    {
      "constant": true,
      "inputs": [
        {
          "name": "_id",
          "type": "uint256"
        }
      ],
      "name": "checkConversionDue",
      "outputs": [
        {
          "name": "",
          "type": "bool"
        }
      ],
      "payable": false,
      "stateMutability": "view",
      "type": "function"
    },
    {
      "constant": true,
      "inputs": [],
      "name": "checkConversionDueAll",
      "outputs": [
        {
          "name": "",
          "type": "uint256[]"
        }
      ],
      "payable": false,
      "stateMutability": "view",
      "type": "function"
    },
    {
      "constant": true,
      "inputs": [
        {
          "name": "_idStart",
          "type": "uint256"
        },
        {
          "name": "_count",
          "type": "uint16"
        }
      ],
      "name": "checkConversionDueBatch",
      "outputs": [
        {
          "name": "",
          "type": "uint256[]"
        }
      ],
      "payable": false,
      "stateMutability": "view",
      "type": "function"
    },
    {
      "constant": false,
      "inputs": [
        {
          "name": "_id",
          "type": "uint256"
        }
      ],
      "name": "executeDueConversion",
      "outputs": [],
      "payable": false,
      "stateMutability": "nonpayable",
      "type": "function"
    },
    {
      "constant": false,
      "inputs": [],
      "name": "executeDueConversions",
      "outputs": [],
      "payable": false,
      "stateMutability": "nonpayable",
      "type": "function"
    }
  ],
  "bytecode": "0x608060405234801561001057600080fd5b5060405160208061334a8339810180604052602081101561003057600080fd5b8101908080519060200190929190505050336000806101000a81548173ffffffffffffffffffffffffffffffffffffffff021916908373ffffffffffffffffffffffffffffffffffffffff1602179055506000809054906101000a900473ffffffffffffffffffffffffffffffffffffffff1673ffffffffffffffffffffffffffffffffffffffff16600073ffffffffffffffffffffffffffffffffffffffff167f8be0079c531659141344cd1fd0a4f28419497f9722a3daafe3b4186f6b6457e060405160405180910390a380600460066101000a81548173ffffffffffffffffffffffffffffffffffffffff021916908373ffffffffffffffffffffffffffffffffffffffff1602179055506001808190555060ff600460056101000a81548160ff021916908360ff16021790555060016004806101000a81548160ff021916908360ff160217905550610e10600460006101000a81548163ffffffff021916908363ffffffff16021790555067016345785d8a0000600760008073ffffffffffffffffffffffffffffffffffffffff1673ffffffffffffffffffffffffffffffffffffffff1681526020019081526020016000208190555068056bc75e2d63100000600860008073ffffffffffffffffffffffffffffffffffffffff1673ffffffffffffffffffffffffffffffffffffffff1681526020019081526020016000208190555050613102806102486000396000f3fe60806040526004361061020b576000357c010000000000000000000000000000000000000000000000000000000090048063715018a61161012a578063c86377dc116100bd578063d09ef2411161008c578063d09ef24114610bab578063d4c30ceb14610c9d578063e24f74a814610cc8578063efa28b0314610d2d578063f2fde38b14610d6b5761020b565b8063c86377dc14610a45578063cbb2281314610a76578063ce0b0f0e14610adb578063ce8d030714610b745761020b565b80638da5cb5b116100f95780638da5cb5b146108eb5780638f32d59b1461094257806391fe20fe14610971578063bde84aeb146109d65761020b565b8063715018a614610805578063838bac1e1461081c5780638d0a5fbb1461086f5780638d59ca4a1461089a5761020b565b806346876508116101a257806361b8ce8c1161017157806361b8ce8c146106475780636c81e659146106725780636d94fd0f146106b35780636fc66b99146107c55761020b565b806346876508146104ac578063476343ee146104d7578063514fcac7146104ee5780635c70e154146105295761020b565b80633164c16d116101de5780633164c16d1461030c57806342d0e57c146103715780634431189c146103a2578063454f90a2146104405761020b565b80631390dc54146102105780631b6671fd1461024b57806320580f42146102895780632e84767e146102f5575b600080fd5b34801561021c57600080fd5b506102496004803603602081101561023357600080fd5b8101908080359060200190929190505050610dbc565b005b34801561025757600080fd5b506102876004803603602081101561026e57600080fd5b81019080803560ff169060200190929190505050610dde565b005b34801561029557600080fd5b5061029e610e0f565b6040518080602001828103825283818151815260200191508051906020019060200280838360005b838110156102e15780820151818401526020810190506102c6565b505050509050019250505060405180910390f35b34801561030157600080fd5b5061030a610ebc565b005b34801561031857600080fd5b5061036f6004803603606081101561032f57600080fd5b81019080803573ffffffffffffffffffffffffffffffffffffffff1690602001909291908035906020019092919080359060200190929190505050610eec565b005b34801561037d57600080fd5b50610386610f8c565b604051808260ff1660ff16815260200191505060405180910390f35b3480156103ae57600080fd5b506103e9600480360360408110156103c557600080fd5b8101908080359060200190929190803561ffff169060200190929190505050610f9e565b6040518080602001828103825283818151815260200191508051906020019060200280838360005b8381101561042c578082015181840152602081019050610411565b505050509050019250505060405180910390f35b34801561044c57600080fd5b5061048f6004803603602081101561046357600080fd5b81019080803573ffffffffffffffffffffffffffffffffffffffff1690602001909291905050506110a2565b604051808381526020018281526020019250505060405180910390f35b3480156104b857600080fd5b506104c161112e565b6040518082815260200191505060405180910390f35b3480156104e357600080fd5b506104ec61114c565b005b3480156104fa57600080fd5b506105276004803603602081101561051157600080fd5b81019080803590602001909291905050506111df565b005b34801561053557600080fd5b506105626004803603602081101561054c57600080fd5b81019080803590602001909291905050506114be565b604051808b73ffffffffffffffffffffffffffffffffffffffff1673ffffffffffffffffffffffffffffffffffffffff1681526020018a73ffffffffffffffffffffffffffffffffffffffff1673ffffffffffffffffffffffffffffffffffffffff1681526020018973ffffffffffffffffffffffffffffffffffffffff1673ffffffffffffffffffffffffffffffffffffffff1681526020018881526020018781526020018681526020018581526020018481526020018360ff1660ff1681526020018260ff1660ff1681526020019a505050505050505050505060405180910390f35b34801561065357600080fd5b5061065c61158c565b6040518082815260200191505060405180910390f35b34801561067e57600080fd5b506106b16004803603602081101561069557600080fd5b81019080803563ffffffff169060200190929190505050611592565b005b3480156106bf57600080fd5b5061070c600480360360408110156106d657600080fd5b81019080803573ffffffffffffffffffffffffffffffffffffffff169060200190929190803590602001909291905050506115c9565b604051808b81526020018a81526020018973ffffffffffffffffffffffffffffffffffffffff1673ffffffffffffffffffffffffffffffffffffffff1681526020018873ffffffffffffffffffffffffffffffffffffffff1673ffffffffffffffffffffffffffffffffffffffff1681526020018781526020018660ff1660ff1681526020018560ff1660ff1681526020018481526020018381526020018281526020019a505050505050505050505060405180910390f35b3480156107d157600080fd5b506107da611670565b6040518085815260200184815260200183815260200182815260200194505050505060405180910390f35b34801561081157600080fd5b5061081a61188d565b005b34801561082857600080fd5b506108556004803603602081101561083f57600080fd5b810190808035906020019092919050505061195f565b604051808215151515815260200191505060405180910390f35b34801561087b57600080fd5b50610884611b79565b6040518082815260200191505060405180910390f35b3480156108a657600080fd5b506108af611b85565b604051808463ffffffff1663ffffffff1681526020018360ff1660ff1681526020018260ff1660ff168152602001935050505060405180910390f35b3480156108f757600080fd5b50610900611bc7565b604051808273ffffffffffffffffffffffffffffffffffffffff1673ffffffffffffffffffffffffffffffffffffffff16815260200191505060405180910390f35b34801561094e57600080fd5b50610957611bf0565b604051808215151515815260200191505060405180910390f35b34801561097d57600080fd5b506109c06004803603602081101561099457600080fd5b81019080803573ffffffffffffffffffffffffffffffffffffffff169060200190929190505050611c47565b6040518082815260200191505060405180910390f35b3480156109e257600080fd5b50610a2f600480360360408110156109f957600080fd5b81019080803573ffffffffffffffffffffffffffffffffffffffff16906020019092919080359060200190929190505050611c93565b6040518082815260200191505060405180910390f35b348015610a5157600080fd5b50610a5a611cc3565b604051808260ff1660ff16815260200191505060405180910390f35b348015610a8257600080fd5b50610ac560048036036020811015610a9957600080fd5b81019080803573ffffffffffffffffffffffffffffffffffffffff169060200190929190505050611cd6565b6040518082815260200191505060405180910390f35b610b5e600480360360a0811015610af157600080fd5b8101908080359060200190929190803573ffffffffffffffffffffffffffffffffffffffff169060200190929190803573ffffffffffffffffffffffffffffffffffffffff16906020019092919080359060200190929190803560ff169060200190929190505050611cee565b6040518082815260200191505060405180910390f35b348015610b8057600080fd5b50610b89611e7b565b604051808263ffffffff1663ffffffff16815260200191505060405180910390f35b348015610bb757600080fd5b50610be460048036036020811015610bce57600080fd5b8101908080359060200190929190505050611e91565b604051808b81526020018a81526020018973ffffffffffffffffffffffffffffffffffffffff1673ffffffffffffffffffffffffffffffffffffffff1681526020018873ffffffffffffffffffffffffffffffffffffffff1673ffffffffffffffffffffffffffffffffffffffff1681526020018781526020018660ff1660ff1681526020018560ff1660ff1681526020018481526020018381526020018281526020019a505050505050505050505060405180910390f35b348015610ca957600080fd5b50610cb261208a565b6040518082815260200191505060405180910390f35b348015610cd457600080fd5b50610d1760048036036020811015610ceb57600080fd5b81019080803573ffffffffffffffffffffffffffffffffffffffff1690602001909291905050506120a7565b6040518082815260200191505060405180910390f35b348015610d3957600080fd5b50610d6960048036036020811015610d5057600080fd5b81019080803560ff1690602001909291905050506120bf565b005b348015610d7757600080fd5b50610dba60048036036020811015610d8e57600080fd5b81019080803573ffffffffffffffffffffffffffffffffffffffff1690602001909291905050506120ef565b005b60011515610dc98261195f565b15151415610ddb57610dda8161210e565b5b50565b610de6611bf0565b1515610df157600080fd5b80600460056101000a81548160ff021916908360ff16021790555050565b60606000610e1b611b79565b9050600081111515610e2c57600080fd5b606081604051908082528060200260200182016040528015610e5d5781602001602082028038833980820191505090505b5090506000600190505b8281111515610eb35760011515610e7d8261195f565b15151415610ea657808260018303815181101515610e9757fe5b90602001906020020181815250505b8080600101915050610e67565b50809250505090565b6000600190505b610ecb611b79565b81111515610ee957610edc81610dbc565b8080600101915050610ec3565b50565b610ef4611bf0565b1515610eff57600080fd5b81600760008573ffffffffffffffffffffffffffffffffffffffff1673ffffffffffffffffffffffffffffffffffffffff1681526020019081526020016000208190555080600860008573ffffffffffffffffffffffffffffffffffffffff1673ffffffffffffffffffffffffffffffffffffffff16815260200190815260200160002081905550505050565b6004809054906101000a900460ff1681565b60606000610faa611b79565b9050600084111515610fbb57600080fd5b808411151515610fca57600080fd5b60608361ffff16604051908082528060200260200182016040528015610fff5781602001602082028038833980820191505090505b50905060008090505b8461ffff168110801561102d57508261102a828861233b90919063ffffffff16565b11155b15611096576001151561105161104c838961233b90919063ffffffff16565b61195f565b151514156110895761106c818761233b90919063ffffffff16565b828281518110151561107a57fe5b90602001906020020181815250505b8080600101915050611008565b50809250505092915050565b600080600760008473ffffffffffffffffffffffffffffffffffffffff1673ffffffffffffffffffffffffffffffffffffffff168152602001908152602001600020549150600860008473ffffffffffffffffffffffffffffffffffffffff1673ffffffffffffffffffffffffffffffffffffffff168152602001908152602001600020549050915091565b600061114760035460025461233b90919063ffffffff16565b905090565b611154611bf0565b151561115f57600080fd5b600060025411151561117057600080fd5b6000600254905060006002819055506111948160035461233b90919063ffffffff16565b503373ffffffffffffffffffffffffffffffffffffffff166108fc829081150290604051600060405180830381858888f193505050501580156111db573d6000803e3d6000fd5b5050565b60006005600083815260200190815260200160002090503373ffffffffffffffffffffffffffffffffffffffff168160000160009054906101000a900473ffffffffffffffffffffffffffffffffffffffff1673ffffffffffffffffffffffffffffffffffffffff1614151561125457600080fd5b6000816006015411151561126757600080fd5b60008160060154905060008260060181905550600073ffffffffffffffffffffffffffffffffffffffff168260010160009054906101000a900473ffffffffffffffffffffffffffffffffffffffff1673ffffffffffffffffffffffffffffffffffffffff16141561131f573373ffffffffffffffffffffffffffffffffffffffff166108fc829081150290604051600060405180830381858888f19350505050158015611319573d6000803e3d6000fd5b50611447565b8160010160009054906101000a900473ffffffffffffffffffffffffffffffffffffffff1673ffffffffffffffffffffffffffffffffffffffff1663a9059cbb8360000160009054906101000a900473ffffffffffffffffffffffffffffffffffffffff16836040518363ffffffff167c0100000000000000000000000000000000000000000000000000000000028152600401808373ffffffffffffffffffffffffffffffffffffffff1673ffffffffffffffffffffffffffffffffffffffff16815260200182815260200192505050602060405180830381600087803b15801561140a57600080fd5b505af115801561141e573d6000803e3d6000fd5b505050506040513d602081101561143457600080fd5b8101908080519060200190929190505050505b8160000160009054906101000a900473ffffffffffffffffffffffffffffffffffffffff1673ffffffffffffffffffffffffffffffffffffffff167fc0e68d6b69f741c21e955cad2ae4d505b6f6735c7e7b278251b3f6283a5f07eb846040518082815260200191505060405180910390a2505050565b60056020528060005260406000206000915090508060000160009054906101000a900473ffffffffffffffffffffffffffffffffffffffff16908060010160009054906101000a900473ffffffffffffffffffffffffffffffffffffffff16908060020160009054906101000a900473ffffffffffffffffffffffffffffffffffffffff16908060030154908060040154908060050154908060060154908060070154908060080160009054906101000a900460ff16908060080160019054906101000a900460ff1690508a565b60015481565b61159a611bf0565b15156115a557600080fd5b80600460006101000a81548163ffffffff021916908363ffffffff16021790555050565b6000806000806000806000806000806115e18c611c47565b8b1015156115ee57600080fd5b61164d600660008e73ffffffffffffffffffffffffffffffffffffffff1673ffffffffffffffffffffffffffffffffffffffff1681526020019081526020016000208c81548110151561163d57fe5b9060005260206000200154611e91565b99509950995099509950995099509950995099509295989b9194979a5092959850565b60008060008061167e611b79565b9350600092506000600190505b611693611b79565b8111151561184e576116a361303a565b6005600083815260200190815260200160002061014060405190810160405290816000820160009054906101000a900473ffffffffffffffffffffffffffffffffffffffff1673ffffffffffffffffffffffffffffffffffffffff1673ffffffffffffffffffffffffffffffffffffffff1681526020016001820160009054906101000a900473ffffffffffffffffffffffffffffffffffffffff1673ffffffffffffffffffffffffffffffffffffffff1673ffffffffffffffffffffffffffffffffffffffff1681526020016002820160009054906101000a900473ffffffffffffffffffffffffffffffffffffffff1673ffffffffffffffffffffffffffffffffffffffff1673ffffffffffffffffffffffffffffffffffffffff16815260200160038201548152602001600482015481526020016005820154815260200160068201548152602001600782015481526020016008820160009054906101000a900460ff1660ff1660ff1681526020016008820160019054906101000a900460ff1660ff1660ff1681525050905080610120015160ff168501945050808060010191505061168b565b5061187b6002543073ffffffffffffffffffffffffffffffffffffffff163161235c90919063ffffffff16565b915061188561112e565b905090919293565b611895611bf0565b15156118a057600080fd5b600073ffffffffffffffffffffffffffffffffffffffff166000809054906101000a900473ffffffffffffffffffffffffffffffffffffffff1673ffffffffffffffffffffffffffffffffffffffff167f8be0079c531659141344cd1fd0a4f28419497f9722a3daafe3b4186f6b6457e060405160405180910390a360008060006101000a81548173ffffffffffffffffffffffffffffffffffffffff021916908373ffffffffffffffffffffffffffffffffffffffff160217905550565b600061196961303a565b6005600084815260200190815260200160002061014060405190810160405290816000820160009054906101000a900473ffffffffffffffffffffffffffffffffffffffff1673ffffffffffffffffffffffffffffffffffffffff1673ffffffffffffffffffffffffffffffffffffffff1681526020016001820160009054906101000a900473ffffffffffffffffffffffffffffffffffffffff1673ffffffffffffffffffffffffffffffffffffffff1673ffffffffffffffffffffffffffffffffffffffff1681526020016002820160009054906101000a900473ffffffffffffffffffffffffffffffffffffffff1673ffffffffffffffffffffffffffffffffffffffff1673ffffffffffffffffffffffffffffffffffffffff16815260200160038201548152602001600482015481526020016005820154815260200160068201548152602001600782015481526020016008820160009054906101000a900460ff1660ff1660ff1681526020016008820160019054906101000a900460ff1660ff1660ff1681525050905060008160c00151111515611b11576000915050611b74565b80610100015160ff1681610120015160ff16101515611b34576000915050611b74565b60008160a001511415611b4b576001915050611b74565b60008160a00151420390508160800151811015611b6d57600092505050611b74565b6001925050505b919050565b60006001805403905090565b6000806000600460009054906101000a900463ffffffff166004809054906101000a900460ff16600460059054906101000a900460ff16925092509250909192565b60008060009054906101000a900473ffffffffffffffffffffffffffffffffffffffff16905090565b60008060009054906101000a900473ffffffffffffffffffffffffffffffffffffffff1673ffffffffffffffffffffffffffffffffffffffff163373ffffffffffffffffffffffffffffffffffffffff1614905090565b6000600660008373ffffffffffffffffffffffffffffffffffffffff1673ffffffffffffffffffffffffffffffffffffffff168152602001908152602001600020805490509050919050565b600660205281600052604060002081815481101515611cae57fe5b90600052602060002001600091509150505481565b600460059054906101000a900460ff1681565b60086020528060005260406000206000915090505481565b6000600460059054906101000a900460ff1660ff168260ff1611151515611d1457600080fd5b6004809054906101000a900460ff1660ff168260ff1610151515611d3757600080fd5b600460009054906101000a900463ffffffff1663ffffffff168310151515611d5e57600080fd5b60008073ffffffffffffffffffffffffffffffffffffffff168673ffffffffffffffffffffffffffffffffffffffff161415611da757611da08786868661237e565b9050611db7565b611db4878787878761263b565b90505b600660003373ffffffffffffffffffffffffffffffffffffffff1673ffffffffffffffffffffffffffffffffffffffff1681526020019081526020016000208190806001815401808255809150509060018203906000526020600020016000909192909190915055503373ffffffffffffffffffffffffffffffffffffffff167fef737f0fa1786a14bb1cc1ab889557c33fcea01691acf7e7e03e850aeff60d27826040518082815260200191505060405180910390a28091505095945050505050565b600460009054906101000a900463ffffffff1681565b600080600080600080600080600080611ea861303a565b600560008d815260200190815260200160002061014060405190810160405290816000820160009054906101000a900473ffffffffffffffffffffffffffffffffffffffff1673ffffffffffffffffffffffffffffffffffffffff1673ffffffffffffffffffffffffffffffffffffffff1681526020016001820160009054906101000a900473ffffffffffffffffffffffffffffffffffffffff1673ffffffffffffffffffffffffffffffffffffffff1673ffffffffffffffffffffffffffffffffffffffff1681526020016002820160009054906101000a900473ffffffffffffffffffffffffffffffffffffffff1673ffffffffffffffffffffffffffffffffffffffff1673ffffffffffffffffffffffffffffffffffffffff16815260200160038201548152602001600482015481526020016005820154815260200160068201548152602001600782015481526020016008820160009054906101000a900460ff1660ff1660ff1681526020016008820160019054906101000a900460ff1660ff1660ff168152505090508b81606001518260200151836040015184608001518561010001518661012001518760a001518860e001518960c001519a509a509a509a509a509a509a509a509a509a50509193959799509193959799565b6000612094611bf0565b151561209f57600080fd5b600254905090565b60076020528060005260406000206000915090505481565b6120c7611bf0565b15156120d257600080fd5b806004806101000a81548160ff021916908360ff16021790555050565b6120f7611bf0565b151561210257600080fd5b61210b81612a0a565b50565b6000600560008381526020019081526020016000209050600061214682600301548360080160009054906101000a900460ff16612b04565b9050808260060154101561215c57816006015490505b80826006016000828254039250508190555060018260080160018282829054906101000a900460ff160192506101000a81548160ff021916908360ff16021790555042826005018190555060008073ffffffffffffffffffffffffffffffffffffffff168360020160009054906101000a900473ffffffffffffffffffffffffffffffffffffffff1673ffffffffffffffffffffffffffffffffffffffff16141561225b576122548360000160009054906101000a900473ffffffffffffffffffffffffffffffffffffffff168460010160009054906101000a900473ffffffffffffffffffffffffffffffffffffffff1684612b24565b90506122b1565b6122ae8360000160009054906101000a900473ffffffffffffffffffffffffffffffffffffffff168460020160009054906101000a900473ffffffffffffffffffffffffffffffffffffffff1684612e0d565b90505b8083600701600082825401925050819055508260000160009054906101000a900473ffffffffffffffffffffffffffffffffffffffff1673ffffffffffffffffffffffffffffffffffffffff167f9d40ca1b3e814a14204b5f836713067684a9facb9cdcf1524d819d5ecccce7d3856040518082815260200191505060405180910390a250505050565b600080828401905083811015151561235257600080fd5b8091505092915050565b600082821115151561236d57600080fd5b600082840390508091505092915050565b6000348514151561238e57600080fd5b600073ffffffffffffffffffffffffffffffffffffffff168473ffffffffffffffffffffffffffffffffffffffff16141515156123ca57600080fd5b600760008073ffffffffffffffffffffffffffffffffffffffff1673ffffffffffffffffffffffffffffffffffffffff16815260200190815260200160002054851015151561241857600080fd5b61242061303a565b610140604051908101604052803373ffffffffffffffffffffffffffffffffffffffff168152602001600073ffffffffffffffffffffffffffffffffffffffff1681526020018673ffffffffffffffffffffffffffffffffffffffff16815260200187815260200185815260200160008152602001878152602001600081526020018460ff168152602001600060ff1681525090508060056000600154815260200190815260200160002060008201518160000160006101000a81548173ffffffffffffffffffffffffffffffffffffffff021916908373ffffffffffffffffffffffffffffffffffffffff16021790555060208201518160010160006101000a81548173ffffffffffffffffffffffffffffffffffffffff021916908373ffffffffffffffffffffffffffffffffffffffff16021790555060408201518160020160006101000a81548173ffffffffffffffffffffffffffffffffffffffff021916908373ffffffffffffffffffffffffffffffffffffffff160217905550606082015181600301556080820151816004015560a0820151816005015560c0820151816006015560e082015181600701556101008201518160080160006101000a81548160ff021916908360ff1602179055506101208201518160080160016101000a81548160ff021916908360ff1602179055509050506001600081548092919060010191905055506001805403915050949350505050565b6000803414151561264b57600080fd5b8473ffffffffffffffffffffffffffffffffffffffff168473ffffffffffffffffffffffffffffffffffffffff161415151561268657600080fd5b600760008673ffffffffffffffffffffffffffffffffffffffff1673ffffffffffffffffffffffffffffffffffffffff1681526020019081526020016000205486101515156126d457600080fd5b8473ffffffffffffffffffffffffffffffffffffffff166323b872dd3330896040518463ffffffff167c0100000000000000000000000000000000000000000000000000000000028152600401808473ffffffffffffffffffffffffffffffffffffffff1673ffffffffffffffffffffffffffffffffffffffff1681526020018373ffffffffffffffffffffffffffffffffffffffff1673ffffffffffffffffffffffffffffffffffffffff1681526020018281526020019350505050602060405180830381600087803b1580156127ab57600080fd5b505af11580156127bf573d6000803e3d6000fd5b505050506040513d60208110156127d557600080fd5b8101908080519060200190929190505050506127ef61303a565b610140604051908101604052803373ffffffffffffffffffffffffffffffffffffffff1681526020018773ffffffffffffffffffffffffffffffffffffffff1681526020018673ffffffffffffffffffffffffffffffffffffffff16815260200188815260200185815260200160008152602001888152602001600081526020018460ff168152602001600060ff1681525090508060056000600154815260200190815260200160002060008201518160000160006101000a81548173ffffffffffffffffffffffffffffffffffffffff021916908373ffffffffffffffffffffffffffffffffffffffff16021790555060208201518160010160006101000a81548173ffffffffffffffffffffffffffffffffffffffff021916908373ffffffffffffffffffffffffffffffffffffffff16021790555060408201518160020160006101000a81548173ffffffffffffffffffffffffffffffffffffffff021916908373ffffffffffffffffffffffffffffffffffffffff160217905550606082015181600301556080820151816004015560a0820151816005015560c0820151816006015560e082015181600701556101008201518160080160006101000a81548160ff021916908360ff1602179055506101208201518160080160016101000a81548160ff021916908360ff160217905550905050600160008154809291906001019190505550600180540391505095945050505050565b600073ffffffffffffffffffffffffffffffffffffffff168173ffffffffffffffffffffffffffffffffffffffff1614151515612a4657600080fd5b8073ffffffffffffffffffffffffffffffffffffffff166000809054906101000a900473ffffffffffffffffffffffffffffffffffffffff1673ffffffffffffffffffffffffffffffffffffffff167f8be0079c531659141344cd1fd0a4f28419497f9722a3daafe3b4186f6b6457e060405160405180910390a3806000806101000a81548173ffffffffffffffffffffffffffffffffffffffff021916908373ffffffffffffffffffffffffffffffffffffffff16021790555050565b6000612b1c8260ff168461301090919063ffffffff16565b905092915050565b600080600460069054906101000a900473ffffffffffffffffffffffffffffffffffffffff1673ffffffffffffffffffffffffffffffffffffffff166306f2bf62856040518263ffffffff167c0100000000000000000000000000000000000000000000000000000000028152600401808273ffffffffffffffffffffffffffffffffffffffff1673ffffffffffffffffffffffffffffffffffffffff16815260200191505060206040518083038186803b158015612be257600080fd5b505afa158015612bf6573d6000803e3d6000fd5b505050506040513d6020811015612c0c57600080fd5b810190808051906020019092919050505090506000819050600060019050600061012c420190508673ffffffffffffffffffffffffffffffffffffffff1663095ea7b385886040518363ffffffff167c0100000000000000000000000000000000000000000000000000000000028152600401808373ffffffffffffffffffffffffffffffffffffffff1673ffffffffffffffffffffffffffffffffffffffff16815260200182815260200192505050602060405180830381600087803b158015612cd657600080fd5b505af1158015612cea573d6000803e3d6000fd5b505050506040513d6020811015612d0057600080fd5b8101908080519060200190929190505050508273ffffffffffffffffffffffffffffffffffffffff16637237e0318784848c6040518563ffffffff167c0100000000000000000000000000000000000000000000000000000000028152600401808581526020018481526020018381526020018273ffffffffffffffffffffffffffffffffffffffff1673ffffffffffffffffffffffffffffffffffffffff168152602001945050505050602060405180830381600087803b158015612dc557600080fd5b505af1158015612dd9573d6000803e3d6000fd5b505050506040513d6020811015612def57600080fd5b81019080805190602001909291905050509450505050509392505050565b600080600460069054906101000a900473ffffffffffffffffffffffffffffffffffffffff1673ffffffffffffffffffffffffffffffffffffffff166306f2bf62856040518263ffffffff167c0100000000000000000000000000000000000000000000000000000000028152600401808273ffffffffffffffffffffffffffffffffffffffff1673ffffffffffffffffffffffffffffffffffffffff16815260200191505060206040518083038186803b158015612ecb57600080fd5b505afa158015612edf573d6000803e3d6000fd5b505050506040513d6020811015612ef557600080fd5b810190808051906020019092919050505090506000819050600060019050600061012c420190508273ffffffffffffffffffffffffffffffffffffffff1663ad65d76d8784848c6040518563ffffffff167c0100000000000000000000000000000000000000000000000000000000028152600401808481526020018381526020018273ffffffffffffffffffffffffffffffffffffffff1673ffffffffffffffffffffffffffffffffffffffff16815260200193505050506020604051808303818588803b158015612fc757600080fd5b505af1158015612fdb573d6000803e3d6000fd5b50505050506040513d6020811015612ff257600080fd5b81019080805190602001909291905050509450505050509392505050565b6000808211151561302057600080fd5b6000828481151561302d57fe5b0490508091505092915050565b61014060405190810160405280600073ffffffffffffffffffffffffffffffffffffffff168152602001600073ffffffffffffffffffffffffffffffffffffffff168152602001600073ffffffffffffffffffffffffffffffffffffffff1681526020016000815260200160008152602001600081526020016000815260200160008152602001600060ff168152602001600060ff168152509056fea165627a7a72305820bdb9e90d48b5f772df7730fd6913daa2b7ac1b3460f16af1e73bf7399aae0e280029",
  "source": "pragma solidity ^0.5.2;\n\nimport '../node_modules/openzeppelin-solidity/contracts/ownership/Ownable.sol';\nimport '../node_modules/openzeppelin-solidity/contracts/math/SafeMath.sol';\nimport '../node_modules/openzeppelin-solidity/contracts/token/ERC20/IERC20.sol';\nimport './UniswapFactoryInterface.sol';\nimport './UniswapExchangeInterface.sol';\n\ncontract CostAverageOrderBook is Ownable {\n    using SafeMath for uint256;\n\n    uint256 public nextId;\n    uint256 private feeBalance;\n    uint256 private feesWithdrawn;\n    uint32 public minFrequency;\n    uint8 public minBatches;\n    uint8 public maxBatches;\n\n    UniswapFactoryInterface internal factory;\n\n    struct OrderInfo {\n        address account;\n        address sourceCurrency;\n        address targetCurrency;\n        uint256 amount;\n        uint256 frequency; // in seconds\n        uint256 lastConversionTimestamp;\n        uint256 sourceCurrencyBalance;\n        uint256 targetCurrencyConverted;\n        uint8 batches;\n        uint8 batchesExecuted;\n    }\n    mapping(uint256 => OrderInfo) public idToCostAverageOrder;\n    mapping(address => uint256[]) public accountToOrderIds;\n    mapping(address => uint256) public sourceCurrencyToMinAmount;\n    mapping(address => uint256) public sourceCurrencyToMaxAmount;\n\n    event NewOrder(\n        address indexed _account,\n        uint256 _orderId\n    );\n\n    event OrderConversion(\n        address indexed _account,\n        uint256 _orderId\n    );\n\n    event CancelOrder(\n        address indexed _account,\n        uint256 _orderId\n    );\n\n    constructor(address _uniswapFactoryAddress) public {\n        factory = UniswapFactoryInterface(_uniswapFactoryAddress);\n        nextId = 1; // Set first order as 1 instead of 0\n\n        // Initial order min/max\n        maxBatches = 255;\n        minBatches = 1;\n        minFrequency = 1 hours;\n        sourceCurrencyToMinAmount[address(0)] = 0.1 ether;\n        sourceCurrencyToMaxAmount[address(0)] = 100 ether;\n    }\n\n    // A max amount of 0 means the token is not accepted as source currency.\n    function updateSourceCurrency(address _sourceCurrency, uint256 _minAmount, uint256 _maxAmount)\n        external\n        onlyOwner\n    {\n        sourceCurrencyToMinAmount[_sourceCurrency] = _minAmount;\n        sourceCurrencyToMaxAmount[_sourceCurrency] = _maxAmount;\n    }\n\n    function getSourceCurrencyLimits(address _sourceCurrency)\n        external\n        view\n        returns (uint256 minAmount_, uint256 maxAmount_)\n    {\n        minAmount_ = sourceCurrencyToMinAmount[_sourceCurrency];\n        maxAmount_ = sourceCurrencyToMaxAmount[_sourceCurrency];\n    }\n\n    function cancelOrder(uint256 _id) public {\n        OrderInfo storage order = idToCostAverageOrder[_id];\n\n        require(order.account == msg.sender);\n        require(order.sourceCurrencyBalance > 0);\n\n        uint256 refundAmount = order.sourceCurrencyBalance;\n        order.sourceCurrencyBalance = 0;\n\n        if (order.sourceCurrency == address(0)) {\n            msg.sender.transfer(refundAmount);\n        }\n        else {\n            IERC20(order.sourceCurrency).transfer(order.account, refundAmount);\n        }\n\n        emit CancelOrder(order.account, _id);\n    }\n\n    function createOrder(\n        uint256 _amount,\n        address _sourceCurrency,\n        address _targetCurrency,\n        uint256 _frequency,\n        uint8 _batches\n    )\n        public\n        payable\n        returns (uint256 id_)\n    {\n        // Enforce common min/max values\n        require(_batches <= maxBatches);\n        require(_batches >= minBatches);\n        require(_frequency >= minFrequency);\n\n        uint256 orderId;\n        if (_sourceCurrency == address(0)) {\n            orderId = createOrderEth(\n                _amount,\n                _targetCurrency,\n                _frequency,\n                _batches\n            );\n        }\n        else {\n            orderId = createOrderToken(\n                _amount,\n                _sourceCurrency,\n                _targetCurrency,\n                _frequency,\n                _batches\n            );\n        }\n        accountToOrderIds[msg.sender].push(orderId);\n\n        emit NewOrder(msg.sender, orderId);\n\n        return orderId;\n    }\n\n    function createOrderEth(\n        uint256 _amount,\n        address _targetCurrency,\n        uint256 _frequency,\n        uint8 _batches\n    )\n        internal\n        returns (uint256 id_)\n    {\n        require(_amount == msg.value); // should not be sending ETH\n        require(_targetCurrency != address(0)); // target can't be ETH\n        require(_amount >= sourceCurrencyToMinAmount[address(0)]);\n\n        OrderInfo memory newOrder = OrderInfo({\n            amount: _amount,\n            sourceCurrency: address(0),\n            targetCurrency: _targetCurrency,\n            frequency: _frequency,\n            batches: _batches,\n            account: msg.sender,\n            sourceCurrencyBalance: _amount,\n            targetCurrencyConverted: 0,\n            batchesExecuted: 0,\n            lastConversionTimestamp: 0\n        });\n\n        idToCostAverageOrder[nextId] = newOrder;\n        nextId++;\n        return nextId-1;\n    }\n\n    function createOrderToken(\n        uint256 _amount,\n        address _sourceCurrency,\n        address _targetCurrency,\n        uint256 _frequency,\n        uint8 _batches\n    )\n        internal\n        returns (uint256 id_)\n    {\n        // Validate inputs\n        require(msg.value == 0); // Not payable\n        require(_targetCurrency != _sourceCurrency); // source and target can't be same token\n        require(_amount >= sourceCurrencyToMinAmount[_sourceCurrency]);\n\n        // Transfer the ERC20 tokens to the contract\n        IERC20(_sourceCurrency).transferFrom(msg.sender, address(this), _amount);\n\n        // Create order\n        OrderInfo memory newOrder = OrderInfo({\n            amount: _amount,\n            sourceCurrency: _sourceCurrency,\n            targetCurrency: _targetCurrency,\n            frequency: _frequency,\n            batches: _batches,\n            account: msg.sender,\n            sourceCurrencyBalance: _amount,\n            targetCurrencyConverted: 0,\n            batchesExecuted: 0,\n            lastConversionTimestamp: 0\n        });\n        idToCostAverageOrder[nextId] = newOrder;\n\n        // Increment next order id\n        nextId++;\n        return nextId-1;\n    }\n\n\n\n    function getFeeBalance()\n        view\n        public\n        onlyOwner\n        returns (uint256 feeBalance_)\n    {\n        feeBalance_ = feeBalance;\n    }\n\n    function getOrder(uint256 _id)\n        view\n        public\n        returns (\n            uint256 id_,\n            uint256 amount_,\n            address sourceCurrency_,\n            address targetCurrency_,\n            uint256 frequency_,\n            uint8 batches_,\n            uint8 batchesExecuted_,\n            uint256 lastConversionTimestamp_,\n            uint256 targetCurrencyConverted_,\n            uint256 sourceCurrencyBalance_\n        )\n    {\n        OrderInfo memory order = idToCostAverageOrder[_id];\n\n        return (\n            _id,\n            order.amount,\n            order.sourceCurrency,\n            order.targetCurrency,\n            order.frequency,\n            order.batches,\n            order.batchesExecuted,\n            order.lastConversionTimestamp,\n            order.targetCurrencyConverted,\n            order.sourceCurrencyBalance\n        );\n    }\n\n    function getOrderCount() view public returns (uint256) {\n        return nextId-1;\n    }\n\n    function getOrderCountForAccount(address _account)\n        view\n        public\n        returns (uint256 count_)\n    {\n        return accountToOrderIds[_account].length;\n    }\n\n    function getOrderForAccountIndex(address _account, uint256 _index)\n        view\n        public\n        returns (\n            uint256 id_,\n            uint256 amount_,\n            address sourceCurrency_,\n            address targetCurrency_,\n            uint256 frequency_,\n            uint8 batches_,\n            uint8 batchesExecuted_,\n            uint256 lastConversionTimestamp_,\n            uint256 targetCurrencyConverted_,\n            uint256 sourceCurrencyBalance_\n        )\n    {\n        require(_index < getOrderCountForAccount(_account));\n\n        return getOrder(accountToOrderIds[_account][_index]);\n    }\n\n    function getOrderParamLimits()\n        view\n        public\n        returns (\n            uint32 minFrequency_,\n            uint8 minBatches_,\n            uint8 maxBatches_\n        )\n    {\n        return (minFrequency, minBatches, maxBatches);\n    }\n\n    // Convenience function for dapp display of contract stats\n    function getStatTotals()\n        view\n        external\n        returns (\n            uint256 orders_,\n            uint256 conversions_,\n            uint256 managedEth_,\n            uint256 fees_\n        )\n    {\n        orders_ = getOrderCount();\n\n        conversions_ = 0;\n        for (uint256 i=1; i<=getOrderCount(); i++) {\n            OrderInfo memory order = idToCostAverageOrder[i];\n            conversions_ += order.batchesExecuted;\n        }\n\n        managedEth_ = address(this).balance.sub(feeBalance);\n        fees_ = getTotalFeesCollected();\n    }\n\n    function getTotalFeesCollected() view public returns (uint256) {\n        return feeBalance.add(feesWithdrawn);\n    }\n\n    function setMaxBatches(uint8 _maxBatches) public onlyOwner {\n        maxBatches = _maxBatches;\n    }\n\n    function setMinBatches(uint8 _minBatches) public onlyOwner {\n        minBatches = _minBatches;\n    }\n\n    function setMinFrequency(uint32 _minFrequency) public onlyOwner {\n        minFrequency = _minFrequency;\n    }\n\n    function withdrawFees() public onlyOwner {\n        require (feeBalance > 0);\n\n        uint256 withdrawalAmount = feeBalance;\n        feeBalance = 0;\n        feesWithdrawn.add(withdrawalAmount);\n\n        msg.sender.transfer(withdrawalAmount);\n    }\n\n\n    /*** Uniswap conversion logic ***/\n\n    function checkConversionDue(uint256 _id) view public returns (bool) {\n        OrderInfo memory order = idToCostAverageOrder[_id];\n\n        // Check if there is a balance of source currency\n        if (order.sourceCurrencyBalance <= 0) return false;\n\n        // Check if there should be batches remaining\n        if (order.batchesExecuted >= order.batches) return false;\n\n        // Check if the first conversion has been executed\n        if (order.lastConversionTimestamp == 0) return true;\n\n        // Check if enough time has elapsed to execute the next conversion\n        uint256 timeDelta = now - order.lastConversionTimestamp;\n        if (timeDelta < order.frequency) return false;\n\n        return true;\n    }\n\n    function checkConversionDueAll()\n        view\n        external\n        returns (uint256[] memory)\n    {\n        uint256 totalOrderCount = getOrderCount();\n        require(totalOrderCount > 0);\n\n        uint256[] memory coversionDueMap = new uint256[](totalOrderCount);\n\n        for (uint256 i=1; i<=totalOrderCount; i++) {\n            if (checkConversionDue(i) == true) coversionDueMap[i-1] = i;\n        }\n\n        return coversionDueMap;\n    }\n\n    function checkConversionDueBatch(uint256 _idStart, uint16 _count)\n        view\n        external\n        returns (uint256[] memory)\n    {\n        uint256 totalOrderCount = getOrderCount();\n        require(_idStart > 0);\n        require(_idStart <= totalOrderCount);\n\n        uint256[] memory coversionDueMap = new uint256[](_count);\n\n        for (\n            uint256 i=0; i<_count && _idStart.add(i) <= totalOrderCount; i++\n        )\n        {\n            if (checkConversionDue(_idStart.add(i)) == true) {\n                coversionDueMap[i] = _idStart.add(i);\n            }\n        }\n\n        return coversionDueMap;\n    }\n\n    function convertCurrency(uint256 _id) private {\n        OrderInfo storage order = idToCostAverageOrder[_id];\n\n        uint256 batchValue = valuePerBatch(order.amount, order.batches);\n\n        // In case batchValue is more than balance, use the remainder\n        if (order.sourceCurrencyBalance < batchValue) {\n            batchValue = order.sourceCurrencyBalance;\n        }\n\n        // Update all values possible before performing conversion\n        order.sourceCurrencyBalance -= batchValue;\n        order.batchesExecuted += 1;\n        order.lastConversionTimestamp = now;\n\n        uint256 amountReceived;\n        if (order.targetCurrency == address(0)) {\n            amountReceived = exchangeTokenToEth(\n                order.account,\n                order.sourceCurrency,\n                batchValue\n            );\n        }\n        else {\n            amountReceived = exchangeEthToToken(\n                order.account,\n                order.targetCurrency,\n                batchValue\n            );\n        }\n        // else {\n        //     amountReceived = exchangeTokenToToken(\n        //         order.account,\n        //         order.sourceCurrency,\n        //         order.targetCurrency,\n        //         batchValue\n        //     );\n        // }\n\n        // Update total tokens converted\n        order.targetCurrencyConverted += amountReceived;\n\n        emit OrderConversion(order.account, _id);\n    }\n\n    function exchangeEthToToken(\n        address _recipient,\n        address _targetCurrency,\n        uint256 _amountSourceCurrency\n    )\n        private\n        returns (uint256 amountReceived_)\n    {\n        // Set up the Uniswap exchange interface for the target token\n        address exchangeAddress = factory.getExchange(_targetCurrency);\n        UniswapExchangeInterface exchange = UniswapExchangeInterface(exchangeAddress);\n\n        uint256 min_tokens = 1; // TODO: implement this correctly\n        uint256 deadline = now + 300; // this is the value in the docs\n        amountReceived_ = exchange.ethToTokenTransferInput.value(\n            _amountSourceCurrency\n        )\n        (\n            min_tokens,\n            deadline,\n            _recipient\n        );\n    }\n\n    function exchangeTokenToEth(\n        address _recipient,\n        address _sourceCurrency,\n        uint256 _amountSourceCurrency\n    )\n        private\n        returns (uint256 amountReceived_)\n    {\n        // Set up the Uniswap exchange interface for the target token\n        address exchangeAddress = factory.getExchange(_sourceCurrency);\n        UniswapExchangeInterface exchange = UniswapExchangeInterface(exchangeAddress);\n\n        uint256 min_eth = 1; // TODO: implement this correctly\n        uint256 deadline = now + 300; // this is the value in the docs\n\n        // Approve token transfer and execute swap\n        IERC20(_sourceCurrency).approve(exchangeAddress, _amountSourceCurrency);\n        amountReceived_ = exchange.tokenToEthTransferInput(\n            _amountSourceCurrency,\n            min_eth,\n            deadline,\n            _recipient\n        );\n    }\n\n    // function exchangeTokenToToken(\n    //     address _recipient,\n    //     address _sourceCurrency,\n    //     address _targetCurrency,\n    //     uint256 _amountSourceCurrency\n    // )\n    //     private\n    //     returns (uint256 amountReceived_)\n    // {\n    //     // Set up the Uniswap exchange interface for the target token\n    //     address exchangeAddress = factory.getExchange(_targetCurrency);\n    //     UniswapExchangeInterface exchange = UniswapExchangeInterface(exchangeAddress);\n\n    //     uint256 min_eth = 1; // TODO: implement this correctly\n    //     uint256 deadline = now + 300; // this is the value in the docs\n\n    //     // Approve token transfer and execute swap\n    //     IERC20(_sourceCurrency).approve(exchangeAddress, _amountSourceCurrency);\n    //     amountReceived_ = exchange.tokenToTokenTransferInput(\n    //         _amountSourceCurrency,\n    //         min_tokens,\n    //         deadline,\n    //         _recipient\n    //     );\n    // }\n\n    // Execute converstions 1-by-1\n    function executeDueConversion(uint256 _id) public {\n        if (checkConversionDue(_id) == true) {\n            convertCurrency(_id);\n        }\n    }\n\n    // Execute conversions en masse\n    function executeDueConversions() external {\n        for (uint256 i=1; i<=getOrderCount(); i++) {\n            executeDueConversion(i);\n        }\n    }\n\n    function valuePerBatch(uint256 _amount, uint8 _batches)\n        pure\n        internal\n        returns (uint256)\n    {\n        return _amount.div(_batches);\n    }\n}\n",
  "sourcePath": "/Users/seancasey/Sites/vulcanswap/contracts/CostAverageOrderBook.sol",
  "compiler": {
    "name": "solc",
    "version": "0.5.2+commit.1df8f40c.Emscripten.clang"
  },
  "schemaVersion": "3.0.16",
  "updatedAt": "2019-09-26T06:44:47.843Z",
  "devdoc": {
    "methods": {
      "isOwner()": {
        "return": "true if `msg.sender` is the owner of the contract."
      },
      "owner()": {
        "return": "the address of the owner."
      },
      "renounceOwnership()": {
        "details": "Allows the current owner to relinquish control of the contract. It will not be possible to call the functions with the `onlyOwner` modifier anymore."
      },
      "transferOwnership(address)": {
        "details": "Allows the current owner to transfer control of the contract to a newOwner.",
        "params": {
          "newOwner": "The address to transfer ownership to."
        }
      }
    }
  },
  "userdoc": {
    "methods": {
      "checkConversionDue(uint256)": {
        "notice": "* Uniswap conversion logic **"
      },
      "renounceOwnership()": {
        "notice": "Renouncing ownership will leave the contract without an owner, thereby removing any functionality that is only available to the owner."
      }
    }
  }
}