{
  "contractName": "CostAverageOrderBook",
  "abi": [
    {
      "constant": true,
      "inputs": [],
      "name": "minBatches",
      "outputs": [
        {
          "name": "",
          "type": "uint8"
        }
      ],
      "payable": false,
      "stateMutability": "view",
      "type": "function",
      "signature": "0x42d0e57c"
    },
    {
      "constant": true,
      "inputs": [
        {
          "name": "",
          "type": "uint256"
        }
      ],
      "name": "idToCostAverageOrder",
      "outputs": [
        {
          "name": "account",
          "type": "address"
        },
        {
          "name": "targetCurrency",
          "type": "address"
        },
        {
          "name": "amount",
          "type": "uint256"
        },
        {
          "name": "frequency",
          "type": "uint256"
        },
        {
          "name": "lastConversionTimestamp",
          "type": "uint256"
        },
        {
          "name": "sourceCurrencyBalance",
          "type": "uint256"
        },
        {
          "name": "targetCurrencyConverted",
          "type": "uint256"
        },
        {
          "name": "batches",
          "type": "uint8"
        },
        {
          "name": "batchesExecuted",
          "type": "uint8"
        }
      ],
      "payable": false,
      "stateMutability": "view",
      "type": "function",
      "signature": "0x5c70e154"
    },
    {
      "constant": true,
      "inputs": [],
      "name": "nextId",
      "outputs": [
        {
          "name": "",
          "type": "uint256"
        }
      ],
      "payable": false,
      "stateMutability": "view",
      "type": "function",
      "signature": "0x61b8ce8c"
    },
    {
      "constant": false,
      "inputs": [],
      "name": "renounceOwnership",
      "outputs": [],
      "payable": false,
      "stateMutability": "nonpayable",
      "type": "function",
      "signature": "0x715018a6"
    },
    {
      "constant": true,
      "inputs": [],
      "name": "owner",
      "outputs": [
        {
          "name": "",
          "type": "address"
        }
      ],
      "payable": false,
      "stateMutability": "view",
      "type": "function",
      "signature": "0x8da5cb5b"
    },
    {
      "constant": true,
      "inputs": [],
      "name": "isOwner",
      "outputs": [
        {
          "name": "",
          "type": "bool"
        }
      ],
      "payable": false,
      "stateMutability": "view",
      "type": "function",
      "signature": "0x8f32d59b"
    },
    {
      "constant": true,
      "inputs": [],
      "name": "minAmount",
      "outputs": [
        {
          "name": "",
          "type": "uint256"
        }
      ],
      "payable": false,
      "stateMutability": "view",
      "type": "function",
      "signature": "0x9b2cb5d8"
    },
    {
      "constant": true,
      "inputs": [
        {
          "name": "",
          "type": "address"
        },
        {
          "name": "",
          "type": "uint256"
        }
      ],
      "name": "accountToOrderIds",
      "outputs": [
        {
          "name": "",
          "type": "uint256"
        }
      ],
      "payable": false,
      "stateMutability": "view",
      "type": "function",
      "signature": "0xbde84aeb"
    },
    {
      "constant": true,
      "inputs": [],
      "name": "maxBatches",
      "outputs": [
        {
          "name": "",
          "type": "uint8"
        }
      ],
      "payable": false,
      "stateMutability": "view",
      "type": "function",
      "signature": "0xc86377dc"
    },
    {
      "constant": true,
      "inputs": [],
      "name": "minFrequency",
      "outputs": [
        {
          "name": "",
          "type": "uint32"
        }
      ],
      "payable": false,
      "stateMutability": "view",
      "type": "function",
      "signature": "0xce8d0307"
    },
    {
      "constant": false,
      "inputs": [
        {
          "name": "newOwner",
          "type": "address"
        }
      ],
      "name": "transferOwnership",
      "outputs": [],
      "payable": false,
      "stateMutability": "nonpayable",
      "type": "function",
      "signature": "0xf2fde38b"
    },
    {
      "inputs": [
        {
          "name": "_uniswapFactoryAddress",
          "type": "address"
        }
      ],
      "payable": true,
      "stateMutability": "payable",
      "type": "constructor",
      "signature": "constructor"
    },
    {
      "anonymous": false,
      "inputs": [
        {
          "indexed": true,
          "name": "_account",
          "type": "address"
        },
        {
          "indexed": false,
          "name": "_orderId",
          "type": "uint256"
        }
      ],
      "name": "NewOrder",
      "type": "event",
      "signature": "0xef737f0fa1786a14bb1cc1ab889557c33fcea01691acf7e7e03e850aeff60d27"
    },
    {
      "anonymous": false,
      "inputs": [
        {
          "indexed": true,
          "name": "_account",
          "type": "address"
        },
        {
          "indexed": false,
          "name": "_orderId",
          "type": "uint256"
        }
      ],
      "name": "OrderConversion",
      "type": "event",
      "signature": "0x9d40ca1b3e814a14204b5f836713067684a9facb9cdcf1524d819d5ecccce7d3"
    },
    {
      "anonymous": false,
      "inputs": [
        {
          "indexed": true,
          "name": "_account",
          "type": "address"
        },
        {
          "indexed": false,
          "name": "_orderId",
          "type": "uint256"
        }
      ],
      "name": "CancelOrder",
      "type": "event",
      "signature": "0xc0e68d6b69f741c21e955cad2ae4d505b6f6735c7e7b278251b3f6283a5f07eb"
    },
    {
      "anonymous": false,
      "inputs": [
        {
          "indexed": true,
          "name": "previousOwner",
          "type": "address"
        },
        {
          "indexed": true,
          "name": "newOwner",
          "type": "address"
        }
      ],
      "name": "OwnershipTransferred",
      "type": "event",
      "signature": "0x8be0079c531659141344cd1fd0a4f28419497f9722a3daafe3b4186f6b6457e0"
    },
    {
      "constant": false,
      "inputs": [
        {
          "name": "_id",
          "type": "uint256"
        }
      ],
      "name": "cancelOrder",
      "outputs": [],
      "payable": false,
      "stateMutability": "nonpayable",
      "type": "function",
      "signature": "0x514fcac7"
    },
    {
      "constant": false,
      "inputs": [
        {
          "name": "_amount",
          "type": "uint256"
        },
        {
          "name": "_targetCurrency",
          "type": "address"
        },
        {
          "name": "_frequency",
          "type": "uint256"
        },
        {
          "name": "_batches",
          "type": "uint8"
        }
      ],
      "name": "createOrder",
      "outputs": [
        {
          "name": "id_",
          "type": "uint256"
        }
      ],
      "payable": true,
      "stateMutability": "payable",
      "type": "function",
      "signature": "0x7c61c1e7"
    },
    {
      "constant": true,
      "inputs": [],
      "name": "getFeeBalance",
      "outputs": [
        {
          "name": "feeBalance_",
          "type": "uint256"
        }
      ],
      "payable": false,
      "stateMutability": "view",
      "type": "function",
      "signature": "0xd4c30ceb"
    },
    {
      "constant": true,
      "inputs": [
        {
          "name": "_id",
          "type": "uint256"
        }
      ],
      "name": "getOrder",
      "outputs": [
        {
          "name": "id_",
          "type": "uint256"
        },
        {
          "name": "amount_",
          "type": "uint256"
        },
        {
          "name": "targetCurrency_",
          "type": "address"
        },
        {
          "name": "frequency_",
          "type": "uint256"
        },
        {
          "name": "batches_",
          "type": "uint8"
        },
        {
          "name": "batchesExecuted_",
          "type": "uint8"
        },
        {
          "name": "lastConversionTimestamp_",
          "type": "uint256"
        },
        {
          "name": "targetCurrencyConverted_",
          "type": "uint256"
        },
        {
          "name": "sourceCurrencyBalance_",
          "type": "uint256"
        }
      ],
      "payable": false,
      "stateMutability": "view",
      "type": "function",
      "signature": "0xd09ef241"
    },
    {
      "constant": true,
      "inputs": [],
      "name": "getOrderCount",
      "outputs": [
        {
          "name": "",
          "type": "uint256"
        }
      ],
      "payable": false,
      "stateMutability": "view",
      "type": "function",
      "signature": "0x8d0a5fbb"
    },
    {
      "constant": true,
      "inputs": [
        {
          "name": "_account",
          "type": "address"
        }
      ],
      "name": "getOrderCountForAccount",
      "outputs": [
        {
          "name": "count_",
          "type": "uint256"
        }
      ],
      "payable": false,
      "stateMutability": "view",
      "type": "function",
      "signature": "0x91fe20fe"
    },
    {
      "constant": true,
      "inputs": [
        {
          "name": "_account",
          "type": "address"
        },
        {
          "name": "_index",
          "type": "uint256"
        }
      ],
      "name": "getOrderForAccountIndex",
      "outputs": [
        {
          "name": "id_",
          "type": "uint256"
        },
        {
          "name": "amount_",
          "type": "uint256"
        },
        {
          "name": "targetCurrency_",
          "type": "address"
        },
        {
          "name": "frequency_",
          "type": "uint256"
        },
        {
          "name": "batches_",
          "type": "uint8"
        },
        {
          "name": "batchesExecuted_",
          "type": "uint8"
        },
        {
          "name": "lastConversionTimestamp_",
          "type": "uint256"
        },
        {
          "name": "targetCurrencyConverted_",
          "type": "uint256"
        },
        {
          "name": "sourceCurrencyBalance_",
          "type": "uint256"
        }
      ],
      "payable": false,
      "stateMutability": "view",
      "type": "function",
      "signature": "0x6d94fd0f"
    },
    {
      "constant": true,
      "inputs": [],
      "name": "getOrderParamLimits",
      "outputs": [
        {
          "name": "minAmount_",
          "type": "uint256"
        },
        {
          "name": "minFrequency_",
          "type": "uint32"
        },
        {
          "name": "minBatches_",
          "type": "uint8"
        },
        {
          "name": "maxBatches_",
          "type": "uint8"
        }
      ],
      "payable": false,
      "stateMutability": "view",
      "type": "function",
      "signature": "0x8d59ca4a"
    },
    {
      "constant": true,
      "inputs": [],
      "name": "getStatTotals",
      "outputs": [
        {
          "name": "orders_",
          "type": "uint256"
        },
        {
          "name": "conversions_",
          "type": "uint256"
        },
        {
          "name": "managedEth_",
          "type": "uint256"
        },
        {
          "name": "fees_",
          "type": "uint256"
        }
      ],
      "payable": false,
      "stateMutability": "view",
      "type": "function",
      "signature": "0x6fc66b99"
    },
    {
      "constant": true,
      "inputs": [],
      "name": "getTotalFeesCollected",
      "outputs": [
        {
          "name": "",
          "type": "uint256"
        }
      ],
      "payable": false,
      "stateMutability": "view",
      "type": "function",
      "signature": "0x46876508"
    },
    {
      "constant": false,
      "inputs": [
        {
          "name": "_maxBatches",
          "type": "uint8"
        }
      ],
      "name": "setMaxBatches",
      "outputs": [],
      "payable": false,
      "stateMutability": "nonpayable",
      "type": "function",
      "signature": "0x1b6671fd"
    },
    {
      "constant": false,
      "inputs": [
        {
          "name": "_minAmount",
          "type": "uint256"
        }
      ],
      "name": "setMinAmount",
      "outputs": [],
      "payable": false,
      "stateMutability": "nonpayable",
      "type": "function",
      "signature": "0x897b0637"
    },
    {
      "constant": false,
      "inputs": [
        {
          "name": "_minBatches",
          "type": "uint8"
        }
      ],
      "name": "setMinBatches",
      "outputs": [],
      "payable": false,
      "stateMutability": "nonpayable",
      "type": "function",
      "signature": "0xefa28b03"
    },
    {
      "constant": false,
      "inputs": [
        {
          "name": "_minFrequency",
          "type": "uint32"
        }
      ],
      "name": "setMinFrequency",
      "outputs": [],
      "payable": false,
      "stateMutability": "nonpayable",
      "type": "function",
      "signature": "0x6c81e659"
    },
    {
      "constant": false,
      "inputs": [
        {
          "name": "_remoteCaller",
          "type": "address"
        }
      ],
      "name": "setRemoteCaller",
      "outputs": [],
      "payable": false,
      "stateMutability": "nonpayable",
      "type": "function",
      "signature": "0xea2ba5c4"
    },
    {
      "constant": false,
      "inputs": [],
      "name": "withdrawFees",
      "outputs": [],
      "payable": false,
      "stateMutability": "nonpayable",
      "type": "function",
      "signature": "0x476343ee"
    },
    {
      "constant": true,
      "inputs": [
        {
          "name": "_id",
          "type": "uint256"
        }
      ],
      "name": "checkConversionDue",
      "outputs": [
        {
          "name": "",
          "type": "bool"
        }
      ],
      "payable": false,
      "stateMutability": "view",
      "type": "function",
      "signature": "0x838bac1e"
    },
    {
      "constant": true,
      "inputs": [],
      "name": "checkConversionDueAll",
      "outputs": [
        {
          "name": "",
          "type": "uint256[]"
        }
      ],
      "payable": false,
      "stateMutability": "view",
      "type": "function",
      "signature": "0x20580f42"
    },
    {
      "constant": true,
      "inputs": [
        {
          "name": "_idStart",
          "type": "uint256"
        },
        {
          "name": "_count",
          "type": "uint16"
        }
      ],
      "name": "checkConversionDueBatch",
      "outputs": [
        {
          "name": "",
          "type": "uint256[]"
        }
      ],
      "payable": false,
      "stateMutability": "view",
      "type": "function",
      "signature": "0x4431189c"
    },
    {
      "constant": false,
      "inputs": [
        {
          "name": "_id",
          "type": "uint256"
        }
      ],
      "name": "executeDueConversion",
      "outputs": [],
      "payable": false,
      "stateMutability": "nonpayable",
      "type": "function",
      "signature": "0x1390dc54"
    },
    {
      "constant": false,
      "inputs": [],
      "name": "executeDueConversions",
      "outputs": [],
      "payable": false,
      "stateMutability": "nonpayable",
      "type": "function",
      "signature": "0x2e84767e"
    }
  ],
  "bytecode": "0x608060405260405160208061269f8339810180604052602081101561002357600080fd5b8101908080519060200190929190505050336000806101000a81548173ffffffffffffffffffffffffffffffffffffffff021916908373ffffffffffffffffffffffffffffffffffffffff1602179055506000809054906101000a900473ffffffffffffffffffffffffffffffffffffffff1673ffffffffffffffffffffffffffffffffffffffff16600073ffffffffffffffffffffffffffffffffffffffff167f8be0079c531659141344cd1fd0a4f28419497f9722a3daafe3b4186f6b6457e060405160405180910390a3806006806101000a81548173ffffffffffffffffffffffffffffffffffffffff021916908373ffffffffffffffffffffffffffffffffffffffff16021790555033600260006101000a81548173ffffffffffffffffffffffffffffffffffffffff021916908373ffffffffffffffffffffffffffffffffffffffff1602179055506001808190555060ff600660056101000a81548160ff021916908360ff16021790555067016345785d8a00006005819055506001600660046101000a81548160ff021916908360ff160217905550610e10600660006101000a81548163ffffffff021916908363ffffffff160217905550506124ad806101f26000396000f3fe608060405260043610610200576000357c010000000000000000000000000000000000000000000000000000000090048063838bac1e1161011f578063bde84aeb116100b2578063d4c30ceb11610081578063d4c30ceb14610b10578063ea2ba5c414610b3b578063efa28b0314610b8c578063f2fde38b14610bca57610200565b8063bde84aeb1461097a578063c86377dc146109e9578063ce8d030714610a1a578063d09ef24114610a5157610200565b80638da5cb5b116100ee5780638da5cb5b146108645780638f32d59b146108bb57806391fe20fe146108ea5780639b2cb5d81461094f57610200565b8063838bac1e14610753578063897b0637146107a65780638d0a5fbb146107e15780638d59ca4a1461080c57610200565b8063514fcac7116101975780636d94fd0f116101665780636d94fd0f146105a45780636fc66b9914610683578063715018a6146106c35780637c61c1e7146106da57610200565b8063514fcac7146104125780635c70e1541461044d57806361b8ce8c146105385780636c81e6591461056357610200565b806342d0e57c116101d357806342d0e57c146103015780634431189c1461033257806346876508146103d0578063476343ee146103fb57610200565b80631390dc54146102055780631b6671fd1461024057806320580f421461027e5780632e84767e146102ea575b600080fd5b34801561021157600080fd5b5061023e6004803603602081101561022857600080fd5b8101908080359060200190929190505050610c1b565b005b34801561024c57600080fd5b5061027c6004803603602081101561026357600080fd5b81019080803560ff169060200190929190505050610c99565b005b34801561028a57600080fd5b50610293610cca565b6040518080602001828103825283818151815260200191508051906020019060200280838360005b838110156102d65780820151818401526020810190506102bb565b505050509050019250505060405180910390f35b3480156102f657600080fd5b506102ff610dd3565b005b34801561030d57600080fd5b50610316610e5f565b604051808260ff1660ff16815260200191505060405180910390f35b34801561033e57600080fd5b506103796004803603604081101561035557600080fd5b8101908080359060200190929190803561ffff169060200190929190505050610e72565b6040518080602001828103825283818151815260200191508051906020019060200280838360005b838110156103bc5780820151818401526020810190506103a1565b505050509050019250505060405180910390f35b3480156103dc57600080fd5b506103e5610fd2565b6040518082815260200191505060405180910390f35b34801561040757600080fd5b50610410610ff0565b005b34801561041e57600080fd5b5061044b6004803603602081101561043557600080fd5b8101908080359060200190929190505050611083565b005b34801561045957600080fd5b506104866004803603602081101561047057600080fd5b81019080803590602001909291905050506111dc565b604051808a73ffffffffffffffffffffffffffffffffffffffff1673ffffffffffffffffffffffffffffffffffffffff1681526020018973ffffffffffffffffffffffffffffffffffffffff1673ffffffffffffffffffffffffffffffffffffffff1681526020018881526020018781526020018681526020018581526020018481526020018360ff1660ff1681526020018260ff1660ff168152602001995050505050505050505060405180910390f35b34801561054457600080fd5b5061054d611284565b6040518082815260200191505060405180910390f35b34801561056f57600080fd5b506105a26004803603602081101561058657600080fd5b81019080803563ffffffff16906020019092919050505061128a565b005b3480156105b057600080fd5b506105fd600480360360408110156105c757600080fd5b81019080803573ffffffffffffffffffffffffffffffffffffffff169060200190929190803590602001909291905050506112c1565b604051808a81526020018981526020018873ffffffffffffffffffffffffffffffffffffffff1673ffffffffffffffffffffffffffffffffffffffff1681526020018781526020018660ff1660ff1681526020018560ff1660ff168152602001848152602001838152602001828152602001995050505050505050505060405180910390f35b34801561068f57600080fd5b50610698611363565b6040518085815260200184815260200183815260200182815260200194505050505060405180910390f35b3480156106cf57600080fd5b506106d861152a565b005b61073d600480360360808110156106f057600080fd5b8101908080359060200190929190803573ffffffffffffffffffffffffffffffffffffffff16906020019092919080359060200190929190803560ff1690602001909291905050506115fc565b6040518082815260200191505060405180910390f35b34801561075f57600080fd5b5061078c6004803603602081101561077657600080fd5b8101908080359060200190929190505050611905565b604051808215151515815260200191505060405180910390f35b3480156107b257600080fd5b506107df600480360360208110156107c957600080fd5b8101908080359060200190929190505050611ac8565b005b3480156107ed57600080fd5b506107f6611ae5565b6040518082815260200191505060405180910390f35b34801561081857600080fd5b50610821611af1565b604051808581526020018463ffffffff1663ffffffff1681526020018360ff1660ff1681526020018260ff1660ff16815260200194505050505060405180910390f35b34801561087057600080fd5b50610879611b3b565b604051808273ffffffffffffffffffffffffffffffffffffffff1673ffffffffffffffffffffffffffffffffffffffff16815260200191505060405180910390f35b3480156108c757600080fd5b506108d0611b64565b604051808215151515815260200191505060405180910390f35b3480156108f657600080fd5b506109396004803603602081101561090d57600080fd5b81019080803573ffffffffffffffffffffffffffffffffffffffff169060200190929190505050611bbb565b6040518082815260200191505060405180910390f35b34801561095b57600080fd5b50610964611c07565b6040518082815260200191505060405180910390f35b34801561098657600080fd5b506109d36004803603604081101561099d57600080fd5b81019080803573ffffffffffffffffffffffffffffffffffffffff16906020019092919080359060200190929190505050611c0d565b6040518082815260200191505060405180910390f35b3480156109f557600080fd5b506109fe611c3d565b604051808260ff1660ff16815260200191505060405180910390f35b348015610a2657600080fd5b50610a2f611c50565b604051808263ffffffff1663ffffffff16815260200191505060405180910390f35b348015610a5d57600080fd5b50610a8a60048036036020811015610a7457600080fd5b8101908080359060200190929190505050611c66565b604051808a81526020018981526020018873ffffffffffffffffffffffffffffffffffffffff1673ffffffffffffffffffffffffffffffffffffffff1681526020018781526020018660ff1660ff1681526020018560ff1660ff168152602001848152602001838152602001828152602001995050505050505050505060405180910390f35b348015610b1c57600080fd5b50610b25611e00565b6040518082815260200191505060405180910390f35b348015610b4757600080fd5b50610b8a60048036036020811015610b5e57600080fd5b81019080803573ffffffffffffffffffffffffffffffffffffffff169060200190929190505050611e1d565b005b348015610b9857600080fd5b50610bc860048036036020811015610baf57600080fd5b81019080803560ff169060200190929190505050611e74565b005b348015610bd657600080fd5b50610c1960048036036020811015610bed57600080fd5b81019080803573ffffffffffffffffffffffffffffffffffffffff169060200190929190505050611ea5565b005b600260009054906101000a900473ffffffffffffffffffffffffffffffffffffffff1673ffffffffffffffffffffffffffffffffffffffff163373ffffffffffffffffffffffffffffffffffffffff16141515610c7757600080fd5b60011515610c8482611905565b15151415610c9657610c9581611ec4565b5b50565b610ca1611b64565b1515610cac57600080fd5b80600660056101000a81548160ff021916908360ff16021790555050565b6060600260009054906101000a900473ffffffffffffffffffffffffffffffffffffffff1673ffffffffffffffffffffffffffffffffffffffff163373ffffffffffffffffffffffffffffffffffffffff16141515610d2857600080fd5b6000610d32611ae5565b9050600081111515610d4357600080fd5b606081604051908082528060200260200182016040528015610d745781602001602082028038833980820191505090505b5090506000600190505b8281111515610dca5760011515610d9482611905565b15151415610dbd57808260018303815181101515610dae57fe5b90602001906020020181815250505b8080600101915050610d7e565b50809250505090565b600260009054906101000a900473ffffffffffffffffffffffffffffffffffffffff1673ffffffffffffffffffffffffffffffffffffffff163373ffffffffffffffffffffffffffffffffffffffff16141515610e2f57600080fd5b6000600190505b610e3e611ae5565b81111515610e5c57610e4f81610c1b565b8080600101915050610e36565b50565b600660049054906101000a900460ff1681565b6060600260009054906101000a900473ffffffffffffffffffffffffffffffffffffffff1673ffffffffffffffffffffffffffffffffffffffff163373ffffffffffffffffffffffffffffffffffffffff16141515610ed057600080fd5b6000610eda611ae5565b9050600084111515610eeb57600080fd5b808411151515610efa57600080fd5b60608361ffff16604051908082528060200260200182016040528015610f2f5781602001602082028038833980820191505090505b50905060008090505b8461ffff1681108015610f5d575082610f5a828861207990919063ffffffff16565b11155b15610fc65760011515610f81610f7c838961207990919063ffffffff16565b611905565b15151415610fb957610f9c818761207990919063ffffffff16565b8282815181101515610faa57fe5b90602001906020020181815250505b8080600101915050610f38565b50809250505092915050565b6000610feb60045460035461207990919063ffffffff16565b905090565b610ff8611b64565b151561100357600080fd5b600060035411151561101457600080fd5b6000600354905060006003819055506110388160045461207990919063ffffffff16565b503373ffffffffffffffffffffffffffffffffffffffff166108fc829081150290604051600060405180830381858888f1935050505015801561107f573d6000803e3d6000fd5b5050565b60006007600083815260200190815260200160002090503373ffffffffffffffffffffffffffffffffffffffff168160000160009054906101000a900473ffffffffffffffffffffffffffffffffffffffff1673ffffffffffffffffffffffffffffffffffffffff161415156110f857600080fd5b6000816005015411151561110b57600080fd5b600081600501549050600082600501819055503373ffffffffffffffffffffffffffffffffffffffff166108fc829081150290604051600060405180830381858888f19350505050158015611164573d6000803e3d6000fd5b508160000160009054906101000a900473ffffffffffffffffffffffffffffffffffffffff1673ffffffffffffffffffffffffffffffffffffffff167fc0e68d6b69f741c21e955cad2ae4d505b6f6735c7e7b278251b3f6283a5f07eb846040518082815260200191505060405180910390a2505050565b60076020528060005260406000206000915090508060000160009054906101000a900473ffffffffffffffffffffffffffffffffffffffff16908060010160009054906101000a900473ffffffffffffffffffffffffffffffffffffffff16908060020154908060030154908060040154908060050154908060060154908060070160009054906101000a900460ff16908060070160019054906101000a900460ff16905089565b60015481565b611292611b64565b151561129d57600080fd5b80600660006101000a81548163ffffffff021916908363ffffffff16021790555050565b60008060008060008060008060006112d88b611bbb565b8a1015156112e557600080fd5b611344600860008d73ffffffffffffffffffffffffffffffffffffffff1673ffffffffffffffffffffffffffffffffffffffff1681526020019081526020016000208b81548110151561133457fe5b9060005260206000200154611c66565b9850985098509850985098509850985098509295985092959850929598565b600080600080611371611ae5565b9350600092506000600190505b611386611ae5565b811115156114eb57611396612402565b6007600083815260200190815260200160002061012060405190810160405290816000820160009054906101000a900473ffffffffffffffffffffffffffffffffffffffff1673ffffffffffffffffffffffffffffffffffffffff1673ffffffffffffffffffffffffffffffffffffffff1681526020016001820160009054906101000a900473ffffffffffffffffffffffffffffffffffffffff1673ffffffffffffffffffffffffffffffffffffffff1673ffffffffffffffffffffffffffffffffffffffff16815260200160028201548152602001600382015481526020016004820154815260200160058201548152602001600682015481526020016007820160009054906101000a900460ff1660ff1660ff1681526020016007820160019054906101000a900460ff1660ff1660ff1681525050905080610100015160ff168501945050808060010191505061137e565b506115186003543073ffffffffffffffffffffffffffffffffffffffff163161209a90919063ffffffff16565b9150611522610fd2565b905090919293565b611532611b64565b151561153d57600080fd5b600073ffffffffffffffffffffffffffffffffffffffff166000809054906101000a900473ffffffffffffffffffffffffffffffffffffffff1673ffffffffffffffffffffffffffffffffffffffff167f8be0079c531659141344cd1fd0a4f28419497f9722a3daafe3b4186f6b6457e060405160405180910390a360008060006101000a81548173ffffffffffffffffffffffffffffffffffffffff021916908373ffffffffffffffffffffffffffffffffffffffff160217905550565b6000348514151561160c57600080fd5b600554851015151561161d57600080fd5b600660049054906101000a900460ff1660ff168260ff161015151561164157600080fd5b600660009054906101000a900463ffffffff1663ffffffff16831015151561166857600080fd5b600660059054906101000a900460ff1660ff168260ff161115151561168c57600080fd5b611694612402565b610120604051908101604052803373ffffffffffffffffffffffffffffffffffffffff1681526020018673ffffffffffffffffffffffffffffffffffffffff16815260200187815260200185815260200160008152602001878152602001600081526020018460ff168152602001600060ff1681525090508060076000600154815260200190815260200160002060008201518160000160006101000a81548173ffffffffffffffffffffffffffffffffffffffff021916908373ffffffffffffffffffffffffffffffffffffffff16021790555060208201518160010160006101000a81548173ffffffffffffffffffffffffffffffffffffffff021916908373ffffffffffffffffffffffffffffffffffffffff16021790555060408201518160020155606082015181600301556080820151816004015560a0820151816005015560c0820151816006015560e08201518160070160006101000a81548160ff021916908360ff1602179055506101008201518160070160016101000a81548160ff021916908360ff160217905550905050600860003373ffffffffffffffffffffffffffffffffffffffff1673ffffffffffffffffffffffffffffffffffffffff16815260200190815260200160002060015490806001815401808255809150509060018203906000526020600020016000909192909190915055503373ffffffffffffffffffffffffffffffffffffffff167fef737f0fa1786a14bb1cc1ab889557c33fcea01691acf7e7e03e850aeff60d276001546040518082815260200191505060405180910390a26001600081548092919060010191905055506001805403915050949350505050565b600061190f612402565b6007600084815260200190815260200160002061012060405190810160405290816000820160009054906101000a900473ffffffffffffffffffffffffffffffffffffffff1673ffffffffffffffffffffffffffffffffffffffff1673ffffffffffffffffffffffffffffffffffffffff1681526020016001820160009054906101000a900473ffffffffffffffffffffffffffffffffffffffff1673ffffffffffffffffffffffffffffffffffffffff1673ffffffffffffffffffffffffffffffffffffffff16815260200160028201548152602001600382015481526020016004820154815260200160058201548152602001600682015481526020016007820160009054906101000a900460ff1660ff1660ff1681526020016007820160019054906101000a900460ff1660ff1660ff1681525050905060008160a00151111515611a61576000915050611ac3565b8060e0015160ff1681610100015160ff16101515611a83576000915050611ac3565b600081608001511415611a9a576001915050611ac3565b60008160800151420390508160600151811015611abc57600092505050611ac3565b6001925050505b919050565b611ad0611b64565b1515611adb57600080fd5b8060058190555050565b60006001805403905090565b600080600080600554600660009054906101000a900463ffffffff16600660049054906101000a900460ff16600660059054906101000a900460ff16935093509350935090919293565b60008060009054906101000a900473ffffffffffffffffffffffffffffffffffffffff16905090565b60008060009054906101000a900473ffffffffffffffffffffffffffffffffffffffff1673ffffffffffffffffffffffffffffffffffffffff163373ffffffffffffffffffffffffffffffffffffffff1614905090565b6000600860008373ffffffffffffffffffffffffffffffffffffffff1673ffffffffffffffffffffffffffffffffffffffff168152602001908152602001600020805490509050919050565b60055481565b600860205281600052604060002081815481101515611c2857fe5b90600052602060002001600091509150505481565b600660059054906101000a900460ff1681565b600660009054906101000a900463ffffffff1681565b6000806000806000806000806000611c7c612402565b600760008c815260200190815260200160002061012060405190810160405290816000820160009054906101000a900473ffffffffffffffffffffffffffffffffffffffff1673ffffffffffffffffffffffffffffffffffffffff1673ffffffffffffffffffffffffffffffffffffffff1681526020016001820160009054906101000a900473ffffffffffffffffffffffffffffffffffffffff1673ffffffffffffffffffffffffffffffffffffffff1673ffffffffffffffffffffffffffffffffffffffff16815260200160028201548152602001600382015481526020016004820154815260200160058201548152602001600682015481526020016007820160009054906101000a900460ff1660ff1660ff1681526020016007820160019054906101000a900460ff1660ff1660ff168152505090508a8160400151826020015183606001518460e0015185610100015186608001518760c001518860a00151995099509950995099509950995099509950509193959799909294969850565b6000611e0a611b64565b1515611e1557600080fd5b600354905090565b611e25611b64565b1515611e3057600080fd5b80600260006101000a81548173ffffffffffffffffffffffffffffffffffffffff021916908373ffffffffffffffffffffffffffffffffffffffff16021790555050565b611e7c611b64565b1515611e8757600080fd5b80600660046101000a81548160ff021916908360ff16021790555050565b611ead611b64565b1515611eb857600080fd5b611ec1816120bc565b50565b60006007600083815260200190815260200160002090506000611efc82600201548360070160009054906101000a900460ff166121b6565b90508082600501541015611f1257816005015490505b80826005016000828254039250508190555060018260070160018282829054906101000a900460ff160192506101000a81548160ff021916908360ff1602179055504282600401819055506000611f7360c8836121d690919063ffffffff16565b9050806003600082825401925050819055506000611fec8460000160009054906101000a900473ffffffffffffffffffffffffffffffffffffffff168560010160009054906101000a900473ffffffffffffffffffffffffffffffffffffffff16611fe7858761209a90919063ffffffff16565b612200565b90508084600601600082825401925050819055508360000160009054906101000a900473ffffffffffffffffffffffffffffffffffffffff1673ffffffffffffffffffffffffffffffffffffffff167f9d40ca1b3e814a14204b5f836713067684a9facb9cdcf1524d819d5ecccce7d3866040518082815260200191505060405180910390a25050505050565b600080828401905083811015151561209057600080fd5b8091505092915050565b60008282111515156120ab57600080fd5b600082840390508091505092915050565b600073ffffffffffffffffffffffffffffffffffffffff168173ffffffffffffffffffffffffffffffffffffffff16141515156120f857600080fd5b8073ffffffffffffffffffffffffffffffffffffffff166000809054906101000a900473ffffffffffffffffffffffffffffffffffffffff1673ffffffffffffffffffffffffffffffffffffffff167f8be0079c531659141344cd1fd0a4f28419497f9722a3daafe3b4186f6b6457e060405160405180910390a3806000806101000a81548173ffffffffffffffffffffffffffffffffffffffff021916908373ffffffffffffffffffffffffffffffffffffffff16021790555050565b60006121ce8260ff16846121d690919063ffffffff16565b905092915050565b600080821115156121e657600080fd5b600082848115156121f357fe5b0490508091505092915050565b6000806006809054906101000a900473ffffffffffffffffffffffffffffffffffffffff1673ffffffffffffffffffffffffffffffffffffffff166306f2bf62856040518263ffffffff167c0100000000000000000000000000000000000000000000000000000000028152600401808273ffffffffffffffffffffffffffffffffffffffff1673ffffffffffffffffffffffffffffffffffffffff16815260200191505060206040518083038186803b1580156122bd57600080fd5b505afa1580156122d1573d6000803e3d6000fd5b505050506040513d60208110156122e757600080fd5b810190808051906020019092919050505090506000819050600060019050600061012c420190508273ffffffffffffffffffffffffffffffffffffffff1663ad65d76d8784848c6040518563ffffffff167c0100000000000000000000000000000000000000000000000000000000028152600401808481526020018381526020018273ffffffffffffffffffffffffffffffffffffffff1673ffffffffffffffffffffffffffffffffffffffff16815260200193505050506020604051808303818588803b1580156123b957600080fd5b505af11580156123cd573d6000803e3d6000fd5b50505050506040513d60208110156123e457600080fd5b81019080805190602001909291905050509450505050509392505050565b61012060405190810160405280600073ffffffffffffffffffffffffffffffffffffffff168152602001600073ffffffffffffffffffffffffffffffffffffffff1681526020016000815260200160008152602001600081526020016000815260200160008152602001600060ff168152602001600060ff168152509056fea165627a7a72305820726d5efe77029b19f9a4897d10eac10b2915d3cffd641b0e0c5517205f0a41f80029",
  "source": "pragma solidity ^0.5.2;\n\nimport '../node_modules/openzeppelin-solidity/contracts/ownership/Ownable.sol';\nimport '../node_modules/openzeppelin-solidity/contracts/math/SafeMath.sol';\nimport './UniswapFactoryInterface.sol';\nimport './UniswapExchangeInterface.sol';\n\ncontract CostAverageOrderBook is Ownable {\n    using SafeMath for uint256;\n\n    uint256 public nextId;\n    address private remoteCaller;\n    uint256 private feeBalance;\n    uint256 private feesWithdrawn;\n    uint256 public minAmount;\n    uint32 public minFrequency;\n    uint8 public minBatches;\n    uint8 public maxBatches;\n\n    UniswapFactoryInterface internal factory;\n\n    struct OrderInfo {\n        address account;\n        address targetCurrency;\n        uint256 amount;\n        uint256 frequency; // in seconds\n        uint256 lastConversionTimestamp;\n        uint256 sourceCurrencyBalance;\n        uint256 targetCurrencyConverted;\n        uint8 batches;\n        uint8 batchesExecuted;\n    }\n    mapping(uint256 => OrderInfo) public idToCostAverageOrder;\n    mapping(address => uint256[]) public accountToOrderIds;\n\n    event NewOrder(\n        address indexed _account,\n        uint256 _orderId\n    );\n\n    event OrderConversion(\n        address indexed _account,\n        uint256 _orderId\n    );\n\n    event CancelOrder(\n        address indexed _account,\n        uint256 _orderId\n    );\n\n    modifier onlyRemoteCaller() {\n        require(msg.sender == remoteCaller);\n        _;\n    }\n\n    constructor (address _uniswapFactoryAddress) public payable { // I think we need payable to instantiate the contract with ETH\n        factory = UniswapFactoryInterface(_uniswapFactoryAddress);\n        remoteCaller = msg.sender; // TODO: CHANGE TO SERVER'S WALLET\n        nextId = 1; // Set first order as 1 instead of 0\n\n        // Initial order min/max\n        maxBatches = 255;\n        minAmount = 0.1 ether;\n        minBatches = 1;\n        minFrequency = 1 hours;\n    }\n\n    function cancelOrder (uint256 _id) public {\n        OrderInfo storage order = idToCostAverageOrder[_id];\n\n        require(order.account == msg.sender);\n        require(order.sourceCurrencyBalance > 0);\n\n        uint256 refundAmount = order.sourceCurrencyBalance;\n        order.sourceCurrencyBalance = 0;\n\n        msg.sender.transfer(refundAmount);\n\n        emit CancelOrder(order.account, _id);\n    }\n\n    function createOrder (uint256 _amount, address _targetCurrency, uint256 _frequency, uint8 _batches) public payable returns (uint256 id_) {\n        require(_amount == msg.value); // Can't use this if they send DAI\n\n        // Enforce min/max for params\n        require(_amount >= minAmount);\n        require(_batches >= minBatches);\n        require(_frequency >= minFrequency);\n        require(_batches <= maxBatches);\n\n        OrderInfo memory newOrder = OrderInfo({\n            amount: _amount,\n            targetCurrency: _targetCurrency,\n            frequency: _frequency,\n            batches: _batches,\n            account: msg.sender,\n            sourceCurrencyBalance: _amount,\n            targetCurrencyConverted: 0,\n            batchesExecuted: 0,\n            lastConversionTimestamp: 0\n        });\n\n        idToCostAverageOrder[nextId] = newOrder;\n        accountToOrderIds[msg.sender].push(nextId);\n\n        emit NewOrder(msg.sender, nextId);\n\n        nextId++;\n\n        return nextId-1;\n    }\n\n    function getFeeBalance () view public onlyOwner returns (uint256 feeBalance_) {\n        feeBalance_ = feeBalance;\n    }\n\n    function getOrder (uint256 _id) view public returns (\n        uint256 id_, uint256 amount_, address targetCurrency_, uint256 frequency_, uint8 batches_,\n        uint8 batchesExecuted_, uint256 lastConversionTimestamp_, uint256 targetCurrencyConverted_,\n        uint256 sourceCurrencyBalance_) {\n        OrderInfo memory order = idToCostAverageOrder[_id];\n\n        return (_id, order.amount, order.targetCurrency, order.frequency, order.batches,\n            order.batchesExecuted, order.lastConversionTimestamp, order.targetCurrencyConverted,\n            order.sourceCurrencyBalance);\n    }\n\n    function getOrderCount () view public returns (uint256) {\n        return nextId-1;\n    }\n\n    function getOrderCountForAccount (address _account) view public returns (uint256 count_) {\n        return accountToOrderIds[_account].length;\n    }\n\n    function getOrderForAccountIndex (address _account, uint256 _index) view public returns (\n        uint256 id_, uint256 amount_, address targetCurrency_, uint256 frequency_, uint8 batches_,\n        uint8 batchesExecuted_, uint256 lastConversionTimestamp_, uint256 targetCurrencyConverted_,\n        uint256 sourceCurrencyBalance_) {\n        require(_index < getOrderCountForAccount(_account));\n\n        return getOrder(accountToOrderIds[_account][_index]);\n    }\n\n    function getOrderParamLimits() view public returns (uint256 minAmount_, uint32 minFrequency_,\n        uint8 minBatches_, uint8 maxBatches_) {\n        return (minAmount, minFrequency, minBatches, maxBatches);\n    }\n\n    // Convenience function for dapp display of contract stats\n    function getStatTotals () view external returns (uint256 orders_, uint256 conversions_, uint256 managedEth_, uint256 fees_) {\n        orders_ = getOrderCount();\n\n        conversions_ = 0;\n        for (uint256 i=1; i<=getOrderCount(); i++) {\n            OrderInfo memory order = idToCostAverageOrder[i];\n            conversions_ += order.batchesExecuted;\n        }\n\n        managedEth_ = address(this).balance.sub(feeBalance);\n        fees_ = getTotalFeesCollected();\n    }\n\n    function getTotalFeesCollected () view public returns (uint256) {\n        return feeBalance.add(feesWithdrawn);\n    }\n\n    function setMaxBatches (uint8 _maxBatches) public onlyOwner {\n        maxBatches = _maxBatches;\n    }\n\n    function setMinAmount (uint256 _minAmount) public onlyOwner {\n        minAmount = _minAmount;\n    }\n\n    function setMinBatches (uint8 _minBatches) public onlyOwner {\n        minBatches = _minBatches;\n    }\n\n    function setMinFrequency (uint32 _minFrequency) public onlyOwner {\n        minFrequency = _minFrequency;\n    }\n\n    function setRemoteCaller (address _remoteCaller) public onlyOwner {\n        remoteCaller = _remoteCaller;\n    }\n\n    function withdrawFees () public onlyOwner {\n        require (feeBalance > 0);\n\n        uint256 withdrawalAmount = feeBalance;\n        feeBalance = 0;\n        feesWithdrawn.add(withdrawalAmount);\n\n        msg.sender.transfer(withdrawalAmount);\n    }\n\n\n    /*** Uniswap conversion logic ***/\n\n    function checkConversionDue (uint256 _id) view public returns (bool) {\n        OrderInfo memory order = idToCostAverageOrder[_id];\n\n        // Check if there is a balance of source currency\n        if (order.sourceCurrencyBalance <= 0) return false;\n\n        // Check if there should be batches remaining\n        if (order.batchesExecuted >= order.batches) return false;\n\n        // Check if the first conversion has been executed\n        if (order.lastConversionTimestamp == 0) return true;\n\n        // Check if enough time has elapsed to execute the next conversion\n        uint256 timeDelta = now - order.lastConversionTimestamp;\n        if (timeDelta < order.frequency) return false;\n\n        return true;\n    }\n\n    function checkConversionDueAll() view external onlyRemoteCaller returns (uint256[] memory) {\n        uint256 totalOrderCount = getOrderCount();\n        require(totalOrderCount > 0);\n\n        uint256[] memory coversionDueMap = new uint256[](totalOrderCount);\n\n        for (uint256 i=1; i<=totalOrderCount; i++) {\n            if (checkConversionDue(i) == true) coversionDueMap[i-1] = i;\n        }\n\n        return coversionDueMap;\n    }\n\n    function checkConversionDueBatch(uint256 _idStart, uint16 _count) view external onlyRemoteCaller returns (uint256[] memory) {\n        uint256 totalOrderCount = getOrderCount();\n        require(_idStart > 0);\n        require(_idStart <= totalOrderCount);\n\n        uint256[] memory coversionDueMap = new uint256[](_count);\n\n        for (uint256 i=0; i<_count && _idStart.add(i) <= totalOrderCount; i++) {\n            if (checkConversionDue(_idStart.add(i)) == true) coversionDueMap[i] = _idStart.add(i);\n        }\n\n        return coversionDueMap;\n    }\n\n    function convertCurrency(uint256 _id) private {\n        OrderInfo storage order = idToCostAverageOrder[_id];\n\n        uint256 batchValue = valuePerBatch(order.amount, order.batches);\n\n        // In case the batchValue is somehow more than the balance, use the remainder\n        if (order.sourceCurrencyBalance < batchValue) batchValue = order.sourceCurrencyBalance;\n\n        // Update all values possible before performing conversion\n        order.sourceCurrencyBalance -= batchValue;\n        order.batchesExecuted += 1;\n        order.lastConversionTimestamp = now;\n\n        // Impose the fee here\n        uint256 fee = batchValue.div(200); // 0.5%\n        feeBalance += fee;\n\n        // ETH converted to tokens here\n        uint256 amountReceived = exchangeCurrency(order.account, order.targetCurrency, batchValue.sub(fee));\n\n        // Update total tokens converted\n        order.targetCurrencyConverted += amountReceived;\n\n        emit OrderConversion(order.account, _id);\n    }\n\n    function exchangeCurrency(address _account, address _targetCurrency, uint256 _amountSourceCurrency) private returns (uint256 amountReceived_) {\n        // Set up the Uniswap exchange interface by finding the token's address via the factory\n        address exchangeAddress = factory.getExchange(_targetCurrency);\n        UniswapExchangeInterface exchange = UniswapExchangeInterface(exchangeAddress);\n\n        uint256 min_tokens = 1; // TODO: implement this correctly, see \"sell order\" logic in docs\n        uint256 deadline = now + 300; // this is the value in the docs; used so nodes can't hold off on unsigned txs and wait for optimal times to sell/arbitrage\n        amountReceived_ = exchange.ethToTokenTransferInput.value(_amountSourceCurrency)(min_tokens, deadline, _account);\n    }\n\n    // Execute converstions 1-by-1\n    function executeDueConversion (uint256 _id) public onlyRemoteCaller {\n        if (checkConversionDue(_id) == true) {\n            convertCurrency(_id);\n        }\n    }\n\n    // Execute conversions en masse\n    function executeDueConversions () external onlyRemoteCaller {\n        for (uint256 i=1; i<=getOrderCount(); i++) {\n            executeDueConversion(i);\n        }\n    }\n\n    function valuePerBatch(uint256 _amount, uint8 _batches) pure internal returns (uint256) {\n        return _amount.div(_batches);\n    }\n}\n",
  "sourcePath": "/Users/seancasey/Sites/studytheblockchain/projects/final-project/contracts/CostAverageOrderBook.sol",
  "compiler": {
    "name": "solc",
    "version": "0.5.2+commit.1df8f40c.Emscripten.clang"
  },
  "schemaVersion": "3.0.6",
  "updatedAt": "2019-05-27T20:30:25.579Z",
  "devdoc": {
    "methods": {
      "isOwner()": {
        "return": "true if `msg.sender` is the owner of the contract."
      },
      "owner()": {
        "return": "the address of the owner."
      },
      "renounceOwnership()": {
        "details": "Allows the current owner to relinquish control of the contract. It will not be possible to call the functions with the `onlyOwner` modifier anymore."
      },
      "transferOwnership(address)": {
        "details": "Allows the current owner to transfer control of the contract to a newOwner.",
        "params": {
          "newOwner": "The address to transfer ownership to."
        }
      }
    }
  },
  "userdoc": {
    "methods": {
      "checkConversionDue(uint256)": {
        "notice": "* Uniswap conversion logic **"
      },
      "renounceOwnership()": {
        "notice": "Renouncing ownership will leave the contract without an owner, thereby removing any functionality that is only available to the owner."
      }
    }
  }
}