{
  "contractName": "FakeComptroller",
  "abi": [
    {
      "constant": true,
      "inputs": [],
      "name": "isComptroller",
      "outputs": [
        {
          "name": "",
          "type": "bool"
        }
      ],
      "payable": false,
      "stateMutability": "view",
      "type": "function"
    },
    {
      "constant": false,
      "inputs": [
        {
          "name": "cToken",
          "type": "address"
        },
        {
          "name": "payer",
          "type": "address"
        },
        {
          "name": "borrower",
          "type": "address"
        },
        {
          "name": "repayAmount",
          "type": "uint256"
        },
        {
          "name": "borrowerIndex",
          "type": "uint256"
        }
      ],
      "name": "repayBorrowVerify",
      "outputs": [],
      "payable": false,
      "stateMutability": "nonpayable",
      "type": "function"
    },
    {
      "constant": false,
      "inputs": [
        {
          "name": "cToken",
          "type": "address"
        },
        {
          "name": "payer",
          "type": "address"
        },
        {
          "name": "borrower",
          "type": "address"
        },
        {
          "name": "repayAmount",
          "type": "uint256"
        }
      ],
      "name": "repayBorrowAllowed",
      "outputs": [
        {
          "name": "",
          "type": "uint256"
        }
      ],
      "payable": false,
      "stateMutability": "nonpayable",
      "type": "function"
    },
    {
      "constant": true,
      "inputs": [],
      "name": "pendingAdmin",
      "outputs": [
        {
          "name": "",
          "type": "address"
        }
      ],
      "payable": false,
      "stateMutability": "view",
      "type": "function"
    },
    {
      "constant": false,
      "inputs": [
        {
          "name": "newCloseFactorMantissa",
          "type": "uint256"
        }
      ],
      "name": "_setCloseFactor",
      "outputs": [
        {
          "name": "",
          "type": "uint256"
        }
      ],
      "payable": false,
      "stateMutability": "nonpayable",
      "type": "function"
    },
    {
      "constant": false,
      "inputs": [
        {
          "name": "unitroller",
          "type": "address"
        },
        {
          "name": "_oracle",
          "type": "address"
        },
        {
          "name": "_closeFactorMantissa",
          "type": "uint256"
        },
        {
          "name": "_maxAssets",
          "type": "uint256"
        },
        {
          "name": "reinitializing",
          "type": "bool"
        }
      ],
      "name": "_become",
      "outputs": [],
      "payable": false,
      "stateMutability": "nonpayable",
      "type": "function"
    },
    {
      "constant": false,
      "inputs": [
        {
          "name": "cToken",
          "type": "address"
        },
        {
          "name": "minter",
          "type": "address"
        },
        {
          "name": "mintAmount",
          "type": "uint256"
        },
        {
          "name": "mintTokens",
          "type": "uint256"
        }
      ],
      "name": "mintVerify",
      "outputs": [],
      "payable": false,
      "stateMutability": "nonpayable",
      "type": "function"
    },
    {
      "constant": false,
      "inputs": [
        {
          "name": "cTokenBorrowed",
          "type": "address"
        },
        {
          "name": "cTokenCollateral",
          "type": "address"
        },
        {
          "name": "liquidator",
          "type": "address"
        },
        {
          "name": "borrower",
          "type": "address"
        },
        {
          "name": "repayAmount",
          "type": "uint256"
        },
        {
          "name": "seizeTokens",
          "type": "uint256"
        }
      ],
      "name": "liquidateBorrowVerify",
      "outputs": [],
      "payable": false,
      "stateMutability": "nonpayable",
      "type": "function"
    },
    {
      "constant": true,
      "inputs": [],
      "name": "liquidationIncentiveMantissa",
      "outputs": [
        {
          "name": "",
          "type": "uint256"
        }
      ],
      "payable": false,
      "stateMutability": "view",
      "type": "function"
    },
    {
      "constant": false,
      "inputs": [
        {
          "name": "cToken",
          "type": "address"
        },
        {
          "name": "minter",
          "type": "address"
        },
        {
          "name": "mintAmount",
          "type": "uint256"
        }
      ],
      "name": "mintAllowed",
      "outputs": [
        {
          "name": "",
          "type": "uint256"
        }
      ],
      "payable": false,
      "stateMutability": "nonpayable",
      "type": "function"
    },
    {
      "constant": false,
      "inputs": [
        {
          "name": "newLiquidationIncentiveMantissa",
          "type": "uint256"
        }
      ],
      "name": "_setLiquidationIncentive",
      "outputs": [
        {
          "name": "",
          "type": "uint256"
        }
      ],
      "payable": false,
      "stateMutability": "nonpayable",
      "type": "function"
    },
    {
      "constant": false,
      "inputs": [
        {
          "name": "cToken",
          "type": "address"
        },
        {
          "name": "redeemer",
          "type": "address"
        },
        {
          "name": "redeemAmount",
          "type": "uint256"
        },
        {
          "name": "redeemTokens",
          "type": "uint256"
        }
      ],
      "name": "redeemVerify",
      "outputs": [],
      "payable": false,
      "stateMutability": "nonpayable",
      "type": "function"
    },
    {
      "constant": false,
      "inputs": [
        {
          "name": "newOracle",
          "type": "address"
        }
      ],
      "name": "_setPriceOracle",
      "outputs": [
        {
          "name": "",
          "type": "uint256"
        }
      ],
      "payable": false,
      "stateMutability": "nonpayable",
      "type": "function"
    },
    {
      "constant": false,
      "inputs": [
        {
          "name": "cToken",
          "type": "address"
        },
        {
          "name": "borrower",
          "type": "address"
        },
        {
          "name": "borrowAmount",
          "type": "uint256"
        }
      ],
      "name": "borrowVerify",
      "outputs": [],
      "payable": false,
      "stateMutability": "nonpayable",
      "type": "function"
    },
    {
      "constant": true,
      "inputs": [
        {
          "name": "account",
          "type": "address"
        }
      ],
      "name": "getAccountLiquidity",
      "outputs": [
        {
          "name": "",
          "type": "uint256"
        },
        {
          "name": "",
          "type": "uint256"
        },
        {
          "name": "",
          "type": "uint256"
        }
      ],
      "payable": false,
      "stateMutability": "view",
      "type": "function"
    },
    {
      "constant": false,
      "inputs": [
        {
          "name": "cTokenBorrowed",
          "type": "address"
        },
        {
          "name": "cTokenCollateral",
          "type": "address"
        },
        {
          "name": "liquidator",
          "type": "address"
        },
        {
          "name": "borrower",
          "type": "address"
        },
        {
          "name": "repayAmount",
          "type": "uint256"
        }
      ],
      "name": "liquidateBorrowAllowed",
      "outputs": [
        {
          "name": "",
          "type": "uint256"
        }
      ],
      "payable": false,
      "stateMutability": "nonpayable",
      "type": "function"
    },
    {
      "constant": false,
      "inputs": [
        {
          "name": "cToken",
          "type": "address"
        },
        {
          "name": "src",
          "type": "address"
        },
        {
          "name": "dst",
          "type": "address"
        },
        {
          "name": "transferTokens",
          "type": "uint256"
        }
      ],
      "name": "transferVerify",
      "outputs": [],
      "payable": false,
      "stateMutability": "nonpayable",
      "type": "function"
    },
    {
      "constant": false,
      "inputs": [
        {
          "name": "cTokenCollateral",
          "type": "address"
        },
        {
          "name": "cTokenBorrowed",
          "type": "address"
        },
        {
          "name": "liquidator",
          "type": "address"
        },
        {
          "name": "borrower",
          "type": "address"
        },
        {
          "name": "seizeTokens",
          "type": "uint256"
        }
      ],
      "name": "seizeVerify",
      "outputs": [],
      "payable": false,
      "stateMutability": "nonpayable",
      "type": "function"
    },
    {
      "constant": true,
      "inputs": [],
      "name": "oracle",
      "outputs": [
        {
          "name": "",
          "type": "address"
        }
      ],
      "payable": false,
      "stateMutability": "view",
      "type": "function"
    },
    {
      "constant": true,
      "inputs": [
        {
          "name": "",
          "type": "address"
        }
      ],
      "name": "markets",
      "outputs": [
        {
          "name": "isListed",
          "type": "bool"
        },
        {
          "name": "collateralFactorMantissa",
          "type": "uint256"
        }
      ],
      "payable": false,
      "stateMutability": "view",
      "type": "function"
    },
    {
      "constant": true,
      "inputs": [
        {
          "name": "account",
          "type": "address"
        },
        {
          "name": "cToken",
          "type": "address"
        }
      ],
      "name": "checkMembership",
      "outputs": [
        {
          "name": "",
          "type": "bool"
        }
      ],
      "payable": false,
      "stateMutability": "view",
      "type": "function"
    },
    {
      "constant": true,
      "inputs": [],
      "name": "maxAssets",
      "outputs": [
        {
          "name": "",
          "type": "uint256"
        }
      ],
      "payable": false,
      "stateMutability": "view",
      "type": "function"
    },
    {
      "constant": false,
      "inputs": [
        {
          "name": "cToken",
          "type": "address"
        }
      ],
      "name": "_supportMarket",
      "outputs": [
        {
          "name": "",
          "type": "uint256"
        }
      ],
      "payable": false,
      "stateMutability": "nonpayable",
      "type": "function"
    },
    {
      "constant": true,
      "inputs": [
        {
          "name": "account",
          "type": "address"
        }
      ],
      "name": "getAssetsIn",
      "outputs": [
        {
          "name": "",
          "type": "address[]"
        }
      ],
      "payable": false,
      "stateMutability": "view",
      "type": "function"
    },
    {
      "constant": true,
      "inputs": [],
      "name": "comptrollerImplementation",
      "outputs": [
        {
          "name": "",
          "type": "address"
        }
      ],
      "payable": false,
      "stateMutability": "view",
      "type": "function"
    },
    {
      "constant": false,
      "inputs": [
        {
          "name": "cToken",
          "type": "address"
        },
        {
          "name": "src",
          "type": "address"
        },
        {
          "name": "dst",
          "type": "address"
        },
        {
          "name": "transferTokens",
          "type": "uint256"
        }
      ],
      "name": "transferAllowed",
      "outputs": [
        {
          "name": "",
          "type": "uint256"
        }
      ],
      "payable": false,
      "stateMutability": "nonpayable",
      "type": "function"
    },
    {
      "constant": false,
      "inputs": [
        {
          "name": "cTokens",
          "type": "address[]"
        }
      ],
      "name": "enterMarkets",
      "outputs": [
        {
          "name": "",
          "type": "uint256[]"
        }
      ],
      "payable": false,
      "stateMutability": "nonpayable",
      "type": "function"
    },
    {
      "constant": true,
      "inputs": [
        {
          "name": "cTokenBorrowed",
          "type": "address"
        },
        {
          "name": "cTokenCollateral",
          "type": "address"
        },
        {
          "name": "repayAmount",
          "type": "uint256"
        }
      ],
      "name": "liquidateCalculateSeizeTokens",
      "outputs": [
        {
          "name": "",
          "type": "uint256"
        },
        {
          "name": "",
          "type": "uint256"
        }
      ],
      "payable": false,
      "stateMutability": "view",
      "type": "function"
    },
    {
      "constant": false,
      "inputs": [
        {
          "name": "cTokenCollateral",
          "type": "address"
        },
        {
          "name": "cTokenBorrowed",
          "type": "address"
        },
        {
          "name": "liquidator",
          "type": "address"
        },
        {
          "name": "borrower",
          "type": "address"
        },
        {
          "name": "seizeTokens",
          "type": "uint256"
        }
      ],
      "name": "seizeAllowed",
      "outputs": [
        {
          "name": "",
          "type": "uint256"
        }
      ],
      "payable": false,
      "stateMutability": "nonpayable",
      "type": "function"
    },
    {
      "constant": false,
      "inputs": [
        {
          "name": "newMaxAssets",
          "type": "uint256"
        }
      ],
      "name": "_setMaxAssets",
      "outputs": [
        {
          "name": "",
          "type": "uint256"
        }
      ],
      "payable": false,
      "stateMutability": "nonpayable",
      "type": "function"
    },
    {
      "constant": false,
      "inputs": [
        {
          "name": "cToken",
          "type": "address"
        },
        {
          "name": "borrower",
          "type": "address"
        },
        {
          "name": "borrowAmount",
          "type": "uint256"
        }
      ],
      "name": "borrowAllowed",
      "outputs": [
        {
          "name": "",
          "type": "uint256"
        }
      ],
      "payable": false,
      "stateMutability": "nonpayable",
      "type": "function"
    },
    {
      "constant": true,
      "inputs": [
        {
          "name": "",
          "type": "address"
        },
        {
          "name": "",
          "type": "uint256"
        }
      ],
      "name": "accountAssets",
      "outputs": [
        {
          "name": "",
          "type": "address"
        }
      ],
      "payable": false,
      "stateMutability": "view",
      "type": "function"
    },
    {
      "constant": true,
      "inputs": [],
      "name": "pendingComptrollerImplementation",
      "outputs": [
        {
          "name": "",
          "type": "address"
        }
      ],
      "payable": false,
      "stateMutability": "view",
      "type": "function"
    },
    {
      "constant": false,
      "inputs": [
        {
          "name": "cToken",
          "type": "address"
        },
        {
          "name": "newCollateralFactorMantissa",
          "type": "uint256"
        }
      ],
      "name": "_setCollateralFactor",
      "outputs": [
        {
          "name": "",
          "type": "uint256"
        }
      ],
      "payable": false,
      "stateMutability": "nonpayable",
      "type": "function"
    },
    {
      "constant": true,
      "inputs": [],
      "name": "closeFactorMantissa",
      "outputs": [
        {
          "name": "",
          "type": "uint256"
        }
      ],
      "payable": false,
      "stateMutability": "view",
      "type": "function"
    },
    {
      "constant": false,
      "inputs": [
        {
          "name": "cToken",
          "type": "address"
        },
        {
          "name": "redeemer",
          "type": "address"
        },
        {
          "name": "redeemTokens",
          "type": "uint256"
        }
      ],
      "name": "redeemAllowed",
      "outputs": [
        {
          "name": "",
          "type": "uint256"
        }
      ],
      "payable": false,
      "stateMutability": "nonpayable",
      "type": "function"
    },
    {
      "constant": false,
      "inputs": [
        {
          "name": "cTokenAddress",
          "type": "address"
        }
      ],
      "name": "exitMarket",
      "outputs": [
        {
          "name": "",
          "type": "uint256"
        }
      ],
      "payable": false,
      "stateMutability": "nonpayable",
      "type": "function"
    },
    {
      "constant": true,
      "inputs": [],
      "name": "admin",
      "outputs": [
        {
          "name": "",
          "type": "address"
        }
      ],
      "payable": false,
      "stateMutability": "view",
      "type": "function"
    },
    {
      "anonymous": false,
      "inputs": [
        {
          "indexed": false,
          "name": "cToken",
          "type": "address"
        }
      ],
      "name": "MarketListed",
      "type": "event"
    },
    {
      "anonymous": false,
      "inputs": [
        {
          "indexed": false,
          "name": "cToken",
          "type": "address"
        },
        {
          "indexed": false,
          "name": "account",
          "type": "address"
        }
      ],
      "name": "MarketEntered",
      "type": "event"
    },
    {
      "anonymous": false,
      "inputs": [
        {
          "indexed": false,
          "name": "cToken",
          "type": "address"
        },
        {
          "indexed": false,
          "name": "account",
          "type": "address"
        }
      ],
      "name": "MarketExited",
      "type": "event"
    },
    {
      "anonymous": false,
      "inputs": [
        {
          "indexed": false,
          "name": "oldCloseFactorMantissa",
          "type": "uint256"
        },
        {
          "indexed": false,
          "name": "newCloseFactorMantissa",
          "type": "uint256"
        }
      ],
      "name": "NewCloseFactor",
      "type": "event"
    },
    {
      "anonymous": false,
      "inputs": [
        {
          "indexed": false,
          "name": "cToken",
          "type": "address"
        },
        {
          "indexed": false,
          "name": "oldCollateralFactorMantissa",
          "type": "uint256"
        },
        {
          "indexed": false,
          "name": "newCollateralFactorMantissa",
          "type": "uint256"
        }
      ],
      "name": "NewCollateralFactor",
      "type": "event"
    },
    {
      "anonymous": false,
      "inputs": [
        {
          "indexed": false,
          "name": "oldLiquidationIncentiveMantissa",
          "type": "uint256"
        },
        {
          "indexed": false,
          "name": "newLiquidationIncentiveMantissa",
          "type": "uint256"
        }
      ],
      "name": "NewLiquidationIncentive",
      "type": "event"
    },
    {
      "anonymous": false,
      "inputs": [
        {
          "indexed": false,
          "name": "oldMaxAssets",
          "type": "uint256"
        },
        {
          "indexed": false,
          "name": "newMaxAssets",
          "type": "uint256"
        }
      ],
      "name": "NewMaxAssets",
      "type": "event"
    },
    {
      "anonymous": false,
      "inputs": [
        {
          "indexed": false,
          "name": "oldPriceOracle",
          "type": "address"
        },
        {
          "indexed": false,
          "name": "newPriceOracle",
          "type": "address"
        }
      ],
      "name": "NewPriceOracle",
      "type": "event"
    },
    {
      "anonymous": false,
      "inputs": [
        {
          "indexed": false,
          "name": "error",
          "type": "uint256"
        },
        {
          "indexed": false,
          "name": "info",
          "type": "uint256"
        },
        {
          "indexed": false,
          "name": "detail",
          "type": "uint256"
        }
      ],
      "name": "Failure",
      "type": "event"
    }
  ],
  "bytecode": "0x6080604052600080546001600160a01b03191633179055612d15806100256000396000f3fe608060405234801561001057600080fd5b50600436106102315760003560e01c80638e8f294b11610130578063d02f7351116100b8578063e4028eee1161007c578063e4028eee1461090e578063e87554461461093a578063eabe7d9114610942578063ede4edd014610978578063f851a4401461099e57610231565b8063d02f735114610841578063d9226ced14610887578063da3d454c146108a4578063dce15449146108da578063dcfbc0c71461090657610231565b8063abfceffc116100ff578063abfceffc14610695578063bb82aa5e1461070b578063bdcdc25814610713578063c29982381461074f578063c488847b146107f257610231565b80638e8f294b146105f8578063929fe9a11461063957806394b2294b14610667578063a76b3fda1461066f57610231565b80634ef4c3e1116101be5780635ec88c79116101825780635ec88c79146104e45780635fc7e71e146105285780636a56947e1461056e5780636d35bf91146105aa5780637dc0d1d0146105f057610231565b80634ef4c3e1146103f95780634fd42e171461042f57806351dff9891461044c57806355ee1fe1146104885780635c778605146104ae57610231565b8063317b0b7711610205578063317b0b771461030857806332000e001461032557806341c728b91461036957806347ef3b3b146103a55780634ada90af146103f157610231565b80627e3dd2146102365780631ededc911461025257806324008a621461029657806326782247146102e4575b600080fd5b61023e6109a6565b604080519115158252519081900360200190f35b610294600480360360a081101561026857600080fd5b506001600160a01b038135811691602081013582169160408201351690606081013590608001356109ab565b005b6102d2600480360360808110156102ac57600080fd5b506001600160a01b038135811691602081013582169160408201351690606001356109b2565b60408051918252519081900360200190f35b6102ec6109e8565b604080516001600160a01b039092168252519081900360200190f35b6102d26004803603602081101561031e57600080fd5b50356109f7565b610294600480360360a081101561033b57600080fd5b506001600160a01b038135811691602081013590911690604081013590606081013590608001351515610b05565b6102946004803603608081101561037f57600080fd5b506001600160a01b03813581169160208101359091169060408101359060600135610fcd565b610294600480360360c08110156103bb57600080fd5b506001600160a01b0381358116916020810135821691604082013581169160608101359091169060808101359060a00135610fd3565b6102d2610fd8565b6102d26004803603606081101561040f57600080fd5b506001600160a01b03813581169160208101359091169060400135610fde565b6102d26004803603602081101561044557600080fd5b5035611015565b6102946004803603608081101561046257600080fd5b506001600160a01b03813581169160208101359091169060408101359060600135611104565b6102d26004803603602081101561049e57600080fd5b50356001600160a01b0316611167565b610294600480360360608110156104c457600080fd5b506001600160a01b038135811691602081013590911690604001356111e9565b61050a600480360360208110156104fa57600080fd5b50356001600160a01b03166111ee565b60408051938452602084019290925282820152519081900360600190f35b6102d2600480360360a081101561053e57600080fd5b506001600160a01b0381358116916020810135821691604082013581169160608101359091169060800135611223565b6102946004803603608081101561058457600080fd5b506001600160a01b03813581169160208101358216916040820135169060600135610fcd565b610294600480360360a08110156105c057600080fd5b506001600160a01b03813581169160208101358216916040820135811691606081013590911690608001356109ab565b6102ec6113aa565b61061e6004803603602081101561060e57600080fd5b50356001600160a01b03166113b9565b60408051921515835260208301919091528051918290030190f35b61023e6004803603604081101561064f57600080fd5b506001600160a01b03813581169160200135166113d8565b6102d261140c565b6102d26004803603602081101561068557600080fd5b50356001600160a01b0316611412565b6106bb600480360360208110156106ab57600080fd5b50356001600160a01b0316611541565b60408051602080825283518183015283519192839290830191858101910280838360005b838110156106f75781810151838201526020016106df565b505050509050019250505060405180910390f35b6102ec6115ca565b6102d26004803603608081101561072957600080fd5b506001600160a01b038135811691602081013582169160408201351690606001356115d9565b6106bb6004803603602081101561076557600080fd5b81019060208101813564010000000081111561078057600080fd5b82018360208201111561079257600080fd5b803590602001918460208302840111640100000000831117156107b457600080fd5b9190808060200260200160405190810160405280939291908181526020018383602002808284376000920191909152509295506115e6945050505050565b6108286004803603606081101561080857600080fd5b506001600160a01b0381358116916020810135909116906040013561178a565b6040805192835260208301919091528051918290030190f35b6102d2600480360360a081101561085757600080fd5b506001600160a01b0381358116916020810135821691604082013581169160608101359091169060800135611a05565b6102d26004803603602081101561089d57600080fd5b5035611b4b565b6102d2600480360360608110156108ba57600080fd5b506001600160a01b03813581169160208101359091169060400135611baf565b6102ec600480360360408110156108f057600080fd5b506001600160a01b038135169060200135611ce6565b6102ec611d1b565b6102d26004803603604081101561092457600080fd5b506001600160a01b038135169060200135611d2a565b6102d2611edd565b6102d26004803603606081101561095857600080fd5b506001600160a01b03813581169160208101359091169060400135611ee3565b6102d26004803603602081101561098e57600080fd5b50356001600160a01b0316611ef0565b6102ec612206565b600181565b5050505050565b6001600160a01b03841660009081526009602052604081205460ff166109da575060096109e0565b60005b90505b949350505050565b6001546001600160a01b031681565b6000610a01612215565b610a1857610a1160016004612260565b9050610b00565b610a20612bde565b506040805160208101909152828152610a37612bde565b50604080516020810190915266b1a2bc2ec500008152610a5782826122c6565b15610a7057610a67600580612260565b92505050610b00565b610a78612bde565b506040805160208101909152670c7d713b49da00008152610a9981846122ce565b15610ab357610aa9600580612260565b9350505050610b00565b6005805490869055604080518281526020810188905281517f3b9670cf975d26958e754b57098eaa2ac914d8d2a31b83257997b9f346110fd9929181900390910190a160005b9450505050505b919050565b846001600160a01b031663f851a4406040518163ffffffff1660e01b815260040160206040518083038186803b158015610b3e57600080fd5b505afa158015610b52573d6000803e3d6000fd5b505050506040513d6020811015610b6857600080fd5b50516001600160a01b03163314610bb357604051600160e51b62461bcd028152600401808060200182810382526027815260200180612cc36027913960400191505060405180910390fd5b6000856001600160a01b031663c1e803346040518163ffffffff1660e01b8152600401602060405180830381600087803b158015610bf057600080fd5b505af1158015610c04573d6000803e3d6000fd5b505050506040513d6020811015610c1a57600080fd5b505190508015610c745760408051600160e51b62461bcd02815260206004820152601560248201527f6368616e6765206e6f7420617574686f72697a65640000000000000000000000604482015290519081900360640190fd5b81610fc55760008690506000816001600160a01b03166355ee1fe1886040518263ffffffff1660e01b815260040180826001600160a01b03166001600160a01b03168152602001915050602060405180830381600087803b158015610cd857600080fd5b505af1158015610cec573d6000803e3d6000fd5b505050506040513d6020811015610d0257600080fd5b505190508015610d5c5760408051600160e51b62461bcd02815260206004820152601660248201527f736574207072696365206f7261636c65206572726f7200000000000000000000604482015290519081900360640190fd5b816001600160a01b031663317b0b77876040518263ffffffff1660e01b815260040180828152602001915050602060405180830381600087803b158015610da257600080fd5b505af1158015610db6573d6000803e3d6000fd5b505050506040513d6020811015610dcc57600080fd5b505190508015610e265760408051600160e51b62461bcd02815260206004820152601660248201527f73657420636c6f736520666163746f72206572726f7200000000000000000000604482015290519081900360640190fd5b816001600160a01b031663d9226ced866040518263ffffffff1660e01b815260040180828152602001915050602060405180830381600087803b158015610e6c57600080fd5b505af1158015610e80573d6000803e3d6000fd5b505050506040513d6020811015610e9657600080fd5b505190508015610ef05760408051600160e51b62461bcd02815260206004820152601560248201527f736574206d61782061737373657473206572726f720000000000000000000000604482015290519081900360640190fd5b816001600160a01b0316634fd42e17670de0b6b3a76400006040518263ffffffff1660e01b815260040180828152602001915050602060405180830381600087803b158015610f3e57600080fd5b505af1158015610f52573d6000803e3d6000fd5b505050506040513d6020811015610f6857600080fd5b505190508015610fc25760408051600160e51b62461bcd02815260206004820152601f60248201527f736574206c69717569646174696f6e20696e63656e74697665206572726f7200604482015290519081900360640190fd5b50505b505050505050565b50505050565b610fc5565b60065481565b6001600160a01b03831660009081526009602052604081205460ff166110085760095b905061100e565b60005b90505b9392505050565b600061101f612215565b61102f57610a116001600b612260565b611037612bde565b50604080516020810190915282815261104e612bde565b506040805160208101909152670de0b6b3a7640000815261106f82826122ce565b1561108057610a676007600c612260565b611088612bde565b5060408051602081019091526714d1120d7b16000081526110a981846122ce565b156110ba57610aa96007600c612260565b6006805490869055604080518281526020810188905281517faeba5a6c40a8ac138134bff1aaa65debf25971188a58804bad717f82f0ec1316929181900390910190a16000610af9565b801580156111125750600082115b15610fcd5760408051600160e51b62461bcd02815260206004820152601160248201527f72656465656d546f6b656e73207a65726f000000000000000000000000000000604482015290519081900360640190fd5b6000611171612215565b61118157610a1160016010612260565b600480546001600160a01b038481166001600160a01b0319831681179093556040805191909216808252602082019390935281517fd52b2b9b7e9ee655fcb95d2e5b9e0c9f69e7ef2b8e9d2d0ea78402d576d22e22929181900390910190a160009392505050565b505050565b6000806000806000806112058760008060006122d5565b92509250925082601181111561121757fe5b97919650945092505050565b6001600160a01b03851660009081526009602052604081205460ff16158061126457506001600160a01b03851660009081526009602052604090205460ff16155b156112735760095b90506113a1565b60008061127f856126fd565b9193509091506000905082601181111561129557fe5b146112af578160118111156112a657fe5b925050506113a1565b806112bb5760036112a6565b6000886001600160a01b03166395dd9193876040518263ffffffff1660e01b815260040180826001600160a01b03166001600160a01b0316815260200191505060206040518083038186803b15801561131357600080fd5b505afa158015611327573d6000803e3d6000fd5b505050506040513d602081101561133d57600080fd5b5051604080516020810190915260055481529091506000908190611361908461271d565b9092509050600082600381111561137457fe5b1461138857600b5b955050505050506113a1565b8087111561139757601161137c565b6000955050505050505b95945050505050565b6004546001600160a01b031681565b6009602052600090815260409020805460019091015460ff9091169082565b6001600160a01b038082166000908152600960209081526040808320938616835260029093019052205460ff165b92915050565b60075481565b600080546001600160a01b0316331461143157610a1160016012612260565b6001600160a01b03821660009081526009602052604090205460ff161561145e57610a11600a6011612260565b816001600160a01b031663fe9c44ae6040518163ffffffff1660e01b815260040160206040518083038186803b15801561149757600080fd5b505afa1580156114ab573d6000803e3d6000fd5b505050506040513d60208110156114c157600080fd5b50506040805180820182526001808252600060208084018281526001600160a01b03881680845260098352928690209451855460ff1916901515178555519390920192909255825191825291517fcf583bb0c569eb967f806b11601c4cb93c10310485c67add5f8362c2f212321f929181900390910190a1600092915050565b60608060086000846001600160a01b03166001600160a01b031681526020019081526020016000208054806020026020016040519081016040528092919081815260200182805480156115bd57602002820191906000526020600020905b81546001600160a01b0316815260019091019060200180831161159f575b5093979650505050505050565b6002546001600160a01b031681565b60006109dd858584612771565b606060008251905060608160405190808252806020026020018201604052801561161a578160200160208202803883390190505b50905060005b8281101561178257600085828151811061163657fe5b6020908102919091018101516001600160a01b03811660009081526009909252604090912080549192509060ff1661168a5760095b84848151811061167757fe5b602002602001018181525050505061177a565b33600090815260028201602052604090205460ff161515600114156116b057600061166b565b60075433600090815260086020526040902054106116cf57601061166b565b3360008181526002830160209081526040808320805460ff19166001908117909155600883528184208054918201815584529282902090920180546001600160a01b0387166001600160a01b0319909116811790915582519081529081019290925280517f3ab23ab0d51cccc0c3085aec51f99228625aa1a922b3a8ca89a26b0f2027a1a59281900390910190a1600084848151811061176b57fe5b60200260200101818152505050505b600101611620565b509392505050565b6004805460408051600160e01b63fc57d4df0281526001600160a01b038781169482019490945290516000938493849391169163fc57d4df91602480820192602092909190829003018186803b1580156117e357600080fd5b505afa1580156117f7573d6000803e3d6000fd5b505050506040513d602081101561180d57600080fd5b50516004805460408051600160e01b63fc57d4df0281526001600160a01b038a8116948201949094529051939450600093929091169163fc57d4df91602480820192602092909190829003018186803b15801561186957600080fd5b505afa15801561187d573d6000803e3d6000fd5b505050506040513d602081101561189357600080fd5b505190508115806118a2575080155b156118b757600d9350600092506119fd915050565b6000866001600160a01b031663182df0f56040518163ffffffff1660e01b815260040160206040518083038186803b1580156118f257600080fd5b505afa158015611906573d6000803e3d6000fd5b505050506040513d602081101561191c57600080fd5b50519050600061192a612bde565b611932612bde565b61193a612bde565b6000611948600654896127e0565b94509050600081600381111561195a57fe5b1461197657600b5b9950600098506119fd975050505050505050565b61198087876127e0565b93509050600081600381111561199257fe5b1461199e57600b611962565b6119a8848461281b565b9250905060008160038111156119ba57fe5b146119c657600b611962565b6119d0828c61271d565b9550905060008160038111156119e257fe5b146119ee57600b611962565b60009950939750505050505050505b935093915050565b6001600160a01b03851660009081526009602052604081205460ff161580611a4657506001600160a01b03851660009081526009602052604090205460ff16155b15611a5257600961126c565b846001600160a01b0316635fe3b5676040518163ffffffff1660e01b815260040160206040518083038186803b158015611a8b57600080fd5b505afa158015611a9f573d6000803e3d6000fd5b505050506040513d6020811015611ab557600080fd5b505160408051600160e01b635fe3b56702815290516001600160a01b0392831692891691635fe3b567916004808301926020929190829003018186803b158015611afe57600080fd5b505afa158015611b12573d6000803e3d6000fd5b505050506040513d6020811015611b2857600080fd5b50516001600160a01b031614611b3f57600261126c565b60009695505050505050565b6000611b55612215565b611b6557610a116001600d612260565b6007805490839055604080518281526020810185905281517f7093cf1eb653f749c3ff531d6df7f92764536a7fa0d13530cd26e070780c32ea929181900390910190a1600061100e565b6001600160a01b03831660009081526009602052604081205460ff16611bd6576009611001565b6001600160a01b038085166000908152600960209081526040808320938716835260029093019052205460ff16611c0e576008611001565b6004805460408051600160e01b63fc57d4df0281526001600160a01b03888116948201949094529051929091169163fc57d4df91602480820192602092909190829003018186803b158015611c6257600080fd5b505afa158015611c76573d6000803e3d6000fd5b505050506040513d6020811015611c8c57600080fd5b5051611c9957600d611001565b600080611ca985876000876122d5565b91935090915060009050826011811115611cbf57fe5b14611cd957816011811115611cd057fe5b9250505061100e565b8015611b3f576004611cd0565b60086020528160005260406000208181548110611cff57fe5b6000918252602090912001546001600160a01b03169150829050565b6003546001600160a01b031681565b600080546001600160a01b03163314611d5057611d4960016006612260565b9050611406565b6001600160a01b0383166000908152600960205260409020805460ff16611d8557611d7d60096007612260565b915050611406565b611d8d612bde565b506040805160208101909152838152611da4612bde565b506040805160208101909152670c7d713b49da00008152611dc581836122ce565b15611de057611dd660066008612260565b9350505050611406565b8415801590611e6c57506004805460408051600160e01b63fc57d4df0281526001600160a01b038a8116948201949094529051929091169163fc57d4df91602480820192602092909190829003018186803b158015611e3e57600080fd5b505afa158015611e52573d6000803e3d6000fd5b505050506040513d6020811015611e6857600080fd5b5051155b15611e7d57611dd6600d6009612260565b60018301805490869055604080516001600160a01b03891681526020810183905280820188905290517f70483e6592cd5182d45ac970e05bc62cdcc90e9d8ef2c2dbe686cf383bcd7fc59181900360600190a16000979650505050505050565b60055481565b600061100b848484612771565b6000808290506000806000836001600160a01b031663c37f68e2336040518263ffffffff1660e01b815260040180826001600160a01b03166001600160a01b0316815260200191505060806040518083038186803b158015611f5157600080fd5b505afa158015611f65573d6000803e3d6000fd5b505050506040513d6080811015611f7b57600080fd5b508051602082015160409092015190945090925090508215611fd157604051600160e51b62461bcd028152600401808060200182810382526025815260200180612c9e6025913960400191505060405180910390fd5b8015611fee57611fe3600c6002612260565b945050505050610b00565b6000611ffb873385612771565b9050801561201c57612010600e600383612833565b95505050505050610b00565b6001600160a01b0385166000908152600960209081526040808320338452600281019092529091205460ff1661205b5760009650505050505050610b00565b3360009081526002820160209081526040808320805460ff1916905560088252918290208054835181840281018401909452808452606093928301828280156120cd57602002820191906000526020600020905b81546001600160a01b031681526001909101906020018083116120af575b5050835193945083925060009150505b8281101561212257896001600160a01b03168482815181106120fb57fe5b60200260200101516001600160a01b0316141561211a57809150612122565b6001016120dd565b5081811061212c57fe5b33600090815260086020526040902080548190600019810190811061214d57fe5b9060005260206000200160009054906101000a90046001600160a01b031681838154811061217757fe5b600091825260209091200180546001600160a01b0319166001600160a01b039290921691909117905580546121b0826000198301612bf1565b50604080516001600160a01b038c16815233602082015281517fe699a64c18b07ac5b7301aa273f36a2287239eb9501d81950672794afba29a0d929181900390910190a160009c9b505050505050505050505050565b6000546001600160a01b031681565b60025460009081906001600160a01b03163314801561223e57506000546001600160a01b031632145b6000549091506001600160a01b0316331480806122585750815b925050505b90565b60007f45b96fe442630264581b197e84bbada861235052c5a1aadfff9ea4e40a969aa083601181111561228f57fe5b83601381111561229b57fe5b604080519283526020830191909152600082820152519081900360600190a182601181111561100e57fe5b519051111590565b5190511090565b60008060006122e2612c15565b6001600160a01b03881660009081526008602090815260408083208054825181850281018501909352808352849360609392919083018282801561234f57602002820191906000526020600020905b81546001600160a01b03168152600190910190602001808311612331575b50939450600093505050505b81518110156126ae57600082828151811061237257fe5b60200260200101519050806001600160a01b031663c37f68e28e6040518263ffffffff1660e01b815260040180826001600160a01b03166001600160a01b0316815260200191505060806040518083038186803b1580156123d257600080fd5b505afa1580156123e6573d6000803e3d6000fd5b505050506040513d60808110156123fc57600080fd5b508051602082015160408084015160609485015160808c0152938a019390935291880191909152945084156124425750600f9750600096508695506126f3945050505050565b60408051602080820183526001600160a01b0380851660008181526009845285902060010154845260c08b01939093528351808301855260808b0151815260e08b0152600480548551600160e01b63fc57d4df02815291820194909452935192169263fc57d4df9260248083019392829003018186803b1580156124c557600080fd5b505afa1580156124d9573d6000803e3d6000fd5b505050506040513d60208110156124ef57600080fd5b505160a087018190526125135750600d9750600096508695506126f3945050505050565b604080516020810190915260a08701518152610100870181905260c087015160e088015161254092612899565b6101208801529350600084600381111561255657fe5b146125725750600b9750600096508695506126f3945050505050565b61258a866101200151876040015188600001516128f1565b87529350600084600381111561259c57fe5b146125b85750600b9750600096508695506126f3945050505050565b6125d0866101000151876060015188602001516128f1565b6020880152935060008460038111156125e557fe5b146126015750600b9750600096508695506126f3945050505050565b8b6001600160a01b0316816001600160a01b031614156126a55761262f8661012001518c88602001516128f1565b60208801529350600084600381111561264457fe5b146126605750600b9750600096508695506126f3945050505050565b6126748661010001518b88602001516128f1565b60208801529350600084600381111561268957fe5b146126a55750600b9750600096508695506126f3945050505050565b5060010161235b565b506020840151845111156126d55750505060208101519051600094500391508290506126f3565b50508151602090920151600095508594509190910391506126f39050565b9450945094915050565b60008060006127108460008060006122d5565b9250925092509193909250565b600080600061272a612bde565b612734868661293e565b9092509050600082600381111561274757fe5b14612758575091506000905061276a565b6000612763826129a6565b9350935050505b9250929050565b6001600160a01b03831660009081526009602052604081205460ff16612798576009611001565b6001600160a01b038085166000908152600960209081526040808320938716835260029093019052205460ff166127d0576000611001565b600080611ca985878660006122d5565b60006127ea612bde565b6128106040518060200160405280868152506040518060200160405280868152506129b5565b915091509250929050565b6000612825612bde565b835183516128109190612a9e565b60007f45b96fe442630264581b197e84bbada861235052c5a1aadfff9ea4e40a969aa084601181111561286257fe5b84601381111561286e57fe5b604080519283526020830191909152818101859052519081900360600190a183601181111561100b57fe5b60006128a3612bde565b60006128ad612bde565b6128b787876129b5565b909250905060008260038111156128ca57fe5b146128d95790925090506119fd565b6128e381866129b5565b935093505050935093915050565b60008060006128fe612bde565b612908878761293e565b9092509050600082600381111561291b57fe5b1461292c57509150600090506119fd565b6128e3612938826129a6565b86612b4e565b6000612948612bde565b600080612959866000015186612b74565b9092509050600082600381111561296c57fe5b1461298b5750604080516020810190915260008152909250905061276a565b60408051602081019091529081526000969095509350505050565b51670de0b6b3a7640000900490565b60006129bf612bde565b6000806129d486600001518660000151612b74565b909250905060008260038111156129e757fe5b14612a065750604080516020810190915260008152909250905061276a565b600080612a1b6706f05b59d3b2000084612b4e565b90925090506000826003811115612a2e57fe5b14612a505750604080516020810190915260008152909450925061276a915050565b600080612a6583670de0b6b3a7640000612bb3565b90925090506000826003811115612a7857fe5b14612a7f57fe5b604080516020810190915290815260009a909950975050505050505050565b6000612aa8612bde565b600080612abd86670de0b6b3a7640000612b74565b90925090506000826003811115612ad057fe5b14612aef5750604080516020810190915260008152909250905061276a565b600080612afc8388612bb3565b90925090506000826003811115612b0f57fe5b14612b315750604080516020810190915260008152909450925061276a915050565b604080516020810190915290815260009890975095505050505050565b600080838301848110612b665760009250905061276a565b50600291506000905061276a565b60008083612b875750600090508061276a565b83830283858281612b9457fe5b0414612ba85750600291506000905061276a565b60009250905061276a565b60008082612bc7575060019050600061276a565b6000838581612bd257fe5b04915091509250929050565b6040518060200160405280600081525090565b8154818355818111156111e9576000838152602090206111e9918101908301612c7f565b604051806101400160405280600081526020016000815260200160008152602001600081526020016000815260200160008152602001612c53612bde565b8152602001612c60612bde565b8152602001612c6d612bde565b8152602001612c7a612bde565b905290565b61225d91905b80821115612c995760008155600101612c85565b509056fe657869744d61726b65743a206765744163636f756e74536e617073686f74206661696c65646f6e6c7920756e6974726f6c6c65722061646d696e2063616e206368616e676520627261696e73a165627a7a7230582012bd42f5019ba396d845e42920d434d625fcbc538c1b35a5b1069be198b9d8230029",
  "source": "pragma solidity 0.5.8;\n\nimport \"../../../lib/Compound/Comptroller.sol\";\n\ncontract FakeComptroller is Comptroller {}\n",
  "sourcePath": "/Users/seancasey/Sites/vulcanswap/contracts/deploy/development/Compound/FakeComptroller.sol",
  "compiler": {
    "name": "solc",
    "version": "0.5.8+commit.23d335f2.Emscripten.clang"
  },
  "schemaVersion": "3.0.16",
  "updatedAt": "2019-10-03T13:11:43.191Z",
  "devdoc": {
    "methods": {
      "_setCloseFactor(uint256)": {
        "details": "Admin function to set closeFactor",
        "params": {
          "newCloseFactorMantissa": "New close factor, scaled by 1e18"
        },
        "return": "uint 0=success, otherwise a failure. (See ErrorReporter for details)"
      },
      "_setCollateralFactor(address,uint256)": {
        "details": "Admin function to set per-market collateralFactor",
        "params": {
          "cToken": "The market to set the factor on",
          "newCollateralFactorMantissa": "The new collateral factor, scaled by 1e18"
        },
        "return": "uint 0=success, otherwise a failure. (See ErrorReporter for details)"
      },
      "_setLiquidationIncentive(uint256)": {
        "details": "Admin function to set liquidationIncentive",
        "params": {
          "newLiquidationIncentiveMantissa": "New liquidationIncentive scaled by 1e18"
        },
        "return": "uint 0=success, otherwise a failure. (See ErrorReporter for details)"
      },
      "_setMaxAssets(uint256)": {
        "details": "Admin function to set maxAssets",
        "params": {
          "newMaxAssets": "New max assets"
        },
        "return": "uint 0=success, otherwise a failure. (See ErrorReporter for details)"
      },
      "_setPriceOracle(address)": {
        "details": "Admin function to set a new price oracle",
        "return": "uint 0=success, otherwise a failure (see ErrorReporter.sol for details)"
      },
      "_supportMarket(address)": {
        "details": "Admin function to set isListed and add support for the market",
        "params": {
          "cToken": "The address of the market (token) to list"
        },
        "return": "uint 0=success, otherwise a failure. (See enum Error for details)"
      },
      "borrowAllowed(address,address,uint256)": {
        "params": {
          "borrowAmount": "The amount of underlying the account would borrow",
          "borrower": "The account which would borrow the asset",
          "cToken": "The market to verify the borrow against"
        },
        "return": "0 if the borrow is allowed, otherwise a semi-opaque error code (See ErrorReporter.sol)"
      },
      "borrowVerify(address,address,uint256)": {
        "params": {
          "borrowAmount": "The amount of the underlying asset requested to borrow",
          "borrower": "The address borrowing the underlying",
          "cToken": "Asset whose underlying is being borrowed"
        }
      },
      "checkMembership(address,address)": {
        "params": {
          "account": "The address of the account to check",
          "cToken": "The cToken to check"
        },
        "return": "True if the account is in the asset, otherwise false."
      },
      "enterMarkets(address[])": {
        "params": {
          "cTokens": "The list of addresses of the cToken markets to be enabled"
        },
        "return": "Success indicator for whether each corresponding market was entered"
      },
      "exitMarket(address)": {
        "details": "Sender must not have an outstanding borrow balance in the asset, or be providing neccessary collateral for an outstanding borrow.",
        "params": {
          "cTokenAddress": "The address of the asset to be removed"
        },
        "return": "Whether or not the account successfully exited the market"
      },
      "getAccountLiquidity(address)": {
        "return": "(possible error code (semi-opaque), account liquidity in excess of collateral requirements,         account shortfall below collateral requirements)"
      },
      "getAssetsIn(address)": {
        "params": {
          "account": "The address of the account to pull assets for"
        },
        "return": "A dynamic list with the assets the account has entered"
      },
      "liquidateBorrowAllowed(address,address,address,address,uint256)": {
        "params": {
          "borrower": "The address of the borrower",
          "cTokenBorrowed": "Asset which was borrowed by the borrower",
          "cTokenCollateral": "Asset which was used as collateral and will be seized",
          "liquidator": "The address repaying the borrow and seizing the collateral",
          "repayAmount": "The amount of underlying being repaid"
        }
      },
      "liquidateBorrowVerify(address,address,address,address,uint256,uint256)": {
        "params": {
          "borrower": "The address of the borrower",
          "cTokenBorrowed": "Asset which was borrowed by the borrower",
          "cTokenCollateral": "Asset which was used as collateral and will be seized",
          "liquidator": "The address repaying the borrow and seizing the collateral",
          "repayAmount": "The amount of underlying being repaid"
        }
      },
      "liquidateCalculateSeizeTokens(address,address,uint256)": {
        "details": "Used in liquidation (called in cToken.liquidateBorrowFresh)",
        "params": {
          "cTokenBorrowed": "The address of the borrowed cToken",
          "cTokenCollateral": "The address of the collateral cToken",
          "repayAmount": "The amount of cTokenBorrowed underlying to convert into cTokenCollateral tokens"
        },
        "return": "(errorCode, number of cTokenCollateral tokens to be seized in a liquidation)"
      },
      "mintAllowed(address,address,uint256)": {
        "params": {
          "cToken": "The market to verify the mint against",
          "mintAmount": "The amount of underlying being supplied to the market in exchange for tokens",
          "minter": "The account which would get the minted tokens"
        },
        "return": "0 if the mint is allowed, otherwise a semi-opaque error code (See ErrorReporter.sol)"
      },
      "mintVerify(address,address,uint256,uint256)": {
        "params": {
          "cToken": "Asset being minted",
          "mintAmount": "The amount of the underlying asset being minted",
          "mintTokens": "The number of tokens being minted",
          "minter": "The address minting the tokens"
        }
      },
      "redeemAllowed(address,address,uint256)": {
        "params": {
          "cToken": "The market to verify the redeem against",
          "redeemTokens": "The number of cTokens to exchange for the underlying asset in the market",
          "redeemer": "The account which would redeem the tokens"
        },
        "return": "0 if the redeem is allowed, otherwise a semi-opaque error code (See ErrorReporter.sol)"
      },
      "redeemVerify(address,address,uint256,uint256)": {
        "params": {
          "cToken": "Asset being redeemed",
          "redeemAmount": "The amount of the underlying asset being redeemed",
          "redeemTokens": "The number of tokens being redeemed",
          "redeemer": "The address redeeming the tokens"
        }
      },
      "repayBorrowAllowed(address,address,address,uint256)": {
        "params": {
          "borrower": "The account which would borrowed the asset",
          "cToken": "The market to verify the repay against",
          "payer": "The account which would repay the asset",
          "repayAmount": "The amount of the underlying asset the account would repay"
        },
        "return": "0 if the repay is allowed, otherwise a semi-opaque error code (See ErrorReporter.sol)"
      },
      "repayBorrowVerify(address,address,address,uint256,uint256)": {
        "params": {
          "borrower": "The address of the borrower",
          "cToken": "Asset being repaid",
          "payer": "The address repaying the borrow",
          "repayAmount": "The amount of underlying being repaid"
        }
      },
      "seizeAllowed(address,address,address,address,uint256)": {
        "params": {
          "borrower": "The address of the borrower",
          "cTokenBorrowed": "Asset which was borrowed by the borrower",
          "cTokenCollateral": "Asset which was used as collateral and will be seized",
          "liquidator": "The address repaying the borrow and seizing the collateral",
          "seizeTokens": "The number of collateral tokens to seize"
        }
      },
      "seizeVerify(address,address,address,address,uint256)": {
        "params": {
          "borrower": "The address of the borrower",
          "cTokenBorrowed": "Asset which was borrowed by the borrower",
          "cTokenCollateral": "Asset which was used as collateral and will be seized",
          "liquidator": "The address repaying the borrow and seizing the collateral",
          "seizeTokens": "The number of collateral tokens to seize"
        }
      },
      "transferAllowed(address,address,address,uint256)": {
        "params": {
          "cToken": "The market to verify the transfer against",
          "dst": "The account which receives the tokens",
          "src": "The account which sources the tokens",
          "transferTokens": "The number of cTokens to transfer"
        },
        "return": "0 if the transfer is allowed, otherwise a semi-opaque error code (See ErrorReporter.sol)"
      },
      "transferVerify(address,address,address,uint256)": {
        "params": {
          "cToken": "Asset being transferred",
          "dst": "The account which receives the tokens",
          "src": "The account which sources the tokens",
          "transferTokens": "The number of cTokens to transfer"
        }
      }
    }
  },
  "userdoc": {
    "methods": {
      "_setCloseFactor(uint256)": {
        "notice": "Sets the closeFactor used when liquidating borrows"
      },
      "_setCollateralFactor(address,uint256)": {
        "notice": "Sets the collateralFactor for a market"
      },
      "_setLiquidationIncentive(uint256)": {
        "notice": "Sets liquidationIncentive"
      },
      "_setMaxAssets(uint256)": {
        "notice": "Sets maxAssets which controls how many markets can be entered"
      },
      "_setPriceOracle(address)": {
        "notice": "Sets a new price oracle for the comptroller"
      },
      "_supportMarket(address)": {
        "notice": "Add the market to the markets mapping and set it as listed"
      },
      "borrowAllowed(address,address,uint256)": {
        "notice": "Checks if the account should be allowed to borrow the underlying asset of the given market"
      },
      "borrowVerify(address,address,uint256)": {
        "notice": "Validates borrow and reverts on rejection. May emit logs."
      },
      "checkMembership(address,address)": {
        "notice": "Returns whether the given account is entered in the given asset"
      },
      "enterMarkets(address[])": {
        "notice": "Add assets to be included in account liquidity calculation"
      },
      "exitMarket(address)": {
        "notice": "Removes asset from sender's account liquidity calculation"
      },
      "getAccountLiquidity(address)": {
        "notice": "Determine the current account liquidity wrt collateral requirements"
      },
      "getAssetsIn(address)": {
        "notice": "Returns the assets an account has entered"
      },
      "liquidateBorrowAllowed(address,address,address,address,uint256)": {
        "notice": "Checks if the liquidation should be allowed to occur"
      },
      "liquidateBorrowVerify(address,address,address,address,uint256,uint256)": {
        "notice": "Validates liquidateBorrow and reverts on rejection. May emit logs."
      },
      "liquidateCalculateSeizeTokens(address,address,uint256)": {
        "notice": "Calculate number of tokens of collateral asset to seize given an underlying amount"
      },
      "mintAllowed(address,address,uint256)": {
        "notice": "Checks if the account should be allowed to mint tokens in the given market"
      },
      "mintVerify(address,address,uint256,uint256)": {
        "notice": "Validates mint and reverts on rejection. May emit logs."
      },
      "redeemAllowed(address,address,uint256)": {
        "notice": "Checks if the account should be allowed to redeem tokens in the given market"
      },
      "redeemVerify(address,address,uint256,uint256)": {
        "notice": "Validates redeem and reverts on rejection. May emit logs."
      },
      "repayBorrowAllowed(address,address,address,uint256)": {
        "notice": "Checks if the account should be allowed to repay a borrow in the given market"
      },
      "repayBorrowVerify(address,address,address,uint256,uint256)": {
        "notice": "Validates repayBorrow and reverts on rejection. May emit logs."
      },
      "seizeAllowed(address,address,address,address,uint256)": {
        "notice": "Checks if the seizing of assets should be allowed to occur"
      },
      "seizeVerify(address,address,address,address,uint256)": {
        "notice": "Validates seize and reverts on rejection. May emit logs."
      },
      "transferAllowed(address,address,address,uint256)": {
        "notice": "Checks if the account should be allowed to transfer tokens in the given market"
      },
      "transferVerify(address,address,address,uint256)": {
        "notice": "Validates transfer and reverts on rejection. May emit logs."
      }
    }
  }
}