{
  "contractName": "FakeCDaiInterestRateModel",
  "abi": [
    {
      "constant": true,
      "inputs": [
        {
          "name": "cash",
          "type": "uint256"
        },
        {
          "name": "borrows",
          "type": "uint256"
        },
        {
          "name": "_reserves",
          "type": "uint256"
        }
      ],
      "name": "getBorrowRate",
      "outputs": [
        {
          "name": "",
          "type": "uint256"
        },
        {
          "name": "",
          "type": "uint256"
        }
      ],
      "payable": false,
      "stateMutability": "view",
      "type": "function"
    },
    {
      "constant": true,
      "inputs": [],
      "name": "multiplier",
      "outputs": [
        {
          "name": "",
          "type": "uint256"
        }
      ],
      "payable": false,
      "stateMutability": "view",
      "type": "function"
    },
    {
      "constant": true,
      "inputs": [],
      "name": "baseRate",
      "outputs": [
        {
          "name": "",
          "type": "uint256"
        }
      ],
      "payable": false,
      "stateMutability": "view",
      "type": "function"
    },
    {
      "constant": true,
      "inputs": [],
      "name": "isInterestRateModel",
      "outputs": [
        {
          "name": "",
          "type": "bool"
        }
      ],
      "payable": false,
      "stateMutability": "view",
      "type": "function"
    },
    {
      "constant": true,
      "inputs": [],
      "name": "blocksPerYear",
      "outputs": [
        {
          "name": "",
          "type": "uint256"
        }
      ],
      "payable": false,
      "stateMutability": "view",
      "type": "function"
    },
    {
      "inputs": [],
      "payable": false,
      "stateMutability": "nonpayable",
      "type": "constructor"
    }
  ],
  "bytecode": "0x608060405234801561001057600080fd5b5066b1a2bc2ec500006001556701aa535d3d0c0000600055610612806100376000396000f3fe608060405234801561001057600080fd5b50600436106100575760003560e01c806315f240531461005c5780631b3ed7221461009e5780631f68f20a146100b85780632191f92a146100c0578063a385fb96146100dc575b600080fd5b6100856004803603606081101561007257600080fd5b50803590602081013590604001356100e4565b6040805192835260208301919091528051918290030190f35b6100a661017d565b60408051918252519081900360200190f35b6100a6610183565b6100c8610189565b604080519115158252519081900360200190f35b6100a661018e565b60008060006100f16105d3565b6100f96105d3565b6101038888610195565b91945092509050600083600481111561011857fe5b146101385782600481111561012957fe5b94506000935061017592505050565b60006101426105d3565b61014f8362201480610312565b9092509050600082600381111561016257fe5b1461016957fe5b51600096509450505050505b935093915050565b60005481565b60015481565b600181565b6220148081565b600061019f6105d3565b6101a76105d3565b60006101b16105d3565b6101bb878761037c565b909250905060008260048111156101ce57fe5b146101fc5750604080516020808201835260008083528351918201909352918252919450909250905061030b565b60006102066105d3565b6102128360005461043e565b9092509050600082600381111561022557fe5b14610257575050604080516020808201835260008083528351918201909352918252600396509450925061030b915050565b60006102616105d3565b61027383670de0b6b3a7640000610312565b9092509050600082600381111561028657fe5b1461028d57fe5b60006102976105d3565b6102b1836040518060200160405280600154815250610459565b909250905060008260038111156102c457fe5b146102fa57505060408051602080820183526000808352835191820190935291825260049a509850965061030b95505050505050565b60009a509598509496505050505050505b9250925092565b600061031c6105d3565b60008061032d866000015186610493565b9092509050600082600381111561034057fe5b1461035f57506040805160208101909152600081529092509050610375565b6040805160208101909152908152600093509150505b9250929050565b60006103866105d3565b826103a35750506040805160208101909152600080825290610375565b6000806103b086866104be565b909250905060008260038111156103c357fe5b146103e4575050604080516020810190915260008152600192509050610375565b60006103ee6105d3565b6103f887846104e4565b9092509050600082600381111561040b57fe5b1461042f575050604080516020810190915260008152600294509250610375915050565b60009890975095505050505050565b60006104486105d3565b60008061032d866000015186610594565b60006104636105d3565b600080610478866000015186600001516104be565b60408051602081019091529081529097909650945050505050565b600080826104a75750600190506000610375565b60008385816104b257fe5b04915091509250929050565b6000808383018481106104d657600092509050610375565b506002915060009050610375565b60006104ee6105d3565b60008061050386670de0b6b3a7640000610594565b9092509050600082600381111561051657fe5b1461053557506040805160208101909152600081529092509050610375565b6000806105428388610493565b9092509050600082600381111561055557fe5b1461057757506040805160208101909152600081529094509250610375915050565b604080516020810190915290815260009890975095505050505050565b600080836105a757506000905080610375565b838302838582816105b457fe5b04146105c857506002915060009050610375565b600092509050610375565b604051806020016040528060008152509056fea165627a7a723058203228478a8a33f7fa59030089d5cfc1b55e077e61e8b4fbecf2373a326aa8356d0029",
  "source": "pragma solidity 0.5.8;\n\nimport \"../../../lib/Compound/WhitePaperInterestRateModel.sol\";\n\ncontract FakeCDaiInterestRateModel is WhitePaperInterestRateModel {\n    constructor()\n    WhitePaperInterestRateModel(\n      0.05 * (10 ** 18),\n      0.12 * (10 ** 18)\n    )\n    public\n    {}\n}\n",
  "sourcePath": "/Users/seancasey/Sites/vulcanswap/contracts/deploy/development/Compound/FakeCDaiInterestRateModel.sol",
  "compiler": {
    "name": "solc",
    "version": "0.5.8+commit.23d335f2.Emscripten.clang"
  },
  "schemaVersion": "3.0.16",
  "updatedAt": "2019-10-03T13:11:43.194Z",
  "devdoc": {
    "methods": {
      "getBorrowRate(uint256,uint256,uint256)": {
        "details": "The return value should be scaled by 1e18, thus a return value of     `(true, 1000000000000)` implies an interest rate of 0.000001 or 0.0001% *per block*.",
        "params": {
          "_reserves": "The total reserves of the underlying asset in the CToken",
          "borrows": "The total borrows of the underlying asset in the CToken",
          "cash": "The total cash of the underlying asset in the CToken"
        },
        "return": "Success or failure and the borrow interest rate per block scaled by 10e18"
      }
    }
  },
  "userdoc": {
    "methods": {
      "getBorrowRate(uint256,uint256,uint256)": {
        "notice": "Gets the current borrow interest rate based on the given asset, total cash, total borrows        and total reserves."
      }
    }
  }
}