{
  "contractName": "LimitedAcceptedCurrencies",
  "abi": [
    {
      "constant": true,
      "inputs": [
        {
          "name": "",
          "type": "address"
        }
      ],
      "name": "acceptedCurrencyInfo",
      "outputs": [
        {
          "name": "minAmount",
          "type": "uint256"
        },
        {
          "name": "maxAmount",
          "type": "uint256"
        },
        {
          "name": "state",
          "type": "uint8"
        }
      ],
      "payable": false,
      "stateMutability": "view",
      "type": "function"
    }
  ],
  "bytecode": "0x608060405234801561001057600080fd5b5060d08061001f6000396000f3fe6080604052348015600f57600080fd5b506004361060285760003560e01c80632493f1a214602d575b600080fd5b605060048036036020811015604157600080fd5b50356001600160a01b03166081565b60405180848152602001838152602001826002811115606b57fe5b60ff168152602001935050505060405180910390f35b600160208190526000918252604090912080549181015460029091015460ff168356fea165627a7a723058203ee783fb7fbdc7edb88f77bd0c0fbecf2e9fc66c75df53362bafe64697fafac00029",
  "source": "pragma solidity 0.5.8;\n\n// import '../../node_modules/openzeppelin-solidity/contracts/ownership/Ownable.sol';\n// import '../../node_modules/openzeppelin-solidity/contracts/math/SafeMath.sol';\n\ncontract LimitedAcceptedCurrencies {\n    address[] internal acceptedCurrencies;\n\n    enum AcceptedCurrencyState { None, Active, Inactive }\n    struct AcceptedCurrencyInfo {\n        uint256 minAmount;\n        uint256 maxAmount;\n        AcceptedCurrencyState state;\n    }\n    mapping(address => AcceptedCurrencyInfo) public acceptedCurrencyInfo;\n\n    modifier acceptedCurrencyExists(address _currency, bool _exists) {\n        if(_exists) {\n            require(acceptedCurrencyInfo[_currency].state != AcceptedCurrencyState.None);\n        }\n        else {\n            require(acceptedCurrencyInfo[_currency].state == AcceptedCurrencyState.None);\n        }\n        _;\n    }\n\n    modifier currencyIsAccepted(address _currency) {\n        require(acceptedCurrencyInfo[_currency].state == AcceptedCurrencyState.Active);\n        _;\n    }\n\n    /* INTERNAL FUNCTIONS */\n\n    function addAcceptedCurrency(\n        address _currency,\n        uint256 _minAmount,\n        uint256 _maxAmount\n    )\n        internal\n        acceptedCurrencyExists(_currency, false)\n    {\n        AcceptedCurrencyInfo memory acceptedCurrency = AcceptedCurrencyInfo({\n            minAmount: _minAmount,\n            maxAmount: _maxAmount,\n            state: AcceptedCurrencyState.Active\n        });\n        acceptedCurrencyInfo[_currency] = acceptedCurrency;\n        acceptedCurrencies.push(_currency);\n    }\n\n    function updateAcceptedCurrencyIsActive(\n        address _currency,\n        bool _isActive\n    )\n        internal\n        acceptedCurrencyExists(_currency, true)\n    {\n        AcceptedCurrencyInfo storage acceptedCurrency = acceptedCurrencyInfo[_currency];\n        acceptedCurrency.state = _isActive ? AcceptedCurrencyState.Active : AcceptedCurrencyState.Inactive;\n    }\n\n    function updateAcceptedCurrencyLimits(\n        address _currency,\n        uint256 _minAmount,\n        uint256 _maxAmount\n    )\n        internal\n        acceptedCurrencyExists(_currency, true)\n    {\n        AcceptedCurrencyInfo storage acceptedCurrency = acceptedCurrencyInfo[_currency];\n        acceptedCurrency.minAmount = _minAmount;\n        acceptedCurrency.maxAmount = _maxAmount;\n    }\n}\n",
  "sourcePath": "/Users/seancasey/Sites/vulcanswap/contracts/deploy/LimitedAcceptedCurrencies.sol",
  "compiler": {
    "name": "solc",
    "version": "0.5.8+commit.23d335f2.Emscripten.clang"
  },
  "schemaVersion": "3.0.16",
  "updatedAt": "2019-10-03T13:11:19.735Z",
  "devdoc": {
    "methods": {}
  },
  "userdoc": {
    "methods": {}
  }
}